:020000040800F2
:10000000F046002045010008D54500085D2A00089B
:1000100051310008790F0008FD950008000000002C
:100020000000000000000000000000008D4B0008F0
:10003000C511000800000000FD450008C15C000873
:100040005F0100085F0100085F01000845470008E4
:100050005F0100085F0100085F0100085F01000800
:100060005F0100085F0100085F0100085F010008F0
:100070005F0100085F0100085F010008211100080E
:100080005F0100085F010008DD0800085F0100084B
:100090005F0100085F0100085F0100085F010008C0
:1000A0005F0100085F0100085F0100085F010008B0
:1000B0005F0100085F0100085F0100085F010008A0
:1000C0005F0100085F0100085F0100085F01000890
:1000D0005F0100085F0100085F0100085F01000880
:1000E0005F0100085F0100085F0100085F01000870
:1000F0005F0100085F0100085F0100085F01000860
:100100005F0100085F0100085F0100085F0100084F
:100110005F0100085F010008A55D0008C55D0008DB
:100120005F0100085F0100085F0100085F0100082F
:10013000DFF80CD000F0BAFB0048004791C7000878
:10014000F04600200648804706480047FEE7FEE7E5
:10015000FEE7FEE7FEE7FEE7FEE7FEE7FEE7FEE777
:10016000C55C0008310100082DE9FE4F804681EA98
:100170000300C00F0C46009021F0004123F0004521
:10018000B8EB0200A94105D24046214690461C46E4
:100190000B46024623F00040104347D0270DC7F31B
:1001A0000A00C3F30A510290401A019040286BDA0A
:1001B000C3F3130040F4801B0098924620B1002343
:1001C000D2EB030A63EB0B0B01985946C0F14002D6
:1001D000504600F055FA06460D4650465946019ADB
:1001E00000F06DFA10EB08006141002487EA11521B
:1001F00084EAE7731A4340D0009A62B3019A012A55
:100200004FEA075215DC001B61EB02014FF0004280
:1002100002EA0752CDE90042001C41F58011324646
:100220002B4600F0C2FA03B0BDE8F08F40462146ED
:10023000F9E7001B61EB0201001C41F58013001877
:100240005B412018A2F5001747EB030140EAD57087
:10025000B6196D4111E06D084FEA360645EAC075E2
:100260004FEA0752001B61EB0201001C41F58011AF
:1002700049084FEA30000019514132462B4603B07D
:10028000BDE8F04F00F082BA009801224000002340
:10029000D0EB020263EBE073009821464FEAE07472
:1002A000B8EB000061EB0401E9E783F000435BE792
:1002B00081F0004158E72DE9FE4F81EA030404F084
:1002C000004421F0004100944FF0000B23F0004364
:1002D00050EA01045ED052EA03045BD0C3F30A542F
:1002E000C1F30A552C44A4F2F3340194A0FB025448
:1002F000C1F3130141F48011C3F3130343F48013DA
:1003000001FB024400FB034E840A970A44EA81542D
:1003100047EA8357A4FB076802958D0A05FB07850A
:100320004FEA932C04FB0C542705029D4FEA065814
:1003300047EA1637B5EB08056EEB070C870E920EF1
:1003400047EA811742EA8312A7FB0201B6EB0B01D1
:1003500064EB00042B0D43EA0C335E1844EB1C5095
:10036000DA465146E7FB0201C5F313044FEA0B33AB
:1003700043EA14534FEA0432019C43EA0603A4F112
:100380000C040294009CCDE900B400F00EFA03B016
:10039000BDE8F08F00200146F9E72DE9F04D81EA34
:1003A000030404F0004B21F0004514464FF0000A0E
:1003B00023F0004150EA050220D054EA01021DD08A
:1003C000C5F30A570246C5F31303C1F31300C1F383
:1003D0000A5640F4801543F48013A7EB0608101B5F
:1003E000D64608F2FD3873EB050002D308F1010888
:1003F00001E092185B41B8F1000F03DA00200146DA
:10040000BDE8F08D00204FF48011064684460EE0D2
:10041000171B73EB050705D3121B63EB050306439C
:100420004CEA010C49084FEA300092185B4150EA4F
:100430000107EDD152EA030012D082EA040083EAF8
:100440000501084305D0101BAB4106D20122002351
:1004500006E000224FF0004302E06FF0010253106B
:100460001AEB06004CEB085110EB0A0041EB0B01B4
:10047000BDE8F04D00F08AB930B5041E71F10004FA
:1004800004DB4FF00044404264EB0101141E73F1A1
:10049000000405DB1C464FF00043524263EB0403AB
:1004A000801A994101D3012030BD002030BD30B504
:1004B000041E71F1000404DB4FF00044404264EB81
:1004C0000101141E73F1000405DB1C464FF00043CC
:1004D000524263EB0403101A8B4101D2012030BD5C
:1004E000002030BD30B5041E71F1000404DB4FF074
:1004F0000044404264EB0101141E73F1000405DB6B
:100500001C464FF00043524263EB0403101A8B4128
:1005100001D3012030BD002030BD0EB5C10F80EAEF
:10052000E0700844CA07002140F233438DE80E0012
:100530000A460B4600F039F903B000BD0EB540F293
:10054000334102910021CDE900110A460B4600F02B
:100550002CF903B000BD70B5C1F30A5201F000459B
:100560000024C1F3130140F2FF3341F480119A4299
:1005700001DA002070BD40F233439A42A2F23342C6
:1005800003DC524200F08BF800E090402C43F1D0A5
:10059000404270BD00F0004230F000400AD0C10D72
:1005A00001F56071C0F3160042EA0151C20840072C
:1005B0001143704700200146704701F0004330B4FA
:1005C00021F0004150EA010206D00A0DA2F5607246
:1005D000C1F31301002A02DC30BC00207047440F35
:1005E00044EAC104C100E01830BC00EBC25000F086
:1005F00078B830B50B46014600202022012409E0DE
:1006000021FA02F59D4205D303FA02F5491B04FACB
:1006100002F52844151EA2F10102F1DC30BD2DE9DE
:10062000F05F0546002092469B4688460646814676
:1006300040241BE0284641464746224600F02FF85A
:1006400053465A46C01A914110D3114618462246C5
:1006500000F016F82D1A67EB01084F4622460120DC
:10066000002100F00DF817EB00094E41201EA4F107
:100670000104DFDC484631462A464346BDE8F09F88
:10068000202A04DB203A00FA02F100207047914052
:10069000C2F1200320FA03F3194390407047202A47
:1006A00004DB203A21FA02F00021704721FA02F31C
:1006B000D040C2F120029140084319467047202AD9
:1006C00006DBCB17203A41FA02F043EAE07306E07A
:1006D00041FA02F3D040C2F120029140084319468A
:1006E00070470029A8BF7047401C490008BF20F090
:1006F0000100704710B4B0FA80FC00FA0CF050EA28
:10070000010404BF10BC704749B1CCF1200421FAA8
:1007100004F411FA0CF118BF012121430843A3EBA3
:100720000C01CB1D4FEA00614FEA102042BF0020B0
:1007300010BC704700EBC35010440029A4BF10BC8C
:100740007047401C490008BF20F0010010BC7047F2
:1007500010B541000CD0C0F3C751962908DC7E29A2
:1007600009DC06DB410204D000F0004040F07E507E
:1007700010BD002010BDC1F19604C4F1200100FAA3
:1007800001F1E040FFF7ADFFA04010BD10B5141E11
:1007900073F1000408DA401C41F1000192185B413A
:1007A0001A4301D120F0010010BD2DE9F04D924611
:1007B0009B4611B1B1FA81F202E0B0FA80F2203228
:1007C0009046FFF75DFF04460F4640EA0A0041EA03
:1007D0000B0153465A46084313D0114653EA010011
:1007E00019D0C8F140025046FFF759FF05460E46A2
:1007F000504659464246FFF743FF084305D00120C3
:1008000004E020463946BDE8F08D0020054346EA65
:10081000E0762C4337430A986305E40AA0EB08000E
:100820000022FD0A44EA47540A3002D5002001465E
:10083000E9E7010510196941DDE908450019694139
:10084000BDE8F04DA2E7C1F30A52C1F3130140F233
:10085000FF3341F480119A4202DA002001467047CA
:1008600040F233439A42A2F2334202DC5242FFF793
:1008700016BFFFF705BF000030B5041E71F100047C
:1008800004DB4FF00044404264EB0101141E73F19D
:10089000000405DB1C464FF00043524263EB0403A7
:1008A000994208BF904230BD002070471CB50948EE
:1008B0000090094801900546009C06E0E06840F081
:1008C000010394E8070098471034AC42F6D3FFF7D1
:1008D00033FC0000546F0108746F010880B542F2C8
:1008E0000040C4F20100022109F0DAF828B1FFE764
:1008F0000020522100F010F8FFE742F20040C4F25D
:100900000100042109F0CCF828B1FFE700204921BB
:1009100000F002F8FFE780BD80B584B08DF80F00CD
:100920008DF80E100020ADF80C00ADF80A009DF80F
:100930000F00002840F0DD80FFE79DF80E005228F0
:1009400040F09180FFE742F20040C4F2010009F05C
:10095000C3F9ADF80C00BDF80C0040F677518842A1
:100960000BDCFFE7BDF80C00B0F53E6F05DBFFE7E1
:100970000021084602F030FA62E0BDF80C0040F6B3
:10098000D32188420CDCFFE7BDF80C0040F63C1197
:10099000884205DBFFE70120002102F01DFA4EE04E
:1009A000BDF80C0040F2467188420CDCFFE7BDF850
:1009B0000C0040F2AF51884205DBFFE70220002126
:1009C00002F00AFA3AE0BDF80C00B0F5667F0BDCE5
:1009D000FFE7BDF80C00B0F5007F05DDFFE7032061
:1009E000002102F0F9F928E0BDF80C00CC2805DC64
:1009F000FFE70520002102F0EFF91DE0BDF80C0033
:100A000040F63371884216DBFFE700200121019197
:100A100002F0E2F90199084602F0DEF9019902209C
:100A200002F0DAF90199032002F0D6F901990520C4
:100A300002F0D2F9FFE7FFE7FFE7FFE7FFE7FFE795
:100A400040F60000C4F2010001210AF0EFFA01466D
:100A5000042002F0C1F942F20040C4F20100022178
:100A600009F014F844E09DF80E0049283FD1FFE753
:100A700042F20040C4F201000090002108F0B8FFEB
:100A8000ADF80A00BDF80A0000EE100AB8EE400A00
:100A900010EE100AFFF77EFD41EC100B9FED161BC8
:100AA00053EC112B51EC100BFFF705FC41EC100B34
:100AB00051EC100B9FED120B53EC102BFFF76DFC5C
:100AC00041EC100B51EC100BFFF745FD40F26801B3
:100AD000C2F20001888541F20000C4F20100082141
:100AE0000AF0BEF90098042108F0D0FFFFE7FFE705
:100AF000FFE704B080BD00BF000000000025B1404A
:100B0000000000000000E44080B586B042F20040E2
:100B1000C4F20100059008F043FE0020019009F0A6
:100B200011F805984FF480710122009209F0FAF84B
:100B30000199059808F020FE009A0598114608F0E2
:100B4000E3FD01990598022202920523049309F01E
:100B500009F8009905984FF4602208F0A7FE009A62
:100B60000598114608F066FE009A0299059808F06B
:100B7000CBFD019905980C22072308F0C1FE0299CC
:100B800005984FF4E04208F091FE009A029905980A
:100B900008F050FE019A122003210CF08DFA029900
:100BA000059808F073FF05980421039108F06EFF83
:100BB0000299059808F042FF0399059808F03EFF56
:100BC000059808F027FE049809F06EFB059808F0D8
:100BD0007DFD06B080BD000080B582B043F29E600E
:100BE000C2F20000807CADF80400BDF8042043F29E
:100BF000F800C2F20000805C46F60811C0F6010160
:100C0000895C884204DBFFE700208DF80700FEE0E6
:100C1000BDF8041043F2F800C2F20000405C28BBAB
:100C2000FFE7BDF8041043F29E60C2F2000000EB43
:100C30004100808AC8224A4343F2FC01C2F200010B
:100C40008852BDF8042043F2F801C2F20001885C2A
:100C500001308854BDF8042043F2F401C2F20001CF
:100C60000020885401208DF80700D0E000208DF886
:100C70000300BDF8041043F2F800C2F20000405C2B
:100C800001388DF80300FFE79DF80300002800F10C
:100C9000AF80FFE7BDF8041043F29E60C2F200008F
:100CA00000EB4100808A43F2FC03C2F20003C82239
:100CB00001FB02319DF8032031F8121088420DD15A
:100CC000FFE79DF80300BDF8042043F2F401C2F2EF
:100CD0000001885401208DF8070098E0BDF8041049
:100CE00043F29E60C2F2000000EB4100808A43F2B2
:100CF000FC03C2F20003C82201FB02319DF803206D
:100D000031F81210884211DAFFE7BDF8040043F20F
:100D1000FC02C2F20002C82100FB01209DF8032062
:100D200000EB420130F81200488037E0BDF80410B3
:100D300043F29E60C2F2000000EB4100808A43F261
:100D4000FC03C2F20003C82201FB02319DF803201C
:100D500031F81210884220DDFFE7BDF8041043F29D
:100D60009E60C2F2000000EB4100808A43F2FC0367
:100D7000C2F20003C82201FB02319DF8032001EBFF
:100D8000420148809DF803000130BDF8042043F281
:100D9000F401C2F2000188542AE0FFE7FFE79DF862
:100DA0000300F0B9FFE7BDF8041043F29E60C2F201
:100DB000000000EB4100808A43F2FC03C2F2000312
:100DC000C82201FB02319DF8032021F812009DF892
:100DD0000300BDF8042043F2F401C2F2000188547C
:100DE00006E0FFE79DF8030001388DF803004BE7AC
:100DF000BDF8042043F2F801C2F20001885C013022
:100E000088540CF01DFF01208DF80700FFE79DF8C6
:100E1000070002B080BD000080B582B08DF80700E9
:100E200043F29E60C2F20000C17C084490F82100A9
:100E30008DF806009DF807109DF8060008448DF80F
:100E400006009DF9062000200F210AF0ADF98DF86B
:100E500006009DF8060004F0CBFA02B080BD000049
:100E600080B582B08DF8070043F29E60C2F20000A8
:100E700010F812CF00EB4C014B889DF9071040F29F
:100E80004002C2F2000202EBCC0284449CF80AC089
:100E900032F81C2001FB0231ADF80410027846F64E
:100EA0001410C0F6010030F9120046F60C11C0F61D
:100EB000010131F91210BDF804200AF075F9ADF8FE
:100EC0000400BDF80400012105F000FA02B080BD65
:100ED00080B582B08DF8070043F29E60C2F2000038
:100EE0008178405C8DF806009DF906009DF9071099
:100EF00000EB4102002064210AF056F98DF806004B
:100F00009DF8060004F058FD02B080BD80B582B0A7
:100F100041F20000C4F2010000904FF480610191A1
:100F200009F09EFF052009F0BFF90098019909F02A
:100F30009FFF142009F0B8F943F2D860C2F2000014
:100F4000006890F82000012807D1FFE741F2063041
:100F5000C0F6010000F0FAF8FFE741F2D420C0F635
:100F6000010000F0F3F841F2D920C0F6010000F0D2
:100F7000EDF802B080BD0000FFE7FEE782B001900F
:100F80008DF80310019840899DF80310C84000F0C7
:100F9000030002B07047000081B000900098808884
:100FA000000B01B07047000081B0009000980078FD
:100FB000C0F3001001B0704780B582B08DF8070013
:100FC0000020ADF804009DF80700014600910128BB
:100FD00004D0FFE70098022806D00BE0002009F0BB
:100FE00015F8ADF8040005E0012009F00FF8ADF8A0
:100FF0000400FFE7BDF8040002B080BD80B584B0F6
:1010000008F0AAFF002002903821019109F04EF863
:10101000029809F031F80299084609F06BF8029835
:1010200008F0DAFF01990120039009F03FF80398D6
:1010300009F022F80299039809F05CF8039808F087
:10104000CBFF029808F094FF039808F091FF04B0DA
:1010500080BD00000000000080B586B08DF817004C
:10106000ADF814109DF8170001460391012804D033
:10107000FFE70398022834D048E0BDF8140020B9F7
:10108000FFE70020ADF8120020E0BDF81400FFF7E4
:1010900044FA41EC100B9FED1E1B53EC112B51EC4D
:1010A000100BFFF708F941EC100B51EC100B9FED02
:1010B0001A0B53EC102BFFF757F841EC100B51ECC7
:1010C000100BFFF748FAADF81200FFE7BDF8122049
:1010D00000210291084608F0E9FE029808F0B2FFEC
:1010E00014E0BDF814200020009040F214510AF0E2
:1010F0005BF80099ADF81200BDF8122001200190B4
:1011000008F0D4FE019808F09DFFFFE706B080BD0F
:10111000666666666666444000000000000028407F
:1011200080B50020C4F202000421022209F0C0FAB6
:1011300050B1FFE70020C4F202000421012209F0AF
:10114000A5FA0BF041F8FFE780BD000080B584B040
:10115000039003980190FFE7019800788DF80B0049
:101160000198013001909DF80B0008B9FFE727E0D6
:101170009DF80B00FF2803D1FFE708F085FAEBE7A5
:101180009DF80B00000600280DD5FFE79DF80B0029
:1011900000F07F010198421C0192007840EA012092
:1011A00009F082F80BE001999DF80B20382001F03E
:1011B0004BFD01989DF80B1008440190FFE7CBE729
:1011C00004B080BD7047000080B582B001900198E6
:1011D00003F018FB43F23441C2F200010968488071
:1011E00001980421FFF7CAFE00281CDCFFE70198E4
:1011F000FFF7D2FE014640F29800C2F200000170F3
:1012000000780146009120B1FFE70098022804D041
:1012100007E0019803F068FB04E0019803F0C6FBC7
:1012200000E0FFE7FFE702B080BD000080B582B0BC
:10123000ADF80600BDF80600552806DBFFE7BDF84F
:101240000600B0F5B47F01DDFFE717E00020ADF840
:1012500004009DF8060000F03F008DF80400BDF882
:101260000600C0F382108DF805009DF804209DF85B
:101270000530812002210BF08FF9FFE702B080BD1D
:1012800080B584B0844606988DF80FC08DF80E1096
:10129000ADF80C208DF80B308DF80A00BDF80C006D
:1012A000ADF808009DF80B008008ADF806009DF829
:1012B0000E009DF80F10BDF80C200244013ABDF855
:1012C00006300B44013BD2B2DBB20BF00DF85C20D0
:1012D00000210BF061F99DF80A00BDF80810BDF877
:1012E0000620514389B20BF0E5F904B080BD00003F
:1012F00080B592B08DF847008DF846109DF84700F4
:101300001F2805DCFFE79DF84600202801DBFFE7EA
:1013100023E03120002110910BF03EF9109B9DF845
:1013200047109DF8462068460F9043630363C262EE
:10133000826242620362C361826143610361C16090
:10134000816041600360202010211A460BF024F9CF
:10135000109930200BF020F9FFE712B080BD00009B
:1013600080B582B08DF80700A6208DF806009DF8A4
:101370000700C00730B1FFE79DF8060001308DF887
:101380000600FFE79DF8060000210BF005F902B00A
:1013900080BD000080B582B08DF807009DF8070081
:1013A00028B9FFE7AE2000210BF0F6F804E0AF20EB
:1013B00000210BF0F1F8FFE702B080BD80B584B0EA
:1013C000039002918DF8072008F072F903999DF8B7
:1013D000072044F23900C0F2F40004F079FB0299CE
:1013E0009220C0F2F40004F03FFB9DF80710932018
:1013F000C0F2F40004F038FB002004B080BD00000F
:1014000083B00290ADF806108DF805200020ADF8ED
:101410000200ADF80200FFE7BDF80200BDF80610BB
:10142000013988420DDAFFE79DF805000299BDF801
:1014300002208854FFE7BDF802000130ADF8020039
:10144000EAE70299BDF802200020885403B07047F3
:1014500083B00290ADF806100020ADF80400ADF89E
:101460000200ADF80400FFE7BDF80400BDF8061067
:10147000884216DAFFE70299BDF80200085CBDF861
:101480000420895C884205DDFFE7BDF80400ADF863
:101490000200FFE7FFE7BDF804000130ADF80400EB
:1014A000E2E7BDF8020003B07047000080B588B0E5
:1014B00040F20020C0F23000012109F0CDFD40F6DD
:1014C0000000C4F20100059004210691022204925A
:1014D000812309F0E9FC049A059828214FF4004380
:1014E00009F0E2FC049A069940F60040C4F20100BB
:1014F000039040F6034309F0D7FC049A059840F6A0
:101500001401C4F2010140230B601021009109F085
:10151000CBFC0099049A41F21400C4F2010040F699
:10152000D853036041F20000C4F20100019009F0B9
:10153000BBFC00990398049A40F6144CC4F2010CC9
:101540004FF48073CCF8003009F0AEFC0198049B96
:10155000002102910322079209F0A6FC0299059846
:10156000079A302309F0A0FC02990598069B079A78
:1015700009F09AFC0398049A40F61041C4F2010164
:10158000C0230B60142109F08FFC0598079A1821DD
:101590004FF4007309F088FC05980699079A4FF4F8
:1015A000806309F081FC08B080BD0000B0B58AB04E
:1015B0008C4686460F980E99ADF826E08DF825C02A
:1015C0008DF8242008938DF81F108DF81E009DF8CB
:1015D00024008DF81D009DF81D00202805DBFFE785
:1015E0009DF81D007F2804DBFFE73F208DF81D00DC
:1015F000FFE708988079400740B9FFE70898C0885E
:10160000C1088DF81C10C0F3C70008E00898C18815
:10161000012000EBD1008DF81C00C0B2FFE79DF85F
:101620001D0020389DF81C104843089989884843BC
:10163000ADF81A0008980068BDF81A100844059023
:10164000BDF826009DF82510089B9A889B799DF887
:101650001FC09DF81E40059DEE46CEF80C50CEF8FA
:101660000840CEF804C04FF0000CCEF800C000F0E7
:1016700041F80AB0B0BD000080B582B08DF8070017
:101680000020ADF80400FFE7BDF80400172829DCAE
:10169000FFE70020ADF80200FFE7BDF80200FF28D9
:1016A00019DCFFE79DF8071043F6A110C0F6010012
:1016B000405CBDF8042040F2A501C2F2000101EB3C
:1016C0000221BDF802208854FFE7BDF80200013076
:1016D000ADF80200E1E7FFE7BDF804000130ADF826
:1016E0000400D1E70021FF225F23084600F00CFF31
:1016F00002B080BDB0B58AB094468E4604461198BB
:1017000010980F990E9AADF826408DF825E0ADF8A7
:1017100022C08DF821308DF820208DF81F108DF813
:101720001E000020ADF814009DF821109DF8203017
:1017300043F69F12C0F60102D25CB1FBF2F1013117
:101740008DF813108DF81000ADF81800FFE7BDF804
:1017500018009DF81310884280F2B280FFE79DF8D0
:101760002130BDF818009DF8202043F69F11C0F6E7
:1017700001018A5C00FB12308DF812009DF8120006
:101780009DF82020895C88420ADBFFE79DF8201045
:1017900043F69F10C0F60100405C8DF8110004E094
:1017A0009DF812008DF81100FFE70020ADF81C0035
:1017B000FFE7BDF81C00BDF8221088426DDAFFE794
:1017C0001198BDF81410405C8DF817000020ADF89A
:1017D0001A00FFE7BDF81A009DF81110884250DA90
:1017E000FFE79DF8200058BBFFE7BDF82600BDF8D5
:1017F0001C10084402909DF82500BDF81A100844FA
:101800009DF81010084403909DF81700000600286A
:1018100004D5FFE79DF81F00019003E09DF81E002E
:101820000190FFE703990298019A80B2C9B2D2B23F
:1018300000F0C6F89DF8170040008DF8170019E079
:10184000BDF82600BDF81C1008449DF82510BDF811
:101850001A2011449DF8102011449DF81720920978
:1018600080B2C9B200F0ACF89DF8170080008DF886
:101870001700FFE7FFE7BDF81A000130ADF81A00C6
:10188000A8E7BDF814000130ADF81400FFE7BDF87B
:101890001C000130ADF81C008BE79DF8201043F6CA
:1018A0009F10C0F60100415C9DF8100008448DF8BF
:1018B0001000FFE7BDF818000130ADF8180046E74A
:1018C0009DF82510BDF82600BDF822200244013AFB
:1018D0009DF821300B44013B92B2DBB2C0B200F064
:1018E00013FE0AB0B0BD000080B584B0DDF818C0AA
:1018F0008DF80F008DF80E10ADF80C208DF80B3020
:101900000020ADF800009DF80E008008ADF804003E
:101910009DF80B008008ADF80200BDF80400ADF89A
:101920000800FFE7BDF80800BDF80410BDF802206C
:101930001144884231DAFFE79DF80F00ADF8060048
:10194000FFE7BDF806009DF80F10BDF80C2011440C
:1019500088421BDAFFE70698BDF80010405CBDF82E
:10196000082040F2A501C2F2000101EB0221BDF8FE
:1019700006208854BDF800000130ADF80000FFE7F4
:10198000BDF806000130ADF80600DAE7FFE7BDF864
:1019900008000130ADF80800C4E79DF80F009DF87D
:1019A0000E10BDF80C200244013A9DF80B300B4498
:1019B000013B92B2DBB200F0A7FD04B080BD000095
:1019C00082B0ADF806008DF805108DF804209DF862
:1019D000050080088DF803009DF80510032020EA1B
:1019E000010149008DF802109DF8021000FA01FC77
:1019F0009DF8031040F2A500C2F2000000EB0122A6
:101A0000BDF80630D15C21EA0C01D1549DF80410D8
:101A10009DF8022001FA02F39DF8031000EB01216A
:101A2000BDF80620885C1843885402B07047000057
:101A300080B586B084460898ADF816C08DF81510AC
:101A4000ADF812208DF811308DF810009DF81100BE
:101A5000ADF80A009DF81500ADF80600BDF80600C7
:101A600000F00300ADF80400BDF8060080088DF812
:101A70000300FFE7BDF80A00002800F0CB80FFE775
:101A8000BDF80A00BDF80410C1F10401884205DA6E
:101A9000FFE7BDF80A00ADF8080007E0BDF8040054
:101AA000C0F10400ADF8080080B2FFE700208DF817
:101AB00002008DF80100BDF8080004282DD1FFE7D1
:101AC0009DF8101043F6A110C0F60100405C8DF89F
:101AD0000200BDF81600ADF80E00FFE7BDF80E00DD
:101AE000BDF81210BDF816201144884214DAFFE741
:101AF0009DF802009DF8032040F2A501C2F200010A
:101B000001EB0221BDF80E208854FFE7BDF80E005E
:101B10000130ADF80E00E1E762E00020ADF80E0004
:101B2000FFE7BDF80E00BDF80810884226DAFFE78F
:101B3000BDF80E00BDF804100844C0F103004000D9
:101B40008DF800009DF810009DF8001000FA01F1DA
:101B50009DF8020008438DF802009DF80010032054
:101B600000FA01F19DF8010008438DF80100FFE73C
:101B7000BDF80E000130ADF80E00D2E7BDF816003A
:101B8000ADF80E00FFE7BDF80E00BDF81210BDF86D
:101B900016201144884222DAFFE79DF801C09DF823
:101BA000031040F2A500C2F2000000EB0122BDF8D4
:101BB0000E30D15C21EA0C01D1549DF802309DF821
:101BC000031000EB0121BDF80E20885C18438854F7
:101BD000FFE7BDF80E000130ADF80E00D3E7FFE7D8
:101BE000BDF80810BDF80A00401AADF80A00BDF8AB
:101BF0000810BDF806000844ADF80600BDF8060060
:101C000000F00300ADF80400BDF8060080088DF870
:101C100003002FE79DF81510BDF81600BDF812203F
:101C20000244013A9DF811300B44013B92B2DBB201
:101C3000C0B200F069FC06B080BD000080B584B081
:101C400084460698ADF80EC08DF80D10ADF80A2048
:101C50008DF809308DF808009DF80D008008ADF86A
:101C600002009DF809008008ADF80000BDF80200F0
:101C7000ADF80400FFE7BDF80400BDF80210BDF8A0
:101C80000020114488422ADAFFE7BDF80E00ADF8C3
:101C90000600FFE7BDF80600BDF80E10BDF80A20EB
:101CA0001144884214DAFFE79DF80800BDF80420CB
:101CB00040F2A501C2F2000101EB0221BDF80620AD
:101CC0008854FFE7BDF806000130ADF80600E1E7F3
:101CD000FFE7BDF804000130ADF80400CBE79DF844
:101CE0000D10BDF80E00BDF80A200244013A9DF81F
:101CF00009300B44013B92B2DBB2C0B200F004FCED
:101D000004B080BDB0B58CB08C468646129811994F
:101D1000109CADF82EE08DF82DC08DED0A0A8DF8DF
:101D200027208DF826308DF825108DF8240000200E
:101D30008DF823009DED0A0ABDEEC00A8DED070A5D
:101D40009DED0A0A9DED071AB8EEC11A30EE410A60
:101D50009DF8271043F6B010C0F6010000EB81009B
:101D600090ED001AB8EE411A20EE010ABDEEC00A4D
:101D70008DED060A0698B0F1FF3F04DCFFE70698F8
:101D800040420690FFE79DF8260001284BD1FFE76F
:101D9000BDF82E009DF82D10069A109B9DF825E0A9
:101DA0009DF82440EC46CCF80840CCF804E0CCF890
:101DB00000300123059300F0FDF8BDF82E209DF8BA
:101DC00027000130109B998800FB11209DF82D10F1
:101DD0009DF825209DF824E0EC46CCF804E0CCF8F2
:101DE000002080B22E22FFF7E1FB059BBDF82E20DC
:101DF0009DF827000130DDF840C0BCF8041000FB5E
:101E000011209DF82D10079A9DF825409DF824502B
:101E1000EE46CEF80850CEF80440CEF800C080B2AE
:101E200000F0C8F84BE0BDF82E009DF82D10069A82
:101E3000109B9DF825E09DF82440EC46CCF8084026
:101E4000CCF804E0CCF800300023049300F0B2F8A2
:101E50008DF82300BDF82E209DF82300109B998853
:101E600000FB01209DF82D109DF825209DF824E011
:101E7000EC46CCF804E0CCF8002080B22E22FFF72C
:101E800095FB049BBDF82E209DF823000130DDF862
:101E900040C0BCF8041000FB01209DF82D10079AEB
:101EA0009DF825409DF82450EE46CEF80850CEF817
:101EB0000440CEF800C080B200F07CF8FFE70CB020
:101EC000B0BD000010B584B08C46864607980699D0
:101ED000ADF80EE08DF80DC08DF80C20ADF80A308D
:101EE000ADF808108DF807009DF80C0001282FD1DF
:101EF000FFE7BDF80E00BDF80A100844B0F5807F7A
:101F000007DDFFE7BDF80E00C0F58070ADF80A00F0
:101F1000FFE79DF80D00BDF808100844612807DBB5
:101F2000FFE79DF80D00C0F16000ADF80800FFE785
:101F3000BDF80E009DF80D10BDF80A209DF8083080
:101F40009DF807C0EE46CEF800C0FFF771FD2EE009
:101F50009DF80D00BDF80A100844612807DBFFE773
:101F60009DF80D00C0F16000ADF80A00FFE7BDF874
:101F70000E00BDF808100844B0F5807F07DDFFE7CC
:101F8000BDF80E00C0F58070ADF80800FFE7BDF8A1
:101F90000E009DF80D10BDF808209DF80A309DF840
:101FA00007C0EE46CEF800C0FFF742FDFFE704B0E1
:101FB00010BD000010B58AB08C4686460E980D996B
:101FC0000C9CADF826E08DF825C008928DF81F30E6
:101FD0008DF81E108DF81D0000208DF81C0008984B
:101FE00002900298B0F1FF3F04DCFFE70298404204
:101FF0000290FFE7FFE7029846F26761C6F266616A
:1020000050FB01F39A1002EBD37202EB8202A0EBB9
:1020100042009DF81C300DF10F02D054029850FB85
:1020200001F1881000EBD17002909DF81C00013086
:102030008DF81C00FFE702980028DCD1FFE7089824
:10204000B0F1FF3F0CDCFFE79DF81C200DF10F0104
:102050002D2088549DF81C0001308DF81C00FFE7EE
:102060009DF81F0000285CD1FFE700208DF81B00C1
:10207000FFE79DF81B009DF81C10884250DAFFE72F
:102080009DF81C109DF81B00C04301440DF10F008A
:10209000405C2D281AD1FFE7BDF826009DF82510D9
:1020A0009DF81C309DF81B20D24313440DF10F0204
:1020B000D25C0C9B9DF81EC09DF81D40EE46CEF8EC
:1020C0000440CEF800C0FFF771FA1BE0BDF826000F
:1020D0009DF825109DF81C309DF81B20D243134419
:1020E0000DF10F02D25C30320C9B9DF81EC09DF8A2
:1020F0001D40EE46CEF80440CEF800C0D2B2FFF745
:1021000055FAFFE70C988188BDF826000844ADF821
:102110002600FFE79DF81B0001308DF81B00A8E7A3
:1021200057E000208DF81B00FFE79DF81B009DF88D
:102130001C1088424CDAFFE79DF81B100DF10F00D0
:10214000405C2D281AD1FFE7BDF826000C9B99882A
:10215000401A9DF825109DF81BC00DF10F0212F8D2
:102160000C209DF81EC09DF81D40EE46CEF80440A0
:10217000CEF800C080B2FFF719FA1BE0BDF82600C8
:102180000C9B9988401A9DF825109DF81BC00DF1F5
:102190000F0212F80C2030329DF81EC09DF81D4031
:1021A000EE46CEF80440CEF800C080B2D2B2FFF7BF
:1021B000FDF9FFE70C988188BDF82600401AADF8BC
:1021C0002600FFE79DF81B0001308DF81B00ACE7EF
:1021D000FFE79DF81C000AB010BD000010B588B0E4
:1021E0008C4686460B980A99ADF81EE08DF81DC006
:1021F000ADF81A208DF819308DF818108DF81700E9
:10220000BDF81E009DF81D10BDF81A309DF818206D
:102210009DF817E0EC46CCF804E0CCF80020012251
:102220000392FFF74FFE039ABDF81E009DF81D10A4
:102230009DF819301944BDF81A309DF818C09DF862
:102240001740EE46CEF80440CEF800C0C9B2FFF702
:1022500039FEBDF81E009DF81D109DF819309DF83F
:1022600018209DF817E0EC46CCF804E0CCF80020EC
:1022700000220492FFF726FE049ABDF81E00BDF866
:102280001A1008449DF81D109DF819309DF818C0CB
:1022900063449DF81740EE46CEF80440CEF800C0E7
:1022A00080B2FFF70FFE08B010BD000080B588B007
:1022B00084460A98ADF81EC0ADF81C10ADF81A207F
:1022C0008DF819308DF81800BDF81A00BDF81E20E1
:1022D000801A00EB80004001BDF81C10891A90FBA9
:1022E000F1F08DF817009DF81800C007D0B1FFE796
:1022F00040F23001C2F200016420087069460020FB
:1023000004900860212033219F221323FFF790FBC4
:10231000049869460860E720362115220C23FFF750
:1023200087FBFFE79DF8190040F23001C2F200017F
:102330000978884218D0FFE79DF8192069460023E4
:102340008B600320486040F20800C2F20000086081
:10235000E7203621FFF72EFE9DF8190040F23001EC
:10236000C2F200010870FFE79DF8170040F231014A
:10237000C2F200010978884212D0FFE79DF81720C9
:10238000694603200860212033211323FFF750FB07
:102390009DF8170040F23101C2F200010870FFE71A
:1023A00008B080BD10B588B08C4686460D980C9953
:1023B0000B9C0A9CADF81EE08DF81DC0ADF81A20EC
:1023C000ADF818308DF817108DF816000A980490A3
:1023D000BDF81E00ADF80E009DF81D008DF80D0033
:1023E000BDF81A00ADF80A00BDF81800ADF80800F5
:1023F000BDF91A00002806D4FFE7BDF91A00B0F5B0
:10240000807F05DDFFE74FF48070ADF80A00FFE73D
:10241000BDF91800002805D4FFE7BDF918006128B0
:1024200004DBFFE76020ADF80800FFE7FFE7049852
:102430000078002866D0FFE7049800780A281AD1AF
:10244000FFE7BDF81E00ADF80E000B98C1889DF89F
:102450000D0008448DF80D009DF80D000B99C988FA
:102460000844BDF80810884201DDFFE74AE00498FF
:1024700001300490DBE7BDF80E009DF80D10049AC2
:1024800012780B9B9DF817C09DF81640EE46CEF8CB
:102490000440CEF800C0FFF789F80B988188BDF89A
:1024A0000E000844ADF80E00BDF80E000B998988A7
:1024B0000844BDF80A10884220DDFFE7BDF81E0081
:1024C000ADF80E000B98C1889DF80D0008448DF8FA
:1024D0000D009DF80D000B99C9880844BDF808103F
:1024E000884201DDFFE70DE004984078202804D100
:1024F000FFE7049801300490FFE7FFE704980130FC
:10250000049094E708B010BD82B08DF807008DF8F4
:102510000610ADF804208DF803309DF8070043F253
:10252000EA61C2F200010988884208DAFFE79DF8F3
:10253000070043F2EA61C2F200010880FFE79DF85C
:10254000060043F2EE61C2F200010988884208DA0F
:10255000FFE79DF8060043F2EE61C2F20001088039
:10256000FFE7BDF8040043F2E861C2F20001098808
:10257000884208DDFFE7BDF8040043F2E861C2F2DB
:1025800000010880FFE79DF8030043F2EC61C2F20E
:1025900000010988884208DDFFE79DF8030043F247
:1025A000EC61C2F200010880FFE702B07047000052
:1025B00086B00590049103924FF2E070C1F6FF706F
:1025C0000290029800680190019804990880BDF873
:1025D0000600039908804FF2E870C1F6FF70029080
:1025E00000208DF80300FFE79DF80300022811DCAE
:1025F000FFE70298006805999DF8032041F8220042
:10260000029804300290FFE79DF8030001308DF836
:102610000300E9E706B0704780B584B0039043F249
:10262000D860C2F20000006890F90400142808DBAA
:10263000FFE743F2D860C2F200000068807C08B176
:10264000FFE745E007206946012200F0DDF89DF82C
:10265000000003990870039800780006002837D519
:10266000FFE7039800788006002831D4FFE70720B1
:1026700069460A2200F0C8F89DF800000399087026
:102680009DF801109DF8020040EA0120039948805E
:102690009DF803109DF8040040EA0120039988800A
:1026A0009DF805109DF8060040EA01200399C880B6
:1026B0009DF807109DF8080040EA01200399088161
:1026C0009DF80900039948810398FEF77DFDFFE717
:1026D00004B080BD80B582B000200DF10301052259
:1026E00000F092F89DF80300410943F2D860C2F26D
:1026F00000000268D1729DF803100268C1F3C001A6
:1027000091729DF804206FF0070101EB52010268FD
:1027100011710068807C68B9FFE79DF8050043F2FD
:10272000D861C2F200010A6850719DF8060009687C
:10273000C87108E09DF8050043F2D861C2F20001BB
:1027400009688871FFE79DF8070000F07F0043F2F9
:10275000D861C2F20001096808729DF807000006FE
:10276000002809D5FFE743F2D860C2F200000168F3
:10277000087A40420872FFE702B080BD80B584B09D
:10278000039000200290382000F026FA9DF80E00F9
:1027900000F084FA9DF80D0000F080FA9DF80C001E
:1027A00000F07CFA392000F0F9F99DF80D004006A0
:1027B00000280DD5FFE7002000F072F9000202901A
:1027C000012000F06DF9014602980843029016E0DE
:1027D0000020019000F064F901460198090402917B
:1027E00000F05EF90146029840EA012002900120C3
:1027F00000F056F90146029808430290FFE700F006
:1028000003FA029804B080BD80B584B08DF80F0043
:1028100002918DF8072000200090ADF804003820C8
:1028200000F0DAF99DF80F0000F038FA392000F0D6
:10283000B5F90098ADF80400FFE7BDF804009DF875
:102840000710013988420EDAFFE7002000F028F96E
:102850000299BDF804208854FFE7BDF80400013058
:10286000ADF80400E9E7012000F01AF90299BDF87B
:102870000420885400F0C8F904B080BD80B582B04F
:102880008DF8070000208DF806008DF8050043F252
:102890009E60C2F20000807CADF80200BDF802101C
:1028A00043F2F800C2F20000405C002800F0D38040
:1028B000FFE79DF90700012849DBFFE700208DF8BD
:1028C0000600FFE79DF90600BDF8022043F2F8017B
:1028D000C2F20001895C88422BDAFFE7BDF80220D2
:1028E00043F2FC01C2F20001C82002FB00109DF976
:1028F000061030F8110043F29E61C2F2000101EBB4
:102900004201898A88420DDDFFE79DF80600BDF887
:10291000022043F2F401C2F20001885401208DF834
:10292000050006E0FFE79DF8060001308DF806007F
:10293000C8E79DF8050048B9FFE7BDF8022043F25B
:10294000F401C2F2000100208854FFE74DE0BDF819
:10295000021043F2F800C2F20000405C01388DF82A
:102960000600FFE79DF9060000282BD4FFE7BDF81D
:10297000022043F2FC01C2F20001C82002FB001059
:102980009DF9061030F8110043F29E61C2F2000179
:1029900001EB4201898A88420DDAFFE79DF80600C3
:1029A000BDF8022043F2F401C2F200018854012074
:1029B0008DF8050006E0FFE79DF8060001388DF868
:1029C0000600CFE79DF8050070B9FFE7BDF80220CB
:1029D00043F2F800C2F20000805C013843F2F401D7
:1029E000C2F200018854FFE7FFE7BDF8022043F27E
:1029F000FC01C2F20001C82002FB001043F2F40106
:102A0000C2F20001895C30F8110043F29E61C2F20B
:102A1000000101EB42018882BDF8020068B9FFE7BE
:102A2000BDF8021043F29E60C2F2000000EB4100CC
:102A3000808A042103F04AFC0CE0BDF8021043F246
:102A40009E60C2F2000000EB4100808A012103F089
:102A50003DFCFFE7FFE702B080BD0000FFE7FEE7B7
:102A600081B08DF8030003208DF80200FFE79DF888
:102A70000300411E8DF8031068B1FFE703208DF8B5
:102A80000200FFE79DF80200411E8DF8021008B118
:102A9000FFE7F7E7EBE701B0704700007047000081
:102AA00080B584B08DF80F0000208DF80E0040F640
:102AB0001042C4F20102802111608DF80D00FFE781
:102AC0009DF80D0007283CDCFFE79DF80E00400054
:102AD0008DF80E000220FFF7C3FF40F61041C4F24C
:102AE0000101402008600120FFF7BAFFFFE740F630
:102AF0000040C4F20100402108F098FA08B9FFE74D
:102B0000F5E740F60040C4F20100802108F08EFA9B
:102B100038B1FFE79DF80E0040F001008DF80E007F
:102B2000FFE70120FFF79CFF40F61441C4F20101CA
:102B300040200860FFE79DF80D0001308DF80D0082
:102B4000BEE79DF80F00C00738B1FFE740F610411F
:102B5000C4F201018020086006E040F61441C4F28E
:102B6000010180200860FFE702200190FFF778FF55
:102B7000019840F61042C4F2010240210291116016
:102B8000FFF76EFF029840F61441C4F2010108609D
:102B9000802008609DF80E0004B080BD80B584B030
:102BA0008DF80F0004200290FFF75AFF029840F6BC
:102BB0001042C4F20102019280211160FFF750FF20
:102BC000019A029840211160FFF74AFF9DF80F001B
:102BD00000F002F804B080BD80B582B08DF8070027
:102BE00040F61441C4F201010091802008600420E5
:102BF000FFF736FF0099402008609DF8070000F0BD
:102C00004DF802B080BD000080B584B040F614419C
:102C1000C4F2010180200290086004200390FFF7B5
:102C20001FFF039840F61042C4F2010201924021B6
:102C30001160FFF715FF019A029903981160FFF7E1
:102C40000FFF04B080BD000080B584B08DF80F0088
:102C50000291ADF806209DF80F0000F0FE00FFF78E
:102C6000BBFF0020ADF80400FFE7BDF80400BDF88D
:102C7000061088420DDAFFE70298BDF80410405CA8
:102C800000F00CF8FFE7BDF804000130ADF80400D7
:102C9000EBE7FFF7B9FF04B080BD000080B586B058
:102CA0008DF8170080208DF81600FFE79DF81600BC
:102CB00090B3FFE70120FFF7D3FE9DF816009DF8C3
:102CC0001710084207D0FFE740F61041C4F2010197
:102CD0008020086006E040F61441C4F20101802023
:102CE0000860FFE70120FFF7BBFE40F61041C4F289
:102CF00001014020049008600220FFF7B1FE049813
:102D000040F61441C4F201010860FFE79DF8160087
:102D100040088DF81600C9E701200090FFF7A0FEDB
:102D2000009840F61042C4F2010201928021039102
:102D30001160FFF795FE039940F60040C4F20100D0
:102D400008F074F901998DF8150040200290086090
:102D50000220FFF785FE029A039840F61441C4F260
:102D600001010A6008609DF81500B0FA80F0400982
:102D700006B080BD81B0ADF80000BDF800000928A4
:102D800004DCFFE701208DF8030021E0BDF800001E
:102D9000632804DCFFE702208DF8030018E0BDF88B
:102DA0000000B0F57A7F04DAFFE703208DF8030016
:102DB0000EE0BDF8000042F20F71884204DCFFE72C
:102DC00004208DF8030003E005208DF80300FFE7E1
:102DD0009DF8030001B0704780B582B08DF8070000
:102DE0008DF806109DF8071040F29F00C2F2000017
:102DF000405C0146009140B1FFE7009801282DD0CA
:102E0000FFE70098022865D073E09DF8071040F2B4
:102E10009900C2F20000405C022811DBFFE79DF838
:102E2000072040F29901C2F20001002088549DF869
:102E3000072043F2E101C2F2000101208854FFE7BC
:102E40009DF8060048B9FFE79DF8072040F29F0172
:102E5000C2F2000101208854FFE74BE00AF0E0FCD9
:102E60009DF8060050B9FFE79DF8072040F2990150
:102E7000C2F20001885C0130885408E09DF8072008
:102E800040F29F01C2F2000100208854FFE79DF844
:102E9000071040F29900C2F20000405C642818DB81
:102EA000FFE79DF8072040F29F01C2F200010220D7
:102EB00088549DF8073040F29902C2F200020021C6
:102EC000D1549DF8072043F2E101C2F20001885479
:102ED000FFE70FE09DF80600012809D1FFE79DF804
:102EE000072040F29F01C2F2000100208854FFE752
:102EF00000E0FFE702B080BD80B58EB000F094F82E
:102F000041F20000C4F2010003908021049107F017
:102F1000A7FF64200B9007F0C7F90398049907F006
:102F2000A7FF0B9807F0C0F93020069000210D9103
:102F300009F032FB0D99942009F02EFB0D993120F8
:102F400009F02AFBD72001210C919F22089209F059
:102F500023FB0C9B0D9A68460321079101603220E8
:102F6000059009F019FB059807996A461060F22050
:102F70001E22282309F010FB68460D2343600360DE
:102F8000F020099004211A4609F006FB06980D99D5
:102F900009F002FB0D99084609F08CF90C990D9A7D
:102FA000BC2009F0F9FA0799089B0D9AEC460A2013
:102FB000CCF80000CA2009F0EFFA09980C99112208
:102FC00009F0EAFA0C9920200B2209F0E5FA43F205
:102FD0002860C2F200000A90C088FEF727F90A991B
:102FE00048788978FEF784F90A98C07800F00100E3
:102FF000FEF7B6F90D98FEF73FFB0D9968460160A4
:103000004FF4807260230846FEF73AF90B9807F0F8
:1030100097F90C98FEF7BEF90D9806F0C3FF05204E
:1030200007F042F90EB080BD80B58CB040F203606D
:103030000AF0A8FB4FF4C0600AF0A4FB40F20E7047
:103040000AF0A0FB0A2007F07BF940F61040C4F21A
:1030500001004FF4A043036040F60040C4F20100B9
:103060000090102102910122019207F01DFF0098AB
:10307000019A18214FF4204307F016FF05A803908A
:103080000CF046FA43F60000C4F2000004900CF085
:10309000ABF9029B039904984FF4404206924FF417
:1030A00082720592002207924FF0030CCDF828C0DF
:1030B0004FF4007CCDF820C00B9309920CF0E4F99A
:1030C00004980CF01BFA04984FF480410CF044F97A
:1030D00004980CF06DF90CB080BD000082B08DF842
:1030E000070043F2EA61C2F20001FF20088043F2C8
:1030F000EE61C2F200015F20088043F2E861C2F293
:1031000000010020088043F2EC61C2F20001088057
:103110009DF80700C007C0B1FFE743F22861C2F283
:103120000001009105208880888800EB8000400025
:1031300088601420087040F20912CA8010224A7078
:1031400088700020C8700873FFE702B07047000065
:10315000FFE7FEE780B50020012103F099F9FFE7C2
:1031600043F2E100C2F20000007818B1FFE707F077
:1031700039FE02E006F044FAF2E780BD00000000EC
:1031800070B5A0B000201F904FF400311E911D902B
:1031900040F20311C0F209311C918DF86F008DF8D7
:1031A0006E008DF86D009DF96F009DF96D109DF911
:1031B0006E20012303F0A6F9FFE743F2E100C2F21B
:1031C00000004078F0B1FFE743F2E101C2F20001F4
:1031D000002048709DF96F0008B9FFE7EDE79DF802
:1031E0006F0001388DF86F0000238DF86E308DF878
:1031F0006D309DF96F009DF96D109DF96E2003F003
:1032000081F9FFE743F2E100C2F200008078F8B1F3
:10321000FFE743F2E101C2F20001002088709DF94E
:103220006F00072801D1FFE7C7E79DF86F00013065
:103230008DF86F0000238DF86E308DF86D309DF99C
:103240006F009DF96D109DF96E2003F05BF9FFE7AB
:1032500043F2E100C2F200000079E8B1FFE743F277
:10326000E101C2F2000100201A9008719DF96F205F
:103270001EA9895601399DF96E20012307F0B0FF80
:103280001A9B8DF86E009DF96F009DF96D109DF9E8
:103290006E2003F037F9FFE743F2E800C2F20000C6
:1032A00090F90000002800F04882FFE79DF96F00C8
:1032B00001461991072800F22F821999DFE811F0D1
:1032C00008009400D2006401010202020302040219
:1032D0009DF96D000146189140B1FFE7189801284B
:1032E0002DD0FFE71898022853D07CE043F23840F5
:1032F000C2F20000179090ED000A43F2E800C2F21B
:10330000000090F9000001EE100AB8EEC11A30EE8C
:10331000010ABDEEC00A10EE102A6FF02F0018212E
:1033200007F042FF0146179800EE101AB8EEC00AE7
:1033300080ED000A90ED000A0BF08EF953E043F2A5
:103340003840C2F20000169090ED030A43F2E80004
:10335000C2F2000090F9000001EE100AB8EEC11AA6
:1033600030EE010ABDEEC00A10EE102A6FF02F00F9
:10337000002107F019FF0146169800EE101AB8EE6A
:10338000C00A80ED030A90ED030A4C200AF070FD9C
:1033900029E043F23840C2F20000159090ED040A93
:1033A00043F2E800C2F2000090F9000001EE100ABA
:1033B000B8EEC11A30EE010ABDEEC00A10EE102AB6
:1033C0006FF02F00002107F0EFFE0146159800EE88
:1033D000101AB8EEC00A80ED040A90ED040A5220DB
:1033E0000AF046FDFFE797E143F23840C2F20000E1
:1033F00014904069FDF7CEF841EC100B8DED120BE7
:1034000043F2E800C2F2000090F90000FDF785F8F1
:1034100041EC100B9FEDE61B53EC112B51EC100B04
:10342000FCF749FF9DED120B41EC110B51EC110B18
:1034300053EC102BFCF798FE41EC100B51EC100BE9
:10344000FDF7BBF801EE100AB0EE0C0ADFEDDB0A67
:1034500007F080FE149880ED050A90ED050A0AF049
:1034600073FD59E19DF96E000146119120B1FFE70E
:103470001198012831D076E09DF96D0000EB4001F4
:1034800043F25040C2F20000109000EB810090ED3A
:10349000010A43F2E800C2F2000090F9000001EED8
:1034A000100AB8EEC11A30EE010ABDEEC00A10EEE5
:1034B000102A6FF00B000C2107F076FE01461098E1
:1034C00000EE101AB8EEC00A9DF96D1001EB410133
:1034D00000EB810080ED010A45E09DF96D0000EBF5
:1034E000400143F25040C2F200000F9000EB810017
:1034F0008068FDF74FF841EC100B8DED0C0B43F29B
:10350000E800C2F2000090F90000FDF706F841EC77
:10351000100B9FEDA51B53EC112B51EC100BFCF77E
:10352000CAFE9DED0C0B53EC102B41EC100B51EC33
:10353000100BFCF719FE41EC100B51EC100BFDF7D2
:103540003CF801EE100A9FED9C0AF2EE040A07F027
:1035500001FE0F989DF96D1001EB410100EB810018
:1035600080ED020AFFE79DF96D0000EB400143F298
:103570005040C2F2000000EB810250F82100516877
:1035800092680AF0EDFDC7E09DF96D0001460B91D0
:1035900040B1FFE70B98012829D0FFE70B980228DC
:1035A0004AD06EE043F20C60C2F200000A9090ED47
:1035B000010A43F2E800C2F2000090F9000001EEB7
:1035C000100AB8EEC11A30EE010ABDEEC00A10EEC4
:1035D000102A6FF00B000C2107F0E6FD01460A9857
:1035E00000EE101AB8EEC00A80ED010A49E043F27D
:1035F0000C60C2F20000099090ED040A43F2E8006A
:10360000C2F2000090F9000001EE100AB8EEC11AF3
:1036100030EE010ABDEEC00A10EE102A6FF00B006A
:103620000C2107F0C1FD0146099800EE101AB8EE12
:10363000C00A80ED040A24E043F20C60C2F20000EC
:10364000089090ED060A43F2E800C2F2000090F9FB
:10365000000001EE100AB8EEC11A30EE010ABDEE0C
:10366000C00A10EE102A6FF00B000C2107F09CFD31
:103670000146089800EE101AB8EEC00A80ED060A5E
:10368000FFE79DF86D6043F20C6EC2F2000EDEF8AB
:103690000000DEF80410DEF80820DEF80C30DEF85A
:1036A00010C0DEF81440DEF81850EE46CEF80C607C
:1036B000CEF80850CEF80440CEF800C00BF040F928
:1036C0002AE029E028E027E043F2D850C2F20000C7
:1036D000079090ED010A43F2E800C2F2000090F971
:1036E000000001EE100AB8EEC11A30EE010ABDEE7C
:1036F000C00A10EE102A0020182107F055FD0146DF
:10370000079800EE101AB8EEC00A80ED010A90ED9D
:10371000010A0BF08DFDFFE79DF96F009DF96D101B
:103720009DF96E200023069302F0ECFE069843F20A
:10373000E801C2F200010870FFE743F2E100C2F2C3
:103740000000C078E8B1FFE743F2E101C2F20001F6
:1037500000200590C8709DF96F201CA98956013979
:103760009DF96D20012307F03BFD059B8DF86D0051
:103770009DF96F009DF96D109DF96E2002F0C2FE5B
:10378000FFE743F2E100C2F20000007830B1FFE74A
:1037900007F028FB03200AF0DDFA02E005F030FF15
:1037A0000BE520B070BD00BF9A9999999999B93FDE
:1037B000000000000000E03FCDCCCC3D0000C8423E
:1037C00080B592B000208DF843000DF13E018A1CB7
:1037D00040F26800C2F2000008901030FEF7E8FEE8
:1037E000E2200DF12B0109911322FFF70DF8089942
:1037F000DDF82B0000BAC86146F68D10C0F6010056
:103800000CF06CFA46F65530C0F601000CF066FA82
:10381000089801694269836946F64240C0F6010092
:103820000CF05CFABDF83E10BDF8402046F6214091
:10383000C0F601000CF052FA46F66D30C0F60100F9
:103840000CF04CFA089841688268C36846F67D30EF
:10385000C0F601000CF042FA46F63830C0F601001E
:103860000CF03CFA9DF82B109DF82C20BDF82D0093
:1038700043BA46F6D010C0F601000CF02FFA9DF8BE
:103880002F109DF830009DF831C001F00F010209A2
:1038900000F00F034FEA1C100CF00F0EEC46CCF8B2
:1038A00004E0CCF8000046F6CD30C0F601000CF084
:1038B00015FA9DF832109DF833009DF834C001F0E0
:1038C0000F01020900F00F034FEA1C100CF00F0E5D
:1038D000EC46CCF804E0CCF8000046F6E930C0F63F
:1038E00001000CF0FBF99DF835109DF836009DF8AD
:1038F00037C001F00F01020900F00F034FEA1C105E
:103900000CF00F0EEC46CCF804E0CCF8000046F6C4
:103910000540C0F601000CF0E1F99DF839209DF852
:103920003A00110902F00F02030946F69D30C0F675
:1039300001000CF0D3F99DF83C209DF83D001109E1
:1039400002F00F02030946F6B530C0F601000CF094
:10395000C5F90999E6200F22FEF756FF9DF82B10B6
:103960009DF82C309DF82D001A0903F00F03EC464A
:10397000CCF8000046F6E910C0F601000CF0AEF9F4
:103980009DF82E109DF82F309DF830001A0903F095
:103990000F03EC46CCF8000046F66F20C0F601009D
:1039A0000CF09CF99DF831109DF832309DF83300F1
:1039B0001A0903F00F03EC46CCF8000046F6F52098
:1039C000C0F601000CF08AF99DF834109DF83530EE
:1039D0009DF836001A0903F00F03EC46CCF80000FE
:1039E00046F62C20C0F601000CF078F99DF837104F
:1039F0009DF838309DF839001A0903F00F03EC46A2
:103A0000CCF8000046F6B220C0F601000CF066F9D2
:103A100046F65440C0F601000CF060F99DF94300F1
:103A2000012103F06BF8FFE743F2E100C2F200006E
:103A30004078B0B1FFE743F2E101C2F2000100209B
:103A400048709DF9430008B9FFE7EDE79DF8430092
:103A500001388DF843009DF94300002103F04EF832
:103A6000FFE743F2E100C2F200008078B8B1FFE75F
:103A700043F2E101C2F20001002088709DF9430089
:103A8000042801D1FFE7CFE79DF8430001308DF80E
:103A900043009DF94300002103F030F8FFE743F2B3
:103AA000E100C2F20000C078002800F09A80FFE731
:103AB0009DF9430001460791042800F2818007998F
:103AC000DFE801F0030F1B27280040F26801C2F273
:103AD000000191F82E00B0FA80F0400981F82E0024
:103AE00072E043F29E61C2F2000191F82000B0FA48
:103AF00080F0400981F8200066E040F26801C2F2DF
:103B0000000191F82F00B0FA80F0400981F82F00F1
:103B10005AE059E043F2E101C2F200010020C8700E
:103B20006946C8600320886040F22000C2F20000AD
:103B3000486046F6A040C0F6010008600820182141
:103B4000F8226023FEF72EFCFFE743F2E100C2F209
:103B50000000C078022822D1FFE740F60040C4F2FE
:103B600001004FF4807107F083F94FF47A700690EA
:103B700006F09AFB069806F097FB069806F094FB71
:103B8000069806F091FB069806F08EFB72B60120AF
:103B90001190119880F3138800F01EFDFFE743F2A7
:103BA000E100C2F20000007818B1FFE707F01AF94F
:103BB00000E0CAE79DF94300012102F09FFF03E006
:103BC00000208DF84300FFE79DF943000021059197
:103BD00002F094FF059843F2E101C2F20001C870BF
:103BE000FFE743F2E800C2F2000090F9000018B1CC
:103BF000FFE707F0F7F8FFE743F2E100C2F2000049
:103C0000007830B1FFE707F0EDF800200AF0A2F8E5
:103C100002E005F0F5FC07E712B080BD80B588B082
:103C200043F2D400C2F200000121017000208DF89F
:103C30001F009DF91F0003F05BF908F077FBFFE719
:103C400043F2E100C2F200004078C0B1FFE743F266
:103C5000E101C2F20001002048709DF91F0008B97F
:103C6000FFE7EDE79DF81F0001388DF81F009DF973
:103C70001F00002103F03CF908F058FBFFE743F276
:103C8000E100C2F200008078C8B1FFE743F2E10131
:103C9000C2F20001002088709DF91F00062801D1A2
:103CA000FFE7CDE79DF81F0001308DF81F009DF95B
:103CB0001F00002103F01CF908F038FBFFE743F276
:103CC000E800C2F2000090F90000002800F0A58092
:103CD000FFE79DF91F0001460691062800F28A8041
:103CE0000699DFE801F0041E3A5354556E0043F282
:103CF0002860C2F20000059090F9000043F2E8014C
:103D0000C2F2000191F9001042180020642107F06E
:103D10004BFA01460598017001780120FDF79CF9E6
:103D20006CE043F22860C2F200000490B0F9040095
:103D300043F2E801C2F2000191F9001001EB8101A8
:103D4000421800203C2107F02FFA049988808888C7
:103D500000EB80004000886050E043F22860C2F22F
:103D600000000390C08843F2E801C2F2000191F91B
:103D70000010421855204FF4B47107F015FA0146AF
:103D80000398C180C088FDF751FA37E036E035E08E
:103D900043F22860C2F200000290817890F901009D
:103DA00043F2E802C2F2000292F90020024400202D
:103DB00007F0FAF90299487048788978FDF798FA7F
:103DC0001CE043F22861C2F200010191487891F9A8
:103DD000021043F2E802C2F2000292F900200A4403
:103DE0001F2107F0E1F90199887048788978FDF77B
:103DF0007FFA03E000208DF81F00FFE79DF91F0008
:103E00000021009103F074F808F090FA009843F252
:103E1000E801C2F200010870FFE743F2E100C2F2DC
:103E20000000C078B0B3FFE79DF91F00032815D14B
:103E3000FFE743F22860C2F20000C27801219143FB
:103E4000C170C07800F00100FDF78AFA9DF91F00EB
:103E5000002103F04DF808F069FAFFE79DF91F0013
:103E6000042810D1FFE743F22861C2F200010A7B67
:103E70000120904308739DF91F00002103F038F8DA
:103E800008F054FAFFE743F2E101C2F2000100201A
:103E9000C870FFE743F2E100C2F20000007860B1B1
:103EA000FFE706F09FFF022009F054FF43F2D40120
:103EB000C2F200010020087002E005F0A1FBBFE69D
:103EC00008B080BD80B582B000208DF807009DF954
:103ED0000700012104F002FEFFE743F2E100C2F215
:103EE00000004078B0B1FFE743F2E101C2F2000107
:103EF000002048709DF9070008B9FFE7EDE79DF83D
:103F0000070001388DF807009DF90700002104F033
:103F1000E5FDFFE743F2E100C2F200008078B8B1AE
:103F2000FFE743F2E101C2F20001002088709DF931
:103F30000700052801D1FFE7CFE79DF80700013012
:103F40008DF807009DF90700002104F0C7FDFFE789
:103F500043F2E100C2F20000C07850B3FFE706F080
:103F600041FF9DF9070001460091052817D80099E7
:103F7000DFE801F00306090C0F12FFF74FFE12E015
:103F8000FFF7FEF80FE000F027F80CE000F01AFA57
:103F900009E0FFF715FC06E0FFF7DCF803E000207E
:103FA0008DF80700FFE79DF90700012104F096FD59
:103FB000FFE743F2E100C2F20000007830B1FFE712
:103FC00006F010FF012003F07BFF02E005F018FB74
:103FD00083E702B080BD000080B58EB000208DF870
:103FE000370043F29E60C2F2000090F820000028E3
:103FF00018BF01208DF835009DF93700012104F02C
:10400000A9FEFFE743F2E100C2F200004078B0B140
:10401000FFE743F2E101C2F20001002048709DF980
:10402000370008B9FFE7EDE79DF8370001388DF854
:1040300037009DF93700002104F08CFEFFE743F2C2
:10404000E100C2F200008078B8B1FFE743F2E1017D
:10405000C2F20001002088709DF937000B2801D1C1
:10406000FFE7CFE79DF8370001308DF837009DF965
:104070003700002104F06EFEFFE743F2E100C2F2D8
:104080000000C078002800F09D80FFE79DF9370010
:1040900001460C910B2800F284800C99DFE801F0B6
:1040A00006074344455667727D7E7F807DE09DF81C
:1040B0003500C007B0B3FFE743F29E60C2F20000D4
:1040C0000B9090F828100120884301F073F90B98A9
:1040D00090F82800C00748B1FFE741F20000C4F2A1
:1040E00001004FF4006106F0C3FE1AE043F29E6047
:1040F000C2F2000090F8270090B9FFE743F29E60FB
:10410000C2F2000090F82800C00748B9FFE741F26A
:104110000000C4F201004FF4006106F0A1FEFFE7C9
:10412000FFE7FFE741E040E03FE09DF83500C007D2
:1041300058B1FFE743F29E60C2F2000090F82C10E5
:104140000120884301F0D0F8FFE72EE09DF835000C
:10415000C00758B1FFE743F29E60C2F2000090F83A
:1041600029100120884301F07BF8FFE71DE043F2AE
:104170009E60C2F2000090F82A100120884301F0EE
:1041800005F912E043F29E60C2F2000090F82B1095
:104190000120884301F082F807E006E005E004E032
:1041A00003E000208DF83700FFE79DF9370000217C
:1041B0000A9104F0CFFD0A9843F2E101C2F2000136
:1041C000C870FFE743F2E800C2F2000090F9000077
:1041D000002800F0E580FFE79DF9370001460991CE
:1041E0000B2800F2CC800999DFE801F0064E4F6BF6
:1041F000868788898AA9C7C843F29E60C2F20000F8
:10420000089090F8270043F2E801C2F2000191F90A
:10421000001042180020012106F0C6FF0146089850
:1042200080F8271090F82700012809D1FFE741F214
:104230000000C4F201004FF4006106F019FE1AE01C
:1042400043F29E60C2F2000090F8270090B9FFE7A9
:1042500043F29E60C2F2000090F82800C00748B9FF
:10426000FFE741F20000C4F201004FF4006106F0E4
:10427000F7FDFFE7FFE743F29E60C2F2000090F80F
:10428000270000F0D5FF7EE07DE043F29E60C2F2A1
:104290000000079090F8320043F2E801C2F20001FA
:1042A00091F9001042180020032106F07DFF0799C4
:1042B00081F8320091F8320081F8330001F0C4F93E
:1042C00061E043F29E60C2F20000069090F8310077
:1042D00043F2E801C2F2000191F9001042180120F6
:1042E000022106F061FF0146069880F8311090F82F
:1042F000310000F0E7FF46E045E044E043E042E003
:1043000043F29E60C2F200000590C17C2D30049003
:10431000405C43F2E801C2F2000191F9001042183A
:104320000020032106F040FF049902460598C37C53
:10433000CA54C07C0A5C114601F09EF823E043F2A7
:104340009E60C2F200000290C17C34300390405C59
:1043500043F2E801C2F2000191F900104218002076
:10436000042106F021FF029902460398CB7CC25437
:10437000C97C405C01F0BCF905E004E003E00020EA
:104380008DF83700FFE79DF937000021019104F017
:10439000E1FC019843F2E801C2F200010870FFE776
:1043A00043F2E100C2F20000007830B1FFE706F00E
:1043B00019FD012009F0CEFC02E005F021F921E60B
:1043C0000EB080BD80B58AB000208DF827009DF921
:1043D0002700012104F086FFFFE743F2E100C2F26B
:1043E00000004078B0B1FFE743F2E101C2F2000102
:1043F000002048709DF9270008B9FFE7EDE79DF818
:10440000270001388DF827009DF92700002104F0CE
:1044100069FFFFE743F2E100C2F200008078B8B123
:10442000FFE743F2E101C2F20001002088709DF92C
:104430002700052801D1FFE7CFE79DF827000130CD
:104440008DF827009DF92700002104F04BFFFFE7BE
:1044500043F2E100C2F20000C07838B3FFE79DF9F3
:1044600027000146089105280FD80899DFE801F0D8
:104470000304050607080CE00BE00AE009E008E089
:1044800000F0BCFB09F0DCFB03E000208DF8270006
:10449000FFE79DF927000021079104F023FF07980B
:1044A00043F2E101C2F20001C870FFE743F2E80005
:1044B000C2F2000090F90000002800F07880FFE7C9
:1044C0009DF927000146069105285FD80699DFE887
:1044D00001F003172B3F5B5C43F29E60C2F20000C9
:1044E0000590C07B43F2E801C2F2000191F900108F
:1044F00042180020032106F057FE0599C87349E0D1
:1045000043F29E60C2F200000490407B43F2E80157
:10451000C2F2000191F9001042180020012106F0BA
:1045200043FE0499487335E043F29E60C2F20000F6
:104530000390807B43F2E801C2F2000191F9001080
:10454000421805203C2106F02FFE0399887321E0D4
:1045500043F29E60C2F20000029090F9100043F214
:10456000E801C2F2000191F90010421809200A2165
:1045700006F01AFE014602980174007C40F26001C8
:10458000C2F20001887005E004E003E000208DF82D
:104590002700FFE79DF927000021019104F0A2FE0A
:1045A000019843F2E801C2F200010870FFE743F20C
:1045B000E100C2F20000007830B1FFE706F012FC23
:1045C000012009F0C7FB02E005F01AF805E70AB080
:1045D00080BD000070470000BFF34F8F4EF60C51B6
:1045E000CEF20001086800F4E0600422C0F2FA5242
:1045F00010430860BFF34F8FFFE7FEE770470000EE
:1046000080B584B00390039943F23440C2F20000B5
:1046100001900160026800210291518043F22E4214
:10462000C2F20002118000680430092120220092A9
:10463000FCF7E6FE009A019800680D300821FCF7AF
:10464000DFFE009A019802990368597500681630D8
:104650004021FCF7D5FE019902980A6882F85600BD
:104660000A6882F858000A6882F8590009680870D8
:1046700004B080BD81B08DF803009DF803000028D0
:1046800048D1FFE740F26800C2F2000090F8201025
:10469000013180F8201090F820003C280DD1FFE770
:1046A00040F26801C2F20001002081F8200091F878
:1046B0002100013081F82100FFE740F26800C2F2DA
:1046C000000090F821003C280DD1FFE740F268017E
:1046D000C2F20001002081F8210091F8220001308F
:1046E00081F82200FFE740F26800C2F2000090F873
:1046F000220018280DD1FFE740F26801C2F2000144
:10470000002081F8220091F82300013081F8230075
:10471000FFE7FFE79DF80300012811D1FFE743F20F
:104720009E60C2F2000090F82000012807D1FFE748
:1047300043F2D201C2F2000101200870FFE7FFE757
:1047400001B0704780B582B0012009F0E7F948B1A7
:10475000FFE7012009F0D6F909F012FA0020FFF76F
:1047600089FF17E0022009F0D9F990B1FFE7022094
:1047700009F0C8F909F004FA09F0E8F90190019884
:1047800042F2D871084409F033FA0120FFF772FFB2
:10479000FFE7FFE702B080BD80B582B040F21B703A
:1047A00008F0F0FF40F21C7008F0ECFF08F026FD66
:1047B00005F00CFB4FF40060019008F0AFFE01988B
:1047C00008F0C0FE4FF4807009F018F840F60F00B2
:1047D00008F0D8FF09F0F8F909F0D2F9012009F042
:1047E000C3F909F0CDF947F6FF7009F0D5F909F0E2
:1047F000C7F9002009F018FA42F2D87009F0F8F968
:1048000002B080BD80B586B004900020ADF80E00E7
:104810000498FCF7C9FB012830D1FFE70498062172
:10482000FCF7ACFB8DF80C00049802210091FCF71A
:10483000A5FB00998DF80D0003A80190FCF708FE78
:10484000014601988DF80B109DF80B10405C002874
:104850000FDCFFE79DF80B0028B9FFE704984088BC
:10486000ADF80E0004E00498C088ADF80E00FFE734
:1048700003E00020ADF8160031E010E004980621B6
:10488000FCF77CFB002805DCFFE704984088ADF8C6
:104890000E0003E00020ADF8160020E0FFE7BDF8B1
:1048A0000E0043F22E41C2F200010988884211D065
:1048B000FFE7BDF80E0043F22E41C2F2000108806E
:1048C00043F23440C2F200000168087840F0010071
:1048D0000870FFE7BDF80E00ADF81600FFE7BDF861
:1048E000160006B080BD000080B582B001900021A6
:1048F0008DF803100198808800F003008DF8030004
:104900000198FCF73BFB002818DCFFE70198417A8F
:1049100043F23440C2F2000002689DF8033002EB1B
:10492000430251730199098902689DF8033002EB33
:1049300043029173016800204875FFE700208DF85D
:104940000200FFE79DF8020007282CDCFFE743F296
:104950003440C2F2000000689DF802201044407B01
:1049600043F2A801C2F20001895C884214D0FFE73B
:1049700043F23440C2F200000268117841F00401B1
:10498000117000689DF802201044407B43F2A8019A
:10499000C2F200018854FFE7FFE79DF802000130F2
:1049A0008DF80200CEE702B080BD000080B584B073
:1049B000039000208DF80B000398808800F00F0012
:1049C0008DF80B0003988088C0F3001043F2344147
:1049D000C2F200010A6882F8570043F2B000C2F246
:1049E00000000078096891F85710884223D0FFE74B
:1049F00043F23440C2F200000190006816304021BA
:104A00002022FCF7FDFC01980268002182F8561074
:104A100003681A7802F0F7021A7043F2A602C2F293
:104A200000021180006890F8570043F2B001C2F212
:104A300000010870FFE70398FCF7B6FA00285DD183
:104A4000FFE703980221FCF799FA002838DCFFE71A
:104A500003980021FCF792FA002831DCFFE7039865
:104A6000C07943F23441C2F200010A689DF80B306C
:104A700002EB830290750398C0880A689DF80B309A
:104A800002EB8302D0750398407A0A689DF80B30D8
:104A900002EB830210760398008909689DF80B20C9
:104AA00001EB820148769DF80B10012000FA01F21B
:104AB00043F2A601C2F20001088810430880FFE714
:104AC00043F2A600C2F2000000884FF6FF71884250
:104AD00013D1FFE743F23440C2F2000002681178BC
:104AE00041F0080111700168002081F8560043F27E
:104AF000A601C2F200010880FFE745E0039800210B
:104B0000FCF73CFA002821DCFFE70398407A43F2E7
:104B10003441C2F200010A689DF80B3002EB4302F7
:104B200090750398008909689DF80B2001EB4201FC
:104B3000C8759DF80B10012000FA01F243F2A6019E
:104B4000C2F20001088810430880FFE743F2A60084
:104B5000C2F2000000884FF6FF71884213D1FFE7D0
:104B600043F23440C2F200000268117841F00801BB
:104B700011700168002081F8360043F2A601C2F2EC
:104B800000010880FFE7FFE704B080BD7047000028
:104B900080B54FF4407008F023FB0AF09DFD40F211
:104BA000026008F0EFFD40F2036008F0EBFD40F218
:104BB000046008F0E7FD40F2056008F0E3FD4FF403
:104BC000C06008F0DFFD40F2047008F0DBFD40F249
:104BD000057008F0D7FD40F2096008F0D3FD012010
:104BE00008F016FB40F21D7008F0CCFD40F20E609C
:104BF00008F0C8FD052005F057FB80BD80B58EB0DC
:104C0000002005908DF834000C908DF82F00ADF841
:104C10002C00ADF82A00ADF8280043F29E61C2F2E4
:104C2000000106910A4612F8123FADF826301378BB
:104C300002EB43025288ADF82420CA7C114491F85B
:104C400021108DF82310ADF820008DF81F0043F2DD
:104C5000D501C2F200010120087000F0E3FB0599C4
:104C60000698BDF8263043F2F802C2F20002D15491
:104C7000C07C20B9FFE7032000F0BAFB03E0062068
:104C800000F0B6FBFFE7BDF8263046F61410C0F67C
:104C9000010030F8132046F60C10C0F6010030F881
:104CA000131043F2F800C2F20000C35CEC4601208E
:104CB000CCF800001046FDF7F9FA43F29E60C2F20C
:104CC0000000807C032840F0C580FFE743F29E602F
:104CD000C2F20000407B002800F0BC80FFE700200B
:104CE0008DF82F00FFE79DF82F000D2800F3B1800D
:104CF000FFE79DF82F1046F63410C0F6010030F89B
:104D00002100ADF820000020ADF82C00FFE7BDF831
:104D10002C009DF82F3046F63412C0F6010202EB4B
:104D20008301498832F82320891ABDF8263040F2E1
:104D30006002C2F20002D25C91FBF2F188426ADAB0
:104D4000FFE7BDF82000022101F0C0FA07F0B8F833
:104D50008DF81F009DF81F00C007D8B1FFE7BDF810
:104D60002000BDF8263043F2FC02C2F20002C82146
:104D700003FB012243F2F801C2F20001CB5C22F8EE
:104D80001300BDF82620885C0130885400208DF87F
:104D90001F00FFE746F63411C0F601010888C98EEE
:104DA000BDF82020BDF826C043F2F803C2F200038C
:104DB00013F80C30EE464FF0000CCEF800C0FDF7B3
:104DC00075FABDF82000BDF8262040F26001C2F25D
:104DD0000001895C0844ADF8200043F2E100C2F212
:104DE0000000007878B9FFE7BDF8262043F2F8000C
:104DF000C2F20000805C46F60811C0F60101895C31
:104E0000884201D1FFE706E0FFE7BDF82C00013042
:104E1000ADF82C007BE743F2E100C2F2000000781D
:104E200078B9FFE7BDF8262043F2F800C2F200008F
:104E3000805C46F60811C0F60101895C884201D108
:104E4000FFE706E0FFE79DF82F0001308DF82F0007
:104E500049E7CDE0BDF82600A0B9FFE743F29E6127
:104E6000C2F20001CA7B46F62410C0F6010030F8F9
:104E70002220ADF82A20C97B00EB81004088ADF8E4
:104E800028002BE0BDF82600022811D1FFE740F2F0
:104E90006000C2F2000080780A2809D1FFE740F2E2
:104EA0001220ADF82A0040F2AE60ADF8280014E000
:104EB000BDF8261046F61410C0F6010030F81100B7
:104EC000ADF82A00BDF8261046F60C10C0F6010019
:104ED00030F81100ADF82800FFE7FFE7BDF82A0021
:104EE000ADF820000020ADF82C00FFE7BDF82C0045
:104EF000BDF82810BDF82A20891ABDF8263040F2E6
:104F00006002C2F20002D25C91FBF2F188426EDADA
:104F1000FFE7BDF82000022101F0D8F906F0D0FF2C
:104F20008DF81F009DF81F00C007D8B1FFE7BDF83E
:104F30002000BDF8263043F2FC02C2F20002C82174
:104F400003FB012243F2F801C2F20001CB5C22F81C
:104F50001300BDF82620885C0130885400208DF8AD
:104F60001F00FFE7BDF82A00BDF82810BDF820207B
:104F7000BDF826C043F2F803C2F2000313F80C3068
:104F8000EE464FF0000CCEF800C0FDF78FF9BDF8EB
:104F90002000BDF8262040F26001C2F20001895CC9
:104FA0000844ADF8200043F2E100C2F200000078AE
:104FB00078B9FFE7BDF8262043F2F800C2F20000FE
:104FC000805C46F60811C0F60101895C884207D171
:104FD000FFE743F2E101C2F200010020087006E0A1
:104FE000FFE7BDF82C000130ADF82C007EE7FFE7AD
:104FF000BDF8262043F2F401C2F200010020049023
:1050000088549DF8230000F0F3F9BDF82400012135
:1050100001F05CF9049800F005FA049843F2D50118
:10502000C2F20001087043F2E100C2F20000007811
:10503000B8B1FFE769460320C8600020886040F2ED
:105040000800C2F20000486046F69B40C0F601002E
:105050000860622036214FF0FF331A46FDF7A2F9AF
:1050600016E069460320C8600020886040F208000E
:10507000C2F20000486046F69640C0F601000860A3
:10508000622036214FF0FF331A46FDF78BF9FFE718
:1050900005F0A8FE0EB080BD80B58AB08DF827005F
:1050A00043F2D501C2F200010120087000218DF801
:1050B000261043F29E61C2F2000107910A4612F8DF
:1050C000123F02EB43025288ADF82420BDF82420A1
:1050D000ADF82220CA7C114491F821108DF82110DE
:1050E00000F0A0F90798C07C20B9FFE7032000F08A
:1050F0007FF903E0062000F07BF9FFE7FFE79DF86A
:105100002600C007002878D1FFE743F2E800C2F28A
:10511000000090F90000F0B1FFE743F2E801C2F2AD
:1051200000010020069008709DF8210000F060F951
:10513000BDF822000121059101F0C8F8059802F0A0
:10514000BFFE069800F06EF9069843F2D501C2F250
:105150000001087069E0BDF822309DF9270043F294
:105160009E61C2F2000191F812C040F26002C2F2E8
:10517000000212F80C2010FB0230ADF82200BDF83E
:1051800022008A7C46F60C11C0F6010131F912109A
:10519000884210DCFFE7BDF8220043F29E61C2F2B4
:1051A00000018A7C46F61411C0F6010131F9121093
:1051B000884218DAFFE79DF8210000F019F9BDF8E0
:1051C00024000121039101F081F8039802F078FE98
:1051D0000020049000F026F9049843F2D501C2F2B1
:1051E0000001087021E0BDF82200022101F06EF8F4
:1051F00006F066FE8DF8260081E79DF8210000F09C
:10520000F7F8BDF822000121019101F05FF8019843
:1052100002F056FE0020029000F004F9029843F2DA
:10522000D501C2F200010870FFE70AB080BD00009E
:1052300080B582B08DF807009DF80700022801DBD9
:10524000FFE70BE09DF8070043F2D861C2F20001CE
:10525000096881F8270000F01DFBFFE702B080BD60
:1052600080B582B08DF8070043F2D860C2F200002A
:10527000006890F8200008B9FFE70DE09DF80700EE
:1052800043F2D861C2F20001096800F0010081F820
:10529000290000F041F9FFE702B080BD80B582B07F
:1052A0008DF807009DF8070043F2D861C2F20001B3
:1052B000096800F0010081F82B0000F02DF902B020
:1052C00080BD000080B582B08DF807009DF8070012
:1052D00043F2D861C2F20001096881F8310000F0A0
:1052E000B3F902B080BD000080B586B08DF817001C
:1052F00043F2D860C2F20000006890F8200008B9BC
:10530000FFE740E09DF8170043F2D861C2F20001C8
:10531000096800F0010081F82C009DF81700C00713
:10532000B8B1FFE70220039019210022049200F097
:1053300053FC0398049A792100F04EFC0398049AD8
:105340001D2100F049FC0398049A7D2100F044FCE3
:1053500016E00220019019213F22029200F03CFC4D
:105360000198029A792100F037FC0198029A1D21D8
:1053700000F032FC0198029A7D2100F02DFCFFE73D
:1053800000F062F9FFE706B080BD000080B582B092
:105390008DF807009DF8070043F2D861C2F20001C2
:1053A000096800F0010081F82A0000F0B5F802B0A9
:1053B00080BD000080B582B08DF8070043F2D86050
:1053C000C2F20000006890F8200008B9FFE70DE085
:1053D0009DF8070043F2D861C2F20001096800F0AD
:1053E000010081F8280000F055FAFFE702B080BD07
:1053F00080B582B08DF807009DF80700102801DB0A
:10540000FFE70DE09DF8070043F2D861C2F200010A
:105410000968CA7C114481F8210000F01FFAFFE7F7
:1054200002B080BD80B582B08DF807009DF80710EE
:1054300043F2D860C2F20000026801F00101D170AD
:105440000068C078C00728B1FFE70020012109F0FB
:105450002DFA0EE043F2D860C2F200000068C07876
:10546000C00728B9FFE70021084609F01FFAFFE747
:10547000FFE702B080BD000080B582B08DF8070064
:105480008DF806108DF805209DF80600032805DC30
:10549000FFE79DF80500042801DBFFE713E09DF816
:1054A000060043F2D861C2F200010A689DF8073095
:1054B0001A4482F82D009DF80500096881F82F0034
:1054C00000F02AF8FFE702B080BD000080B582B08E
:1054D0008DF807008DF8061000208DF8050043F2C6
:1054E000D860C2F200000068C07C08B1FFE711E09C
:1054F0009DF807109DF8060000EB81019DF805005E
:1055000008438DF8050007200DF10501012200F088
:1055100039FBFFE702B080BD80B582B000208DF876
:10552000070043F2D860C2F200000068C07C002887
:1055300060D1FFE743F2D860C2F20000006890F843
:105540002A00C00738B1FFE79DF8070040F080004F
:105550008DF8070006E09DF8070000F07F008DF849
:105560000700FFE743F2D860C2F20000006890F83D
:105570002B00C00738B1FFE79DF8070040F040005E
:105580008DF8070006E09DF8070000F0BF008DF8D9
:105590000700FFE743F2D860C2F20000006890F80D
:1055A0002900C00738B1FFE79DF8070040F0200050
:1055B0008DF8070006E09DF8070000F0DF008DF889
:1055C0000700FFE743F2D860C2F200000068C17C28
:1055D000084490F82D0000F003019DF8070040EA10
:1055E00081008DF807009DF8070040F002008DF85B
:1055F000070021E09DF8070040F040008DF807000B
:1056000043F2D860C2F200000168CA7C114491F8EC
:105610002D1001F003029DF8071041EA82018DF878
:105620000710006890F82F0000F003019DF80700B4
:1056300008438DF80700FFE705200DF1070101225F
:1056400000F0A0FA02B080BD80B582B000208DF8D5
:10565000070043F2D860C2F200000068C07C70BB53
:10566000FFE743F2D860C2F20000006890F8300013
:1056700038B9FFE79DF8070040F080008DF807007B
:10568000FFE743F2D860C2F20000006890F82C00F7
:10569000C00738B1FFE79DF8070040F020008DF803
:1056A0000700FFE743F2D860C2F20000006890F8FC
:1056B00031109DF8070008438DF8070010E043F211
:1056C000D860C2F20000016891F8320091F83310FE
:1056D00000EB81019DF8070008438DF80700FFE704
:1056E00006200DF10701012200F04CFA02B080BD46
:1056F00080B586B08DF8170043F2D860C2F2000082
:105700000068C07C002853D1FFE79DF817000146D0
:10571000049104284BD80499DFE801F003111F2DF0
:105720003B0069460C208860332048603A200860BE
:1057300006200D216522002300F04EFA37E069466D
:105740000C208860332048601520086006200D2159
:105750006522102300F040FA29E069460C20886099
:10576000332048603A20086006200D21652210236E
:1057700000F032FA1BE06946082088603320486058
:105780003A20086006200D2165221E2300F024FA2D
:105790000DE0694605208860552048603A20086081
:1057A00006200D2165222A2300F016FAFFE752E0B9
:1057B0009DF817000146039104284BD80399DFE8B0
:1057C00001F003111F2D3B0069460C208860332037
:1057D00048603A20086006200D216022002300F076
:1057E000FBF937E069460C208860332048603A2096
:1057F000086006200D216022102300F0EDF929E059
:1058000069460C208860332048603A2008600620F2
:105810000D216022902300F0DFF91BE0694605208E
:105820008860332048604920086006200D216022EE
:10583000D02300F0D1F90DE06946042088603320C0
:1058400048604D20086006200D216022D02300F022
:10585000C3F9FFE7FFE706B080BD000080B582B066
:1058600000208DF8070043F2D860C2F20000006803
:10587000C17C014491F8210091F8231000EB8110C4
:105880008DF8070003200DF10701012200F07AF9DD
:1058900002B080BD80B582B000208DF807008DF881
:1058A000060043F2D860C2F200000068C07C002805
:1058B00058D1FFE743F2D860C2F20000006890F8C8
:1058C0002500C00738B1FFE79DF8070040F08000D1
:1058D0008DF8070006E09DF8070000F07F008DF8C6
:1058E0000700FFE79DF807008DF8060043F2D86037
:1058F000C2F20000006890F8270000F001019DF856
:10590000070040EA81008DF807009DF80700400776
:10591000002807D5FFE79DF8060000F0FB008DF892
:10592000060006E09DF8060040F004008DF8060031
:10593000FFE743F2D860C2F20000006890F8280048
:10594000C00738B1FFE79DF8070040F001008DF86F
:10595000070006E09DF8070000F0FE008DF8070044
:10596000FFE718E043F2D860C2F20000006890F848
:105970002600C00738B1FFE79DF8070040F080001F
:105980008DF8070006E09DF8070000F07F008DF815
:105990000700FFE7FFE704200DF107010122009255
:1059A00000F0F0F8009A64200DF1060100F0EAF82A
:1059B00002B080BD0000000080B582B08DF8070005
:1059C0009DF80700652801DBFFE746E09DF807002A
:1059D00043F2D861C2F2000109688A7888549DF8C0
:1059E000070003280DDCFFE79DF807106FF0420069
:1059F00000EB810000EE100AB8EEC00A8DED000A3F
:105A000017E09DF80700C0F16400FAF786FD41EC4D
:105A1000100B9FED131B53EC112B51EC100BFAF7ED
:105A20004AFC41EC100B51EC100BFAF7C6FD00904C
:105A3000FFE743F2D860C2F200000068807830B916
:105A4000FFE79DED000A462008F026FB05E09DEDEE
:105A5000000A522008F020FBFFE702B080BD00BF23
:105A6000000000000000E1BF80B582B0019000910D
:105A70003820FDF7B1F89DF80600FDF70FF99DF805
:105A80000500FDF70BF99DF80400FDF707F99DF8F7
:105A900005004006002809D5FFE79DF80100FDF745
:105AA000FDF89DF80000FDF7F9F80CE09DF8020004
:105AB000FDF7F4F89DF80100FDF7F0F89DF80000FF
:105AC000FDF7ECF8FFE7FDF79FF802B080BD00009E
:105AD00080B584B0039002918DF807203820FDF73F
