:020000040800F2
:10000000D84A002045010008C5470008592C0008BF
:100010004133000855110008599C000800000000F9
:10002000000000000000000000000000DD4D00089E
:100030009D13000800000000ED470008415F000824
:100040005F0100085F0100085F010008994900088E
:100050005F0100085F0100085F0100085F01000800
:100060005F0100085F0100085F0100085F010008F0
:100070005F0100085F0100085F010008F912000835
:100080005F0100085F010008A50900085F01000882
:100090005F0100085F0100085F0100085F010008C0
:1000A0005F0100085F0100085F0100085F010008B0
:1000B0005F0100085F0100085F0100085F010008A0
:1000C0005F0100085F0100085F0100085F01000890
:1000D0005F0100085F0100085F0100085F01000880
:1000E0005F0100085F0100085F0100085F01000870
:1000F0005F0100085F0100085F0100085F01000860
:100100005F0100085F0100085F0100085F0100084F
:100110005F0100085F0100082560000845600008D5
:100120005F0100085F0100085F0100085F0100082F
:10013000DFF80CD000F000FC004800475DF9000833
:10014000D84A00200648804706480047FEE7FEE7F9
:10015000FEE7FEE7FEE7FEE7FEE7FEE7FEE7FEE777
:10016000455F00083101000840EA01039B0703D006
:1001700009E008C9121F08C0042AFAD203E011F8E6
:10018000013B00F8013B521EF9D27047D2B201E0A8
:1001900000F8012B491EFBD270470022F6E710B58C
:1001A00013460A4604461946FFF7F0FF204610BDE5
:1001B00010B5044604E00B7800F8013B03B1491C7C
:1001C000521EF8D2204610BD421C10F8011B002917
:1001D000FBD1801A704710B5002200E0521C835CEE
:1001E0008C5CA34201D1002BF8D1D8B2E1B2401A05
:1001F00010BD30B505460020034600E05B1C93426D
:1002000005D2EC5CC85C201A01D1002CF6D130BDBF
:100210002DE9FE4F804681EA0300C00F0C46009096
:1002200021F0004123F00045B8EB0200A94105D2BE
:100230004046214690461C460B46024623F00040AD
:10024000104347D0270DC7F30A00C3F30A510290A9
:10025000401A019040286BDAC3F3130040F4801B6E
:100260000098924620B10023D2EB030A63EB0B0BFC
:1002700001985946C0F14002504600F048FA06463F
:100280000D4650465946019A00F060FA10EB0800FE
:100290006141002487EA115284EAE7731A4340D08F
:1002A000009A62B3019A012A4FEA075215DC001B3B
:1002B00061EB02014FF0004202EA0752CDE9004231
:1002C000001C41F5801132462B4600F0B5FA03B010
:1002D000BDE8F08F40462146F9E7001B61EB0201C3
:1002E000001C41F5801300185B412018A2F500178F
:1002F00047EB030140EAD570B6196D4111E06D0876
:100300004FEA360645EAC0754FEA0752001B61EB1B
:100310000201001C41F5801149084FEA3000001924
:10032000514132462B4603B0BDE8F04F00F075BA9C
:100330000098012240000023D0EB020263EBE0733F
:10034000009821464FEAE074B8EB000061EB04012D
:10035000E9E783F000435BE781F0004158E72DE9CE
:10036000FE4F81EA030404F0004421F000410094B0
:100370004FF0000B23F0004350EA01045ED052EA34
:1003800003045BD0C3F30A54C1F30A552C44A4F20E
:10039000F3340194A0FB0254C1F3130141F4801122
:1003A000C3F3130343F4801301FB024400FB034E29
:1003B000840A970A44EA815447EA8357A4FB0768F2
:1003C00002958D0A05FB07854FEA932C04FB0C541C
:1003D0002705029D4FEA065847EA1637B5EB080590
:1003E0006EEB070C870E920E47EA811742EA8312E2
:1003F000A7FB0201B6EB0B0164EB00042B0D43EAF3
:100400000C335E1844EB1C50DA465146E7FB020100
:10041000C5F313044FEA0B3343EA14534FEA043293
:10042000019C43EA0603A4F10C040294009CCDE96C
:1004300000B400F001FA03B0BDE8F08F00200146DF
:10044000F9E72DE9F04D81EA030404F0004B21F0B7
:10045000004514464FF0000A23F0004150EA05021F
:1004600020D054EA01021DD0C5F30A570246C5F355
:100470001303C1F31300C1F30A5640F4801543F48B
:100480008013A7EB0608101BD64608F2FD3873EB65
:10049000050002D308F1010801E092185B41B8F1B0
:1004A000000F03DA00200146BDE8F08D00204FF474
:1004B0008011064684460EE0171B73EB050705D333
:1004C000121B63EB050306434CEA010C49084FEA93
:1004D000300092185B4150EA0107EDD152EA030067
:1004E00012D082EA040083EA0501084305D0101BFC
:1004F000AB4106D20122002306E000224FF0004368
:1005000002E06FF0010253101AEB06004CEB0851A9
:1005100010EB0A0041EB0B01BDE8F04D00F07DB996
:1005200030B5041E71F1000404DB4FF0004440427A
:1005300064EB0101141E73F1000405DB1C464FF04F
:100540000043524263EB0403801A994101D3012016
:1005500030BD002030BD30B5041E71F1000404DB55
:100560004FF00044404264EB0101141E73F100049B
:1005700005DB1C464FF00043524263EB0403101AA4
:100580008B4101D2012030BD002030BD30B5041EAA
:1005900071F1000404DB4FF00044404264EB0101C0
:1005A000141E73F1000405DB1C464FF00043524259
:1005B00063EB0403101A8B4101D3012030BD0020EE
:1005C00030BD0EB5C10F80EAE0700844CA070021B3
:1005D00040F233438DE80E000A460B4600F02CF93A
:1005E00003B000BD70B5C1F30A5201F0004500240C
:1005F000C1F3130140F2FF3341F480119A4201DA52
:10060000002070BD40F233439A42A2F2334203DC31
:10061000524200F08BF800E090402C43F1D0404271
:1006200070BD00F0004230F000400AD0C10D01F56D
:100630006071C0F3160042EA0151C208400711433D
:10064000704700200146704701F0004330B421F0AC
:10065000004150EA010206D00A0DA2F56072C1F312
:100660001301002A02DC30BC00207047440F44EA2A
:10067000C104C100E01830BC00EBC25000F078B8F3
:1006800030B50B46014600202022012409E021FA62
:1006900002F59D4205D303FA02F5491B04FA02F55F
:1006A0002844151EA2F10102F1DC30BD2DE9F05FF6
:1006B0000546002092469B468846064681464024D1
:1006C0001BE0284641464746224600F02FF8534695
:1006D0005A46C01A914110D311461846224600F0DE
:1006E00016F82D1A67EB01084F462246012000211B
:1006F00000F00DF817EB00094E41201EA4F1010493
:10070000DFDC484631462A464346BDE8F09F202AB2
:1007100004DB203A00FA02F1002070479140C2F158
:10072000200320FA03F3194390407047202A04DB8A
:10073000203A21FA02F00021704721FA02F3D0405A
:10074000C2F120029140084319467047202A06DB77
:10075000CB17203A41FA02F043EAE07306E041FA8F
:1007600002F3D040C2F1200291400843194670477D
:100770000029A8BF7047401C490008BF20F00100B5
:10078000704710B4B0FA80FC00FA0CF050EA010493
:1007900004BF10BC704749B1CCF1200421FA04F425
:1007A00011FA0CF118BF012121430843A3EB0C01FE
:1007B000CB1D4FEA00614FEA102042BF002010BC61
:1007C000704700EBC35010440029A4BF10BC704711
:1007D000401C490008BF20F0010010BC704710B554
:1007E00041000CD0C0F3C751962908DC7E2909DCF2
:1007F00006DB410204D000F0004040F07E5010BD06
:10080000002010BDC1F19604C4F1200100FA01F1ED
:10081000E040FFF7ADFFA04010BD10B5141E73F10E
:10082000000408DA401C41F1000192185B411A43B0
:1008300001D120F0010010BD2DE9F04D92469B46FC
:1008400011B1B1FA81F202E0B0FA80F220329046A2
:10085000FFF75DFF04460F4640EA0A0041EA0B013C
:1008600053465A46084313D0114653EA010019D0A3
:10087000C8F140025046FFF759FF05460E46504664
:1008800059464246FFF743FF084305D0012004E0E4
:1008900020463946BDE8F08D0020054346EAE07663
:1008A0002C4337430A986305E40AA0EB08000022B2
:1008B000FD0A44EA47540A3002D500200146E9E720
:1008C000010510196941DDE9084500196941BDE8D4
:1008D000F04DA2E7C1F30A52C1F3130140F2FF3316
:1008E00041F480119A4202DA00200146704740F23A
:1008F00033439A42A2F2334202DC5242FFF716BF60
:10090000FFF705BF30B5041E71F1000404DB4FF0A2
:100910000044404264EB0101141E73F1000405DB46
:100920001C464FF00043524263EB0403994208BF58
:10093000904230BD002070471CB50948009009481E
:1009400001900546009C06E0E06840F0010394E851
:10095000070098471034AC42F6D3FFF7EDFB0000D8
:100960009CD20108BCD2010830B58C1810F8012BBC
:1009700012F00F0301D110F8013B120906D110F853
:10098000012B03E010F8015B01F8015B5B1EF9D15C
:1009900001E001F8013B521EFBD1A142E6D3002049
:1009A00030BD000080B542F20040C4F201000221D7
:1009B00009F0C6FF28B1FFE70020522100F010F82F
:1009C000FFE742F20040C4F20100042109F0B8FF41
:1009D00028B1FFE70020492100F002F8FFE780BDC1
:1009E00080B586B08DF817008DF816100020ADF890
:1009F0001400ADF812009DF81700002840F02F8178
:100A0000FFE79DF81600522840F09180FFE742F280
:100A10000040C4F201000AF0AFF8ADF81400BDF8D0
:100A2000140040F6775188420BDCFFE7BDF8140054
:100A3000B0F53E6F05DBFFE70021084602F0CAFA79
:100A400062E0BDF8140040F6D32188420CDCFFE7D9
:100A5000BDF8140040F63C11884205DBFFE7012099
:100A6000002102F0B7FA4EE0BDF8140040F24671E2
:100A700088420CDCFFE7BDF8140040F2AF51884219
:100A800005DBFFE70220002102F0A4FA3AE0BDF8FE
:100A90001400B0F5667F0BDCFFE7BDF81400B0F57D
:100AA000007F05DDFFE70320002102F093FA28E034
:100AB000BDF81400CC2805DCFFE70520002102F07A
:100AC00089FA1DE0BDF8140040F63371884216DB48
:100AD000FFE700200121039102F07CFA0399084608
:100AE00002F078FA0399022002F074FA03990320C5
:100AF00002F070FA0399052002F06CFAFFE7FFE7B5
:100B0000FFE7FFE7FFE7FFE740F60000C4F2010060
:100B100001210DF013FB0146042002F05BFA42F2C2
:100B20000040C4F20100022109F000FF96E09DF8A8
:100B30001600492840F09180FFE742F20040C4F2DD
:100B400001000290002109F0A3FEADF81200BDF8EB
:100B5000120000EE100AB8EE400A10EE100AFFF77D
:100B600060FD41EC100B9FED401B53EC112B51EC41
:100B7000100BFFF7F4FB41EC100B51EC100B9FED49
:100B80003C0B53EC102BFFF75CFC41EC100B51ECD1
:100B9000100BFFF727FD40F2EC31C2F2000101918A
:100BA000888541F20000C4F2010008210DF0E0F94F
:100BB0000298012109F06CFEADF81200BDF8120098
:100BC00000EE100AB8EE400A10EE100AFFF729FDF9
:100BD00041EC100B9FED281B53EC112B51EC100B2B
:100BE000FFF7BDFB41EC100B51EC100B9FED240BFC
:100BF00053EC102BFFF725FC41EC100B51EC100BC4
:100C00009FED210B53EC102BFFF702FB41EC100B77
:100C100051EC100B9FED1E0B53EC102BFFF711FC4A
:100C200041EC100B51EC100B9FED1B0B53EC102BF8
:100C3000FFF7EEFA41EC100B51EC100BFFF704FD3F
:100C400000EE100A0FF0C4FC019A0146029882F8E7
:100C50002E10042109F06AFEFFE7FFE7FFE706B068
:100C600080BD00BF00BF00BF000000000025B140F4
:100C7000000000000000E4406666666666660AC022
:100C8000000000000000B040333333333333F73F0C
:100C9000091B9E5E29CB703F000000000000394018
:100CA00080B586B042F20040C4F20100059009F020
:100CB000C7FC0020029009F095FE05984FF4807162
:100CC0000122019209F07EFF0299059809F0A4FC27
:100CD000019A0598114609F067FC029905980222CD
:100CE0000392062309F08EFE019905984FF46022C5
:100CF00009F02CFD019A0598114609F0EBFC039AC6
:100D00000598114609F050FC029905980C2207231A
:100D1000009309F045FD009B01990598102209F008
:100D20003FFD039905984FF4E04209F00FFD019A49
:100D30000399059809F0CEFC029A122003210FF0C6
:100D400053FD0399059809F0F1FD059804210491DC
:100D500009F0ECFD0399059809F0C0FD0499059888
:100D600009F0BCFD059809F0A5FC05200AF012FF6A
:100D7000059809F0FBFB09F079FF06B080BD000083
:100D800080B582B043F68620C2F20000807CADF8C8
:100D90000400BDF8042040F2B201C2F20001CC23ED
:100DA00002FB03105A434078895C884204DBFFE76A
:100DB00000208DF8070008E1BDF8040040F2B202FF
:100DC000C2F20002CC2100FB0120407810BBFFE7FB
:100DD000BDF8043043F68620C2F2000000EB430069
:100DE000808A40F2B202C2F20002CC2103FB01234E
:100DF0009880BDF8040000FB01235878013058703A
:100E0000BDF8040000FB01210020887001208DF84E
:100E10000700DAE000208DF80300BDF8040040F27E
:100E2000B202C2F20002CC2100FB0120407801385E
:100E30008DF80300FFE79DF80300002800F1B18062
:100E4000FFE7BDF8041043F68620C2F2000000EB75
:100E50004100808A40F2B203C2F20003CC2201FBBF
:100E600002319DF8032001EB42018988884210D1AC
:100E7000FFE79DF80300BDF8041040F2B203C2F290
:100E80000003CC2201FB0231887001208DF807009D
:100E90009BE0BDF8041043F68620C2F2000000EB90
:100EA0004100808A40F2B203C2F20003CC2201FB6F
:100EB00002319DF8032001EB42018988884210DA53
:100EC000FFE7BDF8040040F2B202C2F20002CC21FA
:100ED00000FB01209DF8031000EB41018888C880C9
:100EE00036E0BDF8041043F68620C2F2000000EBA5
:100EF0004100808A40F2B203C2F20003CC2201FB1F
:100F000002319DF8032001EB4201898888421EDDF1
:100F1000FFE7BDF8041043F68620C2F2000000EBA4
:100F20004100808A40F2B203C2F20003CC2201FBEE
:100F300002319DF803C001EB4C01C8809DF803000D
:100F40000130BDF8041001FB0231887029E0FFE791
:100F5000FFE79DF80300E8B9FFE7BDF8041043F68A
:100F60008620C2F2000000EB4100808A40F2B2030A
:100F7000C2F20003CC2201FB02319DF803C001EB59
:100F80004C0188809DF80300BDF8041001FB02317C
:100F9000887006E0FFE79DF8030001388DF8030034
:100FA00049E7BDF8040040F2B202C2F20002CC21CF
:100FB00000FB01214878013048709DF8040010F0D2
:100FC00031FD01208DF80700FFE79DF8070002B012
:100FD00080BD000080B582B08DF8070043F6862002
:100FE000C2F20000C17C084490F821008DF8060090
:100FF0009DF807109DF8060008448DF806009DF93D
:10100000062000200F210DF057F98DF806009DF8FD
:10101000060004F02DFB02B080BD000080B582B058
:101020008DF8070043F68620C2F2000010F812CFB8
:10103000009000EB4C014B889DF9071040F28E02A6
:10104000C2F2000202EBCC0284449CF80AC032F8DF
:101050001C2001FB0231ADF8041002784BF63E4033
:10106000C0F6010030F912004BF63641C0F601011E
:1010700031F91210BDF804200DF01EF90146009858
:10108000ADF80410407830B9FFE7BDF80400042142
:1010900005F084FA05E0BDF80400012105F07EFAB0
:1010A000FFE703F0DFFB02B080BD000080B582B037
:1010B0008DF8070043F68620C2F200008178405C7C
:1010C0008DF806009DF906009DF9071000EB41021E
:1010D000002064210DF0F0F88DF806009DF8060060
:1010E00004F0AAFD02B080BD80B582B041F20000DC
:1010F000C4F2010000904FF4806101910CF038FFC0
:1011000005200AF047FD009801990CF039FF1420E2
:101110000AF040FD43F6C020C2F20000006890F8DB
:101120002000012807D1FFE745F22A70C0F6010030
:1011300000F0F8F8FFE745F2F860C0F6010000F0B3
:10114000F1F845F2FD60C0F6010000F0EBF802B0E6
:1011500080BD0000FFE7FEE782B001908DF803102C
:10116000019840899DF80310C84000F0030002B0C8
:101170007047000081B0009000988088000B01B09B
:101180007047000081B0009000980078C0F3001014
:1011900001B0704780B582B08DF807000020ADF82F
:1011A00004009DF8070001460091012804D0FFE7E4
:1011B0000098022806D00BE000200AF0BFFAADF834
:1011C000040005E001200AF0B9FAADF80400FFE7D9
:1011D000BDF8040002B080BD80B584B00AF054FAB6
:1011E00000200290382101910AF0F8FA02980AF0E2
:1011F000DBFA029908460AF015FB02980AF084FA15
:101200000199012003900AF0E9FA03980AF0CCFA58
:10121000029903980AF006FB03980AF075FA0298FF
:101220000AF03EFA03980AF03BFA04B080BD0000D1
:1012300080B586B08DF81700ADF814109DF8170032
:1012400001460391012804D0FFE70398022834D017
:1012500048E0BDF8140020B9FFE70020ADF8120007
:1012600020E0BDF81400FFF7ACF941EC100B9FED46
:101270001E1B53EC112B51EC100BFFF770F841ECD7
:10128000100B51EC100B9FED1A0B53EC102BFEF7CB
:10129000BFFF41EC100B51EC100BFFF7A3F9ADF8B9
:1012A0001200FFE7BDF812200021029108460AF063
:1012B00095F902980AF05EFA14E0BDF814200020B7
:1012C000009040F214510CF0F7FF0099ADF81200B5
:1012D000BDF81220012001900AF080F901980AF06F
:1012E00049FAFFE706B080BD6666666666664440FA
:1012F000000000000000284080B50020C4F2020079
:10130000042102220AF04AFE50B1FFE70020C4F295
:101310000200042101220AF02FFE0EF03BF8FFE745
:1013200080BD000080B584B0039003980190FFE772
:10133000019800788DF80B000198013001909DF81C
:101340000B0008B9FFE727E09DF80B00FF2803D149
:10135000FFE708F0C7FCEBE79DF80B00000600284C
:101360000DD5FFE79DF80B0000F07F010198421CAE
:101370000192007840EA01200AF00CFC0BE0019990
:101380009DF80B20382001F05DFD01989DF80B10B1
:1013900008440190FFE7CBE704B080BD7047000030
:1013A00080B582B00190019803F054FB43F61C0114
:1013B000C2F200010968488001980421FFF7CCFEC1
:1013C00000281CDCFFE70198FFF7D4FE014640F23D
:1013D0002040C2F20000017000780146009120B167
:1013E000FFE70098022804D007E0019803F0A4FB6F
:1013F00004E0019803F002FC00E0FFE7FFE702B021
:1014000080BD000080B582B0ADF80600BDF80600D2
:10141000552806DBFFE7BDF80600B0F5B47F01DD17
:10142000FFE717E00020ADF804009DF8060000F08B
:101430003F008DF80400BDF80600C0F382108DF85F
:1014400005009DF804209DF80530812002210EF052
:1014500089F9FFE702B080BD80B584B08446069864
:101460008DF80FC08DF80E10ADF80C208DF80B30F4
:101470008DF80A00BDF80C00ADF808009DF80B00CF
:101480008008ADF806009DF80E009DF80F10BDF81D
:101490000C200244013ABDF806300B44013BD2B2A5
:1014A000DBB20EF007F85C2000210EF05BF99DF82E
:1014B0000A00BDF80810BDF80620514389B20EF0AD
:1014C000DFF904B080BD000080B592B08DF8470010
:1014D0008DF846109DF847001F2805DCFFE79DF8B2
:1014E0004600202801DBFFE723E031200021109196
:1014F0000EF038F9109B9DF847109DF8462068467D
:101500000F9043630363C262826242620362C361FB
:10151000826143610361C16081604160036020209A
:1015200010211A460EF01EF9109930200EF01AF90B
:10153000FFE712B080BD000080B582B08DF80700D3
:10154000A6208DF806009DF80700C00730B1FFE720
:101550009DF8060001308DF80600FFE79DF80600B3
:1015600000210EF0FFF802B080BD000080B582B00F
:101570008DF807009DF8070028B9FFE7AE2000218D
:101580000EF0F0F804E0AF2000210EF0EBF8FFE7DA
:1015900002B080BD80B584B0039002918DF8072021
:1015A00008F0B4FB03999DF8072044F23900C0F21B
:1015B000F40004F0CDFB02999220C0F2F40004F094
:1015C00093FB9DF807109320C0F2F40004F08CFB0D
:1015D000002004B080BD000083B00290ADF806107A
:1015E0008DF805200020ADF80200ADF80200FFE7FD
:1015F000BDF80200BDF80610013988420DDAFFE798
:101600009DF805000299BDF802208854FFE7BDF857
:1016100002000130ADF80200EAE70299BDF80220AD
:101620000020885403B0704783B00290ADF80610D4
:101630000020ADF80400ADF80200ADF80400FFE7AB
:10164000BDF80400BDF80610884216DAFFE70299DB
:10165000BDF80200085CBDF80420895C884205DD05
:10166000FFE7BDF80400ADF80200FFE7FFE7BDF8B3
:1016700004000130ADF80400E2E7BDF8020003B059
:101680007047000080B588B040F20020C0F2300002
:1016900001210CF069FD40F60000C4F20100059044
:1016A000042106910222049281230CF085FC049A05
:1016B000059828214FF400430CF07EFC049A06990B
:1016C00040F60040C4F20100039040F603430CF0E2
:1016D00073FC049A059840F61401C4F201014023FA
:1016E0000B60102100910CF067FC0099049A41F204
:1016F0001400C4F2010040F6D853036041F2000028
:10170000C4F2010001900CF057FC00990398049A70
:1017100040F6144CC4F2010C4FF48073CCF8003046
:101720000CF04AFC0198049B0021029103220792CD
:101730000CF042FC02990598079A30230CF03CFC0F
:1017400002990598069B079A0CF036FC0398049AB8
:1017500040F61041C4F20101C0230B6014210CF0CB
:101760002BFC0598079A18214FF400730CF024FC09
:1017700005980699079A4FF480630CF01DFC08B099
:1017800080BD0000B0B58AB08C4686460F980E9991
:10179000ADF826E08DF825C08DF8242008938DF84B
:1017A0001F108DF81E009DF824008DF81D009DF877
:1017B0001D00202805DBFFE79DF81D007F2804DBC6
:1017C000FFE73F208DF81D00FFE70898807940076C
:1017D00040B9FFE70898C088C1088DF81C10C0F315
:1017E000C70008E00898C188012000EBD1008DF8FF
:1017F0001C00C0B2FFE79DF81D0020389DF81C10AA
:101800004843089989884843ADF81A000898006849
:10181000BDF81A1008440590BDF826009DF8251063
:10182000089B9A889B799DF81FC09DF81E40059DD6
:10183000EE46CEF80C50CEF80840CEF804C04FF07B
:10184000000CCEF800C000F041F80AB0B0BD0000B6
:1018500080B582B08DF807000020ADF80400FFE7E6
:10186000BDF80400172829DCFFE70020ADF80200CE
:10187000FFE7BDF80200FF2819DCFFE79DF807101D
:1018800047F6C550C0F60100405CBDF8042040F2A8
:101890002D41C2F2000101EB0221BDF80220885463
:1018A000FFE7BDF802000130ADF80200E1E7FFE715
:1018B000BDF804000130ADF80400D1E70021FF229B
:1018C0005F23084600F00CFF02B080BDB0B58AB0BF
:1018D00094468E460446119810980F990E9AADF8CA
:1018E00026408DF825E0ADF822C08DF821308DF826
:1018F00020208DF81F108DF81E000020ADF8140078
:101900009DF821109DF8203047F6C352C0F6010221
:10191000D25CB1FBF2F101318DF813108DF810009B
:10192000ADF81800FFE7BDF818009DF813108842C5
:1019300080F2B280FFE79DF82130BDF818009DF8D5
:10194000202047F6C351C0F601018A5C00FB12302B
:101950008DF812009DF812009DF82020895C8842C5
:101960000ADBFFE79DF8201047F6C350C0F60100E0
:10197000405C8DF8110004E09DF812008DF8110014
:10198000FFE70020ADF81C00FFE7BDF81C00BDF824
:10199000221088426DDAFFE71198BDF81410405C00
:1019A0008DF817000020ADF81A00FFE7BDF81A0007
:1019B0009DF81110884250DAFFE79DF8200058BBCF
:1019C000FFE7BDF82600BDF81C10084402909DF802
:1019D0002500BDF81A1008449DF810100844039023
:1019E0009DF817000006002804D5FFE79DF81F00AA
:1019F000019003E09DF81E000190FFE70399029813
:101A0000019A80B2C9B2D2B200F0C6F89DF81700B0
:101A100040008DF8170019E0BDF82600BDF81C1035
:101A200008449DF82510BDF81A2011449DF8102097
:101A300011449DF81720920980B2C9B200F0ACF8A9
:101A40009DF8170080008DF81700FFE7FFE7BDF84D
:101A50001A000130ADF81A00A8E7BDF814000130F3
:101A6000ADF81400FFE7BDF81C000130ADF81C0014
:101A70008BE79DF8201047F6C350C0F60100415C8B
:101A80009DF8100008448DF81000FFE7BDF818001D
:101A90000130ADF8180046E79DF82510BDF8260086
:101AA000BDF822200244013A9DF821300B44013B4D
:101AB00092B2DBB2C0B200F013FE0AB0B0BD0000BB
:101AC00080B584B0DDF818C08DF80F008DF80E10C9
:101AD000ADF80C208DF80B300020ADF800009DF81B
:101AE0000E008008ADF804009DF80B008008ADF8EA
:101AF0000200BDF80400ADF80800FFE7BDF80800DB
:101B0000BDF80410BDF802201144884231DAFFE725
:101B10009DF80F00ADF80600FFE7BDF806009DF840
:101B20000F10BDF80C20114488421BDAFFE706981D
:101B3000BDF80010405CBDF8082040F22D41C2F213
:101B4000000101EB0221BDF806208854BDF8000019
:101B50000130ADF80000FFE7BDF806000130ADF838
:101B60000600DAE7FFE7BDF808000130ADF808002D
:101B7000C4E79DF80F009DF80E10BDF80C2002443C
:101B8000013A9DF80B300B44013B92B2DBB200F0FE
:101B9000A7FD04B080BD000082B0ADF806008DF84E
:101BA00005108DF804209DF8050080088DF80300CD
:101BB0009DF80510032020EA010149008DF802106C
:101BC0009DF8021000FA01FC9DF8031040F22D4030
:101BD000C2F2000000EB0122BDF80630D15C21EA20
:101BE0000C01D1549DF804109DF8022001FA02F373
:101BF0009DF8031000EB0121BDF80620885C184316
:101C0000885402B07047000080B586B084460898BA
:101C1000ADF816C08DF81510ADF812208DF8113002
:101C20008DF810009DF81100ADF80A009DF8150020
:101C3000ADF80600BDF8060000F00300ADF80400A2
:101C4000BDF8060080088DF80300FFE7BDF80A0024
:101C5000002800F0CB80FFE7BDF80A00BDF80410B3
:101C6000C1F10401884205DAFFE7BDF80A00ADF8CA
:101C7000080007E0BDF80400C0F10400ADF808005A
:101C800080B2FFE700208DF802008DF80100BDF85A
:101C9000080004282DD1FFE79DF8101047F6C55025
:101CA000C0F60100405C8DF80200BDF81600ADF8EA
:101CB0000E00FFE7BDF80E00BDF81210BDF81620AB
:101CC0001144884214DAFFE79DF802009DF80320D2
:101CD00040F22D41C2F2000101EB0221BDF80E20BD
:101CE0008854FFE7BDF80E000130ADF80E00E1E7C3
:101CF00062E00020ADF80E00FFE7BDF80E00BDF871
:101D00000810884226DAFFE7BDF80E00BDF804107F
:101D10000844C0F1030040008DF800009DF8100059
:101D20009DF8001000FA01F19DF8020008438DF8BB
:101D300002009DF80010032000FA01F19DF8010057
:101D400008438DF80100FFE7BDF80E000130ADF843
:101D50000E00D2E7BDF81600ADF80E00FFE7BDF8A3
:101D60000E00BDF81210BDF816201144884222DA88
:101D7000FFE79DF801C09DF8031040F22D40C2F22C
:101D8000000000EB0122BDF80E30D15C21EA0C010D
:101D9000D1549DF802309DF8031000EB0121BDF8ED
:101DA0000E20885C18438854FFE7BDF80E00013010
:101DB000ADF80E00D3E7FFE7BDF80810BDF80A0044
:101DC000401AADF80A00BDF80810BDF80600084436
:101DD000ADF80600BDF8060000F00300ADF8040001
:101DE000BDF8060080088DF803002FE79DF8151058
:101DF000BDF81600BDF812200244013A9DF81130DA
:101E00000B44013B92B2DBB2C0B200F069FC06B0F9
:101E100080BD000080B584B084460698ADF80EC041
:101E20008DF80D10ADF80A208DF809308DF80800F6
:101E30009DF80D008008ADF802009DF809008008AB
:101E4000ADF80000BDF80200ADF80400FFE7BDF8F2
:101E50000400BDF80210BDF80020114488422ADABF
:101E6000FFE7BDF80E00ADF80600FFE7BDF806007D
:101E7000BDF80E10BDF80A201144884214DAFFE7BD
:101E80009DF80800BDF8042040F22D41C2F2000187
:101E900001EB0221BDF806208854FFE7BDF80600DB
:101EA0000130ADF80600E1E7FFE7BDF804000130BE
:101EB000ADF80400CBE79DF80D10BDF80E00BDF89D
:101EC0000A200244013A9DF809300B44013B92B2CA
:101ED000DBB2C0B200F004FC04B080BDB0B58CB081
:101EE0008C46864612981199109CADF82EE08DF81C
:101EF0002DC08DED0A0A8DF827208DF826308DF83B
:101F000025108DF8240000208DF823009DED0A0A8D
:101F1000BDEEC00A8DED070A9DED0A0A9DED071A78
:101F2000B8EEC11A30EE410A9DF8271048F2DC10D5
:101F3000C0F6010000EB810090ED001AB8EE411AE6
:101F400020EE010ABDEEC00A8DED060A0698B0F13A
:101F5000FF3F04DCFFE7069840420690FFE79DF84C
:101F6000260001284BD1FFE7BDF82E009DF82D106B
:101F7000069A109B9DF825E09DF82440EC46CCF88D
:101F80000840CCF804E0CCF800300123059300F0C1
:101F9000FDF8BDF82E209DF827000130109B998890
:101FA00000FB11209DF82D109DF825209DF824E0C0
:101FB000EC46CCF804E0CCF8002080B22E22FFF7EB
:101FC000E1FB059BBDF82E209DF827000130DDF8D0
:101FD00040C0BCF8041000FB11209DF82D10079A9A
:101FE0009DF825409DF82450EE46CEF80850CEF8D6
:101FF0000440CEF800C080B200F0C8F84BE0BDF855
:102000002E009DF82D10069A109B9DF825E09DF856
:102010002440EC46CCF80840CCF804E0CCF8003082
:102020000023049300F0B2F88DF82300BDF82E20B1
:102030009DF82300109B998800FB01209DF82D102E
:102040009DF825209DF824E0EC46CCF804E0CCF87F
:10205000002080B22E22FFF795FB049BBDF82E20B6
:102060009DF823000130DDF840C0BCF8041000FBEF
:1020700001209DF82D10079A9DF825409DF82450C9
:10208000EE46CEF80850CEF80440CEF800C080B23C
:1020900000F07CF8FFE70CB0B0BD000010B584B0D4
:1020A0008C46864607980699ADF80EE08DF80DC06F
:1020B0008DF80C20ADF80A30ADF808108DF8070047
:1020C0009DF80C0001282FD1FFE7BDF80E00BDF8E8
:1020D0000A100844B0F5807F07DDFFE7BDF80E0069
:1020E000C0F58070ADF80A00FFE79DF80D00BDF85F
:1020F00008100844612807DBFFE79DF80D00C0F1D8
:102100006000ADF80800FFE7BDF80E009DF80D1067
:10211000BDF80A209DF808309DF807C0EE46CEF8BD
:1021200000C0FFF771FD2EE09DF80D00BDF80A100C
:102130000844612807DBFFE79DF80D00C0F160004F
:10214000ADF80A00FFE7BDF80E00BDF8081008441E
:10215000B0F5807F07DDFFE7BDF80E00C0F58070A9
:10216000ADF80800FFE7BDF80E009DF80D10BDF8B2
:1021700008209DF80A309DF807C0EE46CEF800C052
:10218000FFF742FDFFE704B010BD000010B58AB0B4
:102190008C4686460E980D990C9CADF826E08DF87D
:1021A00025C008928DF81F308DF81E108DF81D0087
:1021B00000208DF81C00089802900298B0F1FF3FB3
:1021C00004DCFFE7029840420290FFE7FFE7029835
:1021D00046F26761C6F2666150FB01F39A1002EBAA
:1021E000D37202EB8202A0EB42009DF81C300DF18D
:1021F0000F02D054029850FB01F1881000EBD1700F
:1022000002909DF81C0001308DF81C00FFE7029839
:102210000028DCD1FFE70898B0F1FF3F0CDCFFE7B6
:102220009DF81C200DF10F012D2088549DF81C00F5
:1022300001308DF81C00FFE79DF81F0000285CD1DD
:10224000FFE700208DF81B00FFE79DF81B009DF8BD
:102250001C10884250DAFFE79DF81C109DF81B0007
:10226000C04301440DF10F00405C2D281AD1FFE757
:10227000BDF826009DF825109DF81C309DF81B2008
:10228000D24313440DF10F02D25C0C9B9DF81EC08B
:102290009DF81D40EE46CEF80440CEF800C0FFF792
:1022A00071FA1BE0BDF826009DF825109DF81C3042
:1022B0009DF81B20D24313440DF10F02D25C303243
:1022C0000C9B9DF81EC09DF81D40EE46CEF80440C4
:1022D000CEF800C0D2B2FFF755FAFFE70C9881881C
:1022E000BDF826000844ADF82600FFE79DF81B0066
:1022F00001308DF81B00A8E757E000208DF81B0087
:10230000FFE79DF81B009DF81C1088424CDAFFE7A0
:102310009DF81B100DF10F00405C2D281AD1FFE72E
:10232000BDF826000C9B9988401A9DF825109DF851
:102330001BC00DF10F0212F80C209DF81EC09DF875
:102340001D40EE46CEF80440CEF800C080B2FFF744
:1023500019FA1BE0BDF826000C9B9988401A9DF8DD
:1023600025109DF81BC00DF10F0212F80C20303221
:102370009DF81EC09DF81D40EE46CEF80440CEF8F4
:1023800000C080B2D2B2FFF7FDF9FFE70C98818858
:10239000BDF82600401AADF82600FFE79DF81B00A7
:1023A00001308DF81B00ACE7FFE79DF81C000AB078
:1023B00010BD000010B588B08C4686460B980A996F
:1023C000ADF81EE08DF81DC0ADF81A208DF819305B
:1023D0008DF818108DF81700BDF81E009DF81D101F
:1023E000BDF81A309DF818209DF817E0EC46CCF89F
:1023F00004E0CCF8002001220392FFF74FFE039A7D
:10240000BDF81E009DF81D109DF819301944BDF847
:102410001A309DF818C09DF81740EE46CEF80440DB
:10242000CEF800C0C9B2FFF739FEBDF81E009DF816
:102430001D109DF819309DF818209DF817E0EC4606
:10244000CCF804E0CCF8002000220492FFF726FE2E
:10245000049ABDF81E00BDF81A1008449DF81D101E
:102460009DF819309DF818C063449DF81740EE465A
:10247000CEF80440CEF800C080B2FFF70FFE08B0DF
:1024800010BD000080B588B084460A98ADF81EC023
:10249000ADF81C10ADF81A208DF819308DF8180021
:1024A000BDF81A00BDF81E20801A00EB8000400124
:1024B000BDF81C10891A90FBF1F08DF817009DF8FB
:1024C0001800C007D0B1FFE740F23001C2F20001AE
:1024D00064200870694600200490086021203321A0
:1024E0009F221323FFF790FB049869460860E720BA
:1024F000362115220C23FFF787FBFFE79DF8190013
:1025000040F23001C2F200010978884218D0FFE79A
:102510009DF81920694600238B600320486040F233
:102520000800C2F200000860E7203621FFF72EFE07
:102530009DF8190040F23001C2F200010870FFE777
:102540009DF8170040F23101C2F20001097888427B
:1025500012D0FFE79DF8172069460320086021206C
:1025600033211323FFF750FB9DF8170040F2310190
:10257000C2F200010870FFE708B080BD10B588B056
:102580008C4686460D980C990B9C0A9CADF81EE073
:102590008DF81DC0ADF81A20ADF818308DF8171061
:1025A0008DF816000A980490BDF81E00ADF80E00D4
:1025B0009DF81D008DF80D00BDF81A00ADF80A0059
:1025C000BDF81800ADF80800BDF91A00002806D4BF
:1025D000FFE7BDF91A00B0F5807F05DDFFE74FF496
:1025E0008070ADF80A00FFE7BDF91800002805D497
:1025F000FFE7BDF91800612804DBFFE76020ADF8B4
:102600000800FFE7FFE704980078002866D0FFE79E
:10261000049800780A281AD1FFE7BDF81E00ADF82B
:102620000E000B98C1889DF80D0008448DF80D0030
:102630009DF80D000B99C9880844BDF80810884220
:1026400001DDFFE74AE0049801300490DBE7BDF8C4
:102650000E009DF80D10049A12780B9B9DF817C080
:102660009DF81640EE46CEF80440CEF800C0FFF7C5
:1026700089F80B988188BDF80E000844ADF80E006B
:10268000BDF80E000B9989880844BDF80A108842ED
:1026900020DDFFE7BDF81E00ADF80E000B98C188E5
:1026A0009DF80D0008448DF80D009DF80D000B9964
:1026B000C9880844BDF80810884201DDFFE70DE035
:1026C00004984078202804D1FFE704980130049052
:1026D000FFE7FFE704980130049094E708B010BDCD
:1026E00082B08DF807008DF80610ADF804208DF843
:1026F00003309DF8070043F6D221C2F20001098899
:10270000884208DAFFE79DF8070043F6D221C2F2BB
:1027100000010880FFE79DF8060043F6D621C2F2CB
:1027200000010988884208DAFFE79DF8060043F6B1
:10273000D621C2F200010880FFE7BDF8040043F68D
:10274000D021C2F200010988884208DDFFE7BDF808
:10275000040043F6D021C2F200010880FFE79DF893
:10276000030043F6D421C2F200010988884208DD43
:10277000FFE79DF8030043F6D421C2F20001088070
:10278000FFE702B07047000086B005900491039205
:102790004FF2E070C1F6FF7002900298006801905D
:1027A000019804990880BDF80600039908804FF24B
:1027B000E870C1F6FF70029000208DF80300FFE77B
:1027C0009DF80300022811DCFFE7029800680599D4
:1027D0009DF8032041F82200029804300290FFE7A0
:1027E0009DF8030001308DF80300E9E706B070475B
:1027F00080B584B0039043F6C020C2F200000068A8
:1028000090F90400142808DBFFE743F6C020C2F269
:1028100000000068807C08B1FFE745E007206946BA
:10282000012200F0DDF89DF800000399087003987C
:1028300000780006002837D5FFE703980078800667
:10284000002831D4FFE7072069460A2200F0C8F8C3
:102850009DF80000039908709DF801109DF8020092
:1028600040EA0120039948809DF803109DF8040078
:1028700040EA0120039988809DF805109DF8060024
:1028800040EA01200399C8809DF807109DF80800D0
:1028900040EA0120039908819DF8090003994881C5
:1028A0000398FEF77DFDFFE704B080BD80B582B0E0
:1028B00000200DF10301052200F092F89DF80300BD
:1028C000410943F6C020C2F200000268D1729DF8AF
:1028D00003100268C1F3C00191729DF804206FF0EB
:1028E000070101EB5201026811710068807C68B930
:1028F000FFE79DF8050043F6C021C2F200010A6817
:1029000050719DF806000968C87108E09DF805003F
:1029100043F6C021C2F2000109688871FFE79DF803
:10292000070000F07F0043F6C021C2F200010968F1
:1029300008729DF807000006002809D5FFE743F656
:10294000C020C2F200000168087A40420872FFE726
:1029500002B080BD80B584B0039000200290382082
:1029600000F038FA9DF80E0000F096FA9DF80D0080
:1029700000F092FA9DF80C0000F08EFA392000F079
:102980000BFA9DF80D00400600280DD5FFE700204A
:1029900000F084F900020290012000F07FF9014666
:1029A00002980843029016E00020019000F076F9AA
:1029B000014601980904029100F070F9014602985D
:1029C00040EA01200290012000F068F901460298D7
:1029D00008430290FFE700F015FA029804B080BDAA
:1029E00080B584B08DF80F0002918DF8072000208B
:1029F0000090ADF80400382000F0ECF99DF80F00CD
:102A000000F04AFA392000F0C7F90098ADF8040048
:102A1000FFE7BDF804009DF80710013988420EDA7F
:102A2000FFE7002000F03AF90299BDF8042088542D
:102A3000FFE7BDF804000130ADF80400E9E701202C
:102A400000F02CF90299BDF80420885400F0DAF95E
:102A500004B080BD80B582B08DF8070000208DF8ED
:102A600006008DF8050043F68620C2F20000807C47
:102A7000ADF8020001F0F6FEBDF8020040F2B2022D
:102A8000C2F20002CC2100FB01204078002800F0B7
:102A9000E080FFE79DF90700012853DBFFE70020F6
:102AA0008DF80600FFE79DF90600BDF8021040F220
:102AB000B203C2F20003CC2201FB02314978884202
:102AC0002FDAFFE7BDF8022040F2B201C2F20001A6
:102AD000CC2002FB00109DF9061000EB410080881D
:102AE00043F68621C2F2000101EB4201898A884245
:102AF00010DDFFE79DF80600BDF8021040F2B203BA
:102B0000C2F20003CC2201FB0231887001208DF853
:102B1000050006E0FFE79DF8060001308DF806008D
:102B2000C1E79DF8050060B9FFE7BDF8020040F27B
:102B3000B202C2F20002CC2100FB01210020887009
:102B4000FFE753E0BDF8020040F2B202C2F2000219
:102B5000CC2100FB0120407801388DF80600FFE70A
:102B60009DF9060000282FD4FFE7BDF8022040F2AF
:102B7000B201C2F20001CC2002FB00109DF9061048
:102B800000EB4100808843F68621C2F2000101EB90
:102B90004201898A884210DAFFE79DF80600BDF8F5
:102BA000021040F2B203C2F20003CC2201FB023158
:102BB000887001208DF8050006E0FFE79DF806000B
:102BC00001388DF80600CBE79DF8050068B9FFE7EE
:102BD000BDF8020040F2B202C2F20002CC2100FBBA
:102BE0000121487801388870FFE7FFE7BDF802202F
:102BF00040F2B201C2F20001CC2002FB0010817849
:102C000000EB4100808843F68621C2F2000101EB0F
:102C100042018882BDF8020068B9FFE7BDF80210E2
:102C200043F68620C2F2000000EB4100808A0421B6
:102C300003F0B4FC0CE0BDF8021043F68620C2F2AB
:102C4000000000EB4100808A012103F0A7FCFFE7B0
:102C5000FFE702B080BD0000FFE7FEE781B08DF81E
:102C6000030003208DF80200FFE79DF80300411EDA
:102C70008DF8031068B1FFE703208DF80200FFE72D
:102C80009DF80200411E8DF8021008B1FFE7F7E73A
:102C9000EBE701B0704700007047000080B584B0DA
:102CA0008DF80F0000208DF80E0040F61042C4F29F
:102CB0000102802111608DF80D00FFE79DF80D00E5
:102CC00007283CDCFFE79DF80E0040008DF80E0061
:102CD0000220FFF7C3FF40F61041C4F2010140207B
:102CE00008600120FFF7BAFFFFE740F60040C4F29A
:102CF000010040210BF022FA08B9FFE7F5E740F6A2
:102D00000040C4F2010080210BF018FA38B1FFE74F
:102D10009DF80E0040F001008DF80E00FFE7012045
:102D2000FFF79CFF40F61441C4F201014020086007
:102D3000FFE79DF80D0001308DF80D00BEE79DF80E
:102D40000F00C00738B1FFE740F61041C4F201019F
:102D50008020086006E040F61441C4F201018020A2
:102D60000860FFE702200190FFF778FF019840F626
:102D70001042C4F20102402102911160FFF76EFF80
:102D8000029840F61441C4F20101086080200860F6
:102D90009DF80E0004B080BD80B584B08DF80F00A2
:102DA00004200290FFF75AFF029840F61042C4F246
:102DB0000102019280211160FFF750FF019A0298F1
:102DC00040211160FFF74AFF9DF80F0000F002F864
:102DD00004B080BD80B582B08DF8070040F6144184
:102DE000C4F201010091802008600420FFF736FF43
:102DF0000099402008609DF8070000F04DF802B0EF
:102E000080BD000080B584B040F61441C4F20101D9
:102E100080200290086004200390FFF71FFF0398B2
:102E200040F61042C4F20102019240211160FFF706
:102E300015FF019A029903981160FFF70FFF04B084
:102E400080BD000080B584B08DF80F000291ADF810
:102E500006209DF80F0000F0FE00FFF7BBFF0020EA
:102E6000ADF80400FFE7BDF80400BDF80610884285
:102E70000DDAFFE70298BDF80410405C00F00CF892
:102E8000FFE7BDF804000130ADF80400EBE7FFF701
:102E9000B9FF04B080BD000080B586B08DF8170082
:102EA00080208DF81600FFE79DF8160090B3FFE72D
:102EB0000120FFF7D3FE9DF816009DF81710084279
:102EC00007D0FFE740F61041C4F2010180200860FE
:102ED00006E040F61441C4F2010180200860FFE7DB
:102EE0000120FFF7BBFE40F61041C4F20101402073
:102EF000049008600220FFF7B1FE049840F61441E8
:102F0000C4F201010860FFE79DF8160040088DF843
:102F10001600C9E701200090FFF7A0FE009840F6D8
:102F20001042C4F201020192802103911160FFF767
:102F300095FE039940F60040C4F201000BF0FEF844
:102F400001998DF815004020029008600220FFF7DB
:102F500085FE029A039840F61441C4F201010A600A
:102F600008609DF81500B0FA80F0400906B080BDF9
:102F700081B0ADF80000BDF80000092804DCFFE7CF
:102F800001208DF8030021E0BDF80000632804DC77
:102F9000FFE702208DF8030018E0BDF80000B0F54F
:102FA0007A7F04DAFFE703208DF803000EE0BDF816
:102FB000000042F20F71884204DCFFE704208DF824
:102FC000030003E005208DF80300FFE79DF80300F0
:102FD00001B0704780B582B08DF807008DF80610FB
:102FE0009DF8071040F22740C2F20000405C014605
:102FF000009140B1FFE7009801282DD0FFE700982D
:10300000022865D073E09DF8071040F22140C2F21B
:103010000000405C022811DBFFE79DF8072040F22A
:103020002141C2F20001002088549DF8072043F29C
:103030007441C2F2000101208854FFE79DF80600A8
:1030400048B9FFE79DF8072040F22741C2F200018E
:1030500001208854FFE74BE00DF07AFF9DF8060051
:1030600050B9FFE79DF8072040F22141C2F200016C
:10307000885C0130885408E09DF8072040F2274121
:10308000C2F2000100208854FFE79DF8071040F2CB
:103090002140C2F20000405C642818DBFFE79DF885
:1030A000072040F22741C2F20001022088549DF817
:1030B000073040F22142C2F200020021D1549DF8B3
:1030C000072043F27441C2F200018854FFE70FE089
:1030D0009DF80600012809D1FFE79DF8072040F27E
:1030E0002741C2F2000100208854FFE700E0FFE71B
:1030F00002B080BD80B58EB000F094F841F20000BF
:10310000C4F201000390802104910AF031FF642091
:103110000B9008F03FFD039804990AF031FF0B98DB
:1031200008F038FD3020069000210D910CF01AFBBC
:103130000D9994200CF016FB0D9931200CF012FB28
:10314000D72001210C919F2208920CF00BFB0C9BC5
:103150000D9A6846032107910160322005900CF01A
:1031600001FB059807996A461060F2201E22282369
:103170000CF0F8FA68460D2343600360F0200990D4
:1031800004211A460CF0EEFA06980D990CF0EAFAB2
:103190000D9908460CF074F90C990D9ABC200CF0AE
:1031A000E1FA0799089B0D9AEC460A20CCF800003A
:1031B000CA200CF0D7FA09980C9911220CF0D2FA17
:1031C0000C9920200B220CF0CDFA43F61020C2F20D
:1031D00000000A90C088FEF715F90A9948788978A6
:1031E000FEF772F90A98C07800F00100FEF7A4F922
:1031F0000D98FEF72DFB0D99684601604FF4807223
:1032000060230846FEF728F90B9808F00FFD0C988C
:10321000FEF7ACF90D9808F05DFA052008F0BAFC4D
:103220000EB080BD80B58CB040F203600DF042FE60
:103230004FF4C0600DF03EFE40F20E700DF03AFE0D
:103240000A2008F0F3FC40F61040C4F201004FF4ED
:10325000A043036040F60040C4F201000190102139
:10326000032202920AF0A8FE0198029A18214FF454
:1032700020430AF0A1FE05A8039010F027F943F6B9
:103280000000C4F20000049010F08CF8029B039937
:1032900004984FF4404206924FF482720592002245
:1032A00007920A934FF4007308930B92099210F05F
:1032B000C9F8049810F000F904984FF4804110F018
:1032C00029F8049810F052F80CB080BD82B08DF847
:1032D000070043F6D221C2F20001FF20088043F626
:1032E000D621C2F200015F20088043F6D021C2F24D
:1032F00000010020088043F6D421C2F200010880BA
:103300009DF80700C007C0B1FFE743F61021C2F2E5
:103310000001009105208880888800EB8000400033
:1033200088601420087040F20912CA8010224A7086
:1033300088700020C8700873FFE702B07047000073
:10334000FFE7FEE780B50020012103F009FAFFE75F
:1033500043F27440C2F20000007818B1FFE70AF0AF
:1033600049FB02E006F07AFCF2E780BD00000000B5
:1033700070B5A0B000201F904FF400311E911D9039
:1033800040F20311C0F209311C918DF86F008DF8E5
:103390006E008DF86D009DF96F009DF96D109DF91F
:1033A0006E20012303F016FAFFE743F27440C2F2E5
:1033B00000004078F0B1FFE743F27441C2F200012F
:1033C000002048709DF96F0008B9FFE7EDE79DF810
:1033D0006F0001388DF86F0000238DF86E308DF886
:1033E0006D309DF96F009DF96D109DF96E2003F011
:1033F000F1F9FFE743F27440C2F200008078F8B1BF
:10340000FFE743F27441C2F20001002088709DF989
:103410006F00072801D1FFE7C7E79DF86F00013073
:103420008DF86F0000238DF86E308DF86D309DF9AA
:103430006F009DF96D109DF96E2003F0CBF9FFE749
:1034400043F27440C2F200000079E8B1FFE743F2B2
:103450007441C2F2000100201A9008719DF96F209A
:103460001EA9895601399DF96E2001230AF040FFFB
:103470001A9B8DF86E009DF96F009DF96D109DF9F6
:103480006E2003F0A7F9FFE743F2E970C2F20000F3
:1034900090F90000002800F04882FFE79DF96F00D6
:1034A00001461991072800F22F821999DFE811F0DF
:1034B00008009400D2006401010202020302040227
:1034C0009DF96D000146189140B1FFE71898012859
:1034D0002DD0FFE71898022853D07CE043F6200057
:1034E000C2F20000179090ED000A43F2E970C2F2B8
:1034F000000090F9000001EE100AB8EEC11A30EE9B
:10350000010ABDEEC00A10EE102A6FF02F0018213C
:103510000AF0D2FE0146179800EE101AB8EEC00A63
:1035200080ED000A90ED000A0EF0EAFF53E043F64A
:103530002000C2F20000169090ED030A43F2E970F9
:10354000C2F2000090F9000001EE100AB8EEC11AB4
:1035500030EE010ABDEEC00A10EE102A6FF02F0007
:1035600000210AF0A9FE0146169800EE101AB8EEE6
:10357000C00A80ED030A90ED030A4C200EF0CCFB4C
:1035800029E043F62000C2F20000159090ED040AF5
:1035900043F2E970C2F2000090F9000001EE100A57
:1035A000B8EEC11A30EE010ABDEEC00A10EE102AC4
:1035B0006FF02F0000210AF07FFE0146159800EE03
:1035C000101AB8EEC00A80ED040A90ED040A5220E9
:1035D0000EF0A2FBFFE797E143F62000C2F20000E5
:1035E00014904069FDF71DF841EC100B8DED120BA6
:1035F00043F2E970C2F2000090F90000FCF7E1FF2D
:1036000041EC100B9FEDE41B53EC112B51EC100B14
:10361000FCF7A5FE9DED120B41EC110B51EC110BCB
:1036200053EC102BFCF7F4FD41EC100B51EC100B9C
:10363000FDF70AF801EE100AB0EE0C0ADFEDD90A28
:103640000AF010FE149880ED050A90ED050A0EF0C0
:10365000CFFB59E19DF96E000146119120B1FFE7C2
:103660001198012831D076E09DF96D0000EB400102
:1036700043F63800C2F20000109000EB810090ED9C
:10368000010A43F2E970C2F2000090F9000001EE75
:10369000100AB8EEC11A30EE010ABDEEC00A10EEF3
:1036A000102A6FF00B000C210AF006FE014610985C
:1036B00000EE101AB8EEC00A9DF96D1001EB410141
:1036C00000EB810080ED010A45E09DF96D0000EB03
:1036D000400143F63800C2F200000F9000EB810079
:1036E0008068FCF79EFF41EC100B8DED0C0B43F254
:1036F000E970C2F2000090F90000FCF762FF41ECB3
:10370000100B9FEDA31B53EC112B51EC100BFCF78E
:1037100026FE9DED0C0B53EC102B41EC100B51ECE5
:10372000100BFCF775FD41EC100B51EC100BFCF786
:103730008BFF01EE100A9FED9A0AF2EE040A0AF0DE
:1037400091FD0F989DF96D1001EB410100EB810097
:1037500080ED020AFFE79DF96D0000EB400143F6A2
:103760003800C2F2000000EB810250F821005168DD
:1037700092680EF049FCC7E09DF96D0001460B917F
:1037800040B1FFE70B98012829D0FFE70B980228EA
:103790004AD06EE043F6F410C2F200000A9090EDB9
:1037A000010A43F2E970C2F2000090F9000001EE54
:1037B000100AB8EEC11A30EE010ABDEEC00A10EED2
:1037C000102A6FF00B000C210AF076FD01460A98D2
:1037D00000EE101AB8EEC00A80ED010A49E043F687
:1037E000F410C2F20000099090ED040A43F2E9706F
:1037F000C2F2000090F9000001EE100AB8EEC11A02
:1038000030EE010ABDEEC00A10EE102A6FF00B0078
:103810000C210AF051FD0146099800EE101AB8EE8D
:10382000C00A80ED040A24E043F6F410C2F200005E
:10383000089090ED060A43F2E970C2F2000090F998
:10384000000001EE100AB8EEC11A30EE010ABDEE1A
:10385000C00A10EE102A6FF00B000C210AF02CFDAC
:103860000146089800EE101AB8EEC00A80ED060A6C
:10387000FFE79DF86D6043F6F41EC2F2000EDEF81D
:103880000000DEF80410DEF80820DEF80C30DEF868
:1038900010C0DEF81440DEF81850EE46CEF80C608A
:1038A000CEF80850CEF80440CEF800C00EF09CFFD1
:1038B0002AE029E028E027E043F6C010C2F2000029
:1038C000079090ED010A43F2E970C2F2000090F90E
:1038D000000001EE100AB8EEC11A30EE010ABDEE8A
:1038E000C00A10EE102A002018210AF0E5FC01465B
:1038F000079800EE101AB8EEC00A80ED010A90EDAC
:10390000010A0FF0E9FBFFE79DF96F009DF96D10CB
:103910009DF96E200023069302F05CFF069843F2A7
:10392000E971C2F200010870FFE743F27440C2F28D
:103930000000C078E8B1FFE743F27441C2F2000131
:1039400000200590C8709DF96F201CA98956013987
:103950009DF96D2001230AF0CBFC059B8DF86D00CD
:103960009DF96F009DF96D109DF96E2002F032FFF8
:10397000FFE743F27440C2F20000007818B1FFE79D
:103980000AF038F802E006F069F90EE520B070BDE3
:103990009A9999999999B93F000000000000E03F79
:1039A000CDCCCC3D0000C84280B592B000208DF84F
:1039B00043000DF13E018A1C40F2EC30C2F20000DF
:1039C00008901030FEF7E0FEE2200DF12B01099186
:1039D0001322FFF705F80899DDF82B0000BAC8613B
:1039E0004BF67150C0F6010010F08AFB4BF63970AF
:1039F000C0F6010010F084FB0898016942698369F0
:103A00004CF23C00C0F6010010F07AFBBDF83E100D
:103A1000BDF840204CF21B00C0F6010010F070FB16
:103A20004BF65170C0F6010010F06AFB089841682F
:103A30008268C3684BF66170C0F6010010F060FB4D
:103A40004BF61C70C0F6010010F05AFB9DF82B10CD
:103A50009DF82C20BDF82D0043BA4BF6B450C0F6AB
:103A6000010010F04DFB9DF82F109DF830009DF8DF
:103A700031C001F00F01020900F00F034FEA1C10E2
:103A80000CF00F0EEC46CCF804E0CCF800004BF63E
:103A9000C770C0F6010010F033FB9DF832109DF89E
:103AA00033009DF834C001F00F01020900F00F034C
:103AB0004FEA1C100CF00F0EEC46CCF804E0CCF8EA
:103AC00000004BF6E370C0F6010010F019FB9DF802
:103AD00035109DF836009DF837C001F00F0102093E
:103AE00000F00F034FEA1C100CF00F0EEC46CCF860
:103AF00004E0CCF800004BF6FF70C0F6010010F0B7
:103B0000FFFA9DF839209DF83A00110902F00F02E2
:103B100003094BF69770C0F6010010F0F1FA9DF81A
:103B20003C209DF83D00110902F00F0203094BF6FD
:103B3000AF70C0F6010010F0E3FA0999E6200F22F9
:103B4000FEF74EFF9DF82B109DF82C309DF82D00B0
:103B50001A0903F00F03EC46CCF800004BF6CD50E9
:103B6000C0F6010010F0CCFA9DF82E109DF82F3011
:103B70009DF830001A0903F00F03EC46CCF8000062
:103B80004BF65360C0F6010010F0BAFA9DF8311000
:103B90009DF832309DF833001A0903F00F03EC460C
:103BA000CCF800004BF6D960C0F6010010F0A8FA7E
:103BB0009DF834109DF835309DF836001A0903F051
:103BC0000F03EC46CCF800004BF61060C0F6010085
:103BD00010F096FA9DF837109DF838309DF83900AE
:103BE0001A0903F00F03EC46CCF800004BF6966080
:103BF000C0F6010010F084FA4CF24E00C0F601004D
:103C000010F07EFA9DF94300012103F0DFF8FFE791
:103C100043F27440C2F200004078B0B1FFE743F2D3
:103C20007441C2F20001002048709DF9430008B9B8
:103C3000FFE7EDE79DF8430001388DF843009DF95B
:103C40004300002103F0C2F8FFE743F27440C2F2E0
:103C500000008078B8B1FFE743F27441C2F200017E
:103C6000002088709DF94300042801D1FFE7CFE7C9
:103C70009DF8430001308DF843009DF94300002179
:103C800003F0A4F8FFE743F27440C2F20000C078EA
:103C9000002800F09A80FFE79DF943000146079154
:103CA000042800F281800799DFE801F0030F1B2749
:103CB000280040F2EC31C2F2000191F82F00B0FA76
:103CC00080F0400981F82F0072E043F68621C2F2AD
:103CD000000191F82000B0FA80F0400981F820003E
:103CE00066E040F2EC31C2F2000191F83000B0FA27
:103CF00080F0400981F830005AE059E043F2744105
:103D0000C2F200010020C8706946C86003208860C4
:103D100040F22000C2F2000048604CF2E700C0F61A
:103D20000100086008201821F8226023FEF726FC15
:103D3000FFE743F27440C2F20000C078022822D1AB
:103D4000FFE740F60040C4F201004FF480710AF032
:103D500017F94FF47A70069007F01CFF069807F0E9
:103D600019FF069807F016FF069807F013FF06984C
:103D700007F010FF72B601201190119880F313889C
:103D800000F022FDFFE743F27440C2F20000007829
:103D900018B1FFE709F02EFE00E0CAE79DF94300E5
:103DA000012103F013F803E000208DF84300FFE742
:103DB0009DF943000021059103F008F8059843F2AE
:103DC0007441C2F20001C870FFE743F2E970C2F229
:103DD000000090F9000018B1FFE709F00BFEFFE7C3
:103DE00043F27440C2F20000007818B1FFE709F016
:103DF00001FE02E005F032FF0AE712B080BD0000CC
:103E000080B588B043F25F40C2F20000012101702A
:103E100000208DF81F009DF91F0003F0D1F90BF071
:103E20006BFBFFE743F27440C2F200004078C0B180
:103E3000FFE743F27441C2F20001002048709DF98F
:103E40001F0008B9FFE7EDE79DF81F0001388DF866
:103E50001F009DF91F00002103F0B2F90BF04CFB8D
:103E6000FFE743F27440C2F200008078C8B1FFE778
:103E700043F27441C2F20001002088709DF91F00D6
:103E8000062801D1FFE7CDE79DF81F0001308DF82E
:103E90001F009DF91F00002103F092F90BF02CFB8D
:103EA000FFE743F2E970C2F2000090F90000002839
:103EB00000F0A580FFE79DF91F0001460691062846
:103EC00000F28A800699DFE801F0041E3A53545547
:103ED0006E0043F61020C2F20000059090F9000039
:103EE00043F2E971C2F2000191F90010421800207A
:103EF00064210AF0E1F9014605980170017801207A
:103F0000FDF796F96CE043F61020C2F20000049031
:103F1000B0F9040043F2E971C2F2000191F9001016
:103F200001EB8101421800203C210AF0C5F90499F7
:103F30008880888800EB80004000886050E043F66D
:103F40001020C2F200000390C08843F2E971C2F26F
:103F5000000191F90010421855204FF4B4710AF095
:103F6000ABF901460398C180C088FDF74BFA37E0F2
:103F700036E035E043F61020C2F20000029081786E
:103F800090F9010043F2E972C2F2000292F90020B6
:103F9000024400200AF090F9029948704878897824
:103FA000FDF792FA1CE043F61021C2F200010191E4
:103FB000487891F9021043F2E972C2F2000292F9D4
:103FC00000200A441F210AF077F901998870487887
:103FD0008978FDF779FA03E000208DF81F00FFE7EC
:103FE0009DF91F000021009103F0EAF80BF084FA1C
:103FF000009843F2E971C2F200010870FFE743F252
:104000007440C2F20000C078B0B3FFE79DF91F0012
:10401000032815D1FFE743F61020C2F20000C27852
:1040200001219143C170C07800F00100FDF784FACE
:104030009DF91F00002103F0C3F80BF05DFAFFE7C4
:104040009DF91F00042810D1FFE743F61021C2F2AA
:1040500000010A7B0120904308739DF91F00002195
:1040600003F0AEF80BF048FAFFE743F27441C2F2F6
:1040700000010020C870FFE743F27440C2F2000064
:10408000007848B1FFE709F0B5FC43F25F41C2F2A6
:1040900000010020087002E005F0E0FDC2E608B073
:1040A00080BD000080B582B000208DF807009DF92A
:1040B0000700012105F040F8FFE743F27440C2F227
:1040C00000004078B0B1FFE743F27441C2F2000152
:1040D000002048709DF9070008B9FFE7EDE79DF85B
:1040E000070001388DF807009DF90700002105F051
:1040F00023F8FFE743F27440C2F200008078B8B1C1
:10410000FFE743F27441C2F20001002088709DF97C
:104110000700052801D1FFE7CFE79DF80700013030
:104120008DF807009DF90700002105F005F8FFE76D
:1041300043F27440C2F20000C078002839D0FFE793
:1041400009F058FC9DF9070001460091052826D882
:104150000099DFE801F003090F151B21FFF750FE5E
:1041600002200DF089FC1EE0FFF702F903200DF09C
:1041700083FC18E000F030F801200DF07DFC12E027
:1041800000F01EFA01200DF077FC0CE0FFF70CFCAC
:1041900000200DF071FC06E0FFF7D4F803E00020EA
:1041A0008DF80700FFE79DF90700012104F0C4FF27
:1041B000FFE743F27440C2F20000007830B1FFE73D
:1041C00009F018FC012003F041FF02E005F046FD74
:1041D00073E702B080BD000080B58EB000208DF87E
:1041E000370043F68620C2F2000090F82000002835
:1041F00018BF01208DF835009DF93700012105F029
:10420000D7F8FFE743F27440C2F200004078B0B143
:10421000FFE743F27441C2F20001002048709DF9AB
:10422000370008B9FFE7EDE79DF8370001388DF852
:1042300037009DF93700002105F0BAF8FFE743F297
:104240007440C2F200008078B8B1FFE743F27441D5
:10425000C2F20001002088709DF937000B2801D1BF
:10426000FFE7CFE79DF8370001308DF837009DF963
:104270003700002105F09CF8FFE743F27440C2F2DA
:104280000000C078002800F09D80FFE79DF937000E
:1042900001460C910B2800F284800C99DFE801F0B4
:1042A00006074344455667727D7E7F807DE09DF81A
:1042B0003500C007B0B3FFE743F68620C2F2000026
:1042C0000B9090F828100120884301F0B3F90B9867
:1042D00090F82800C00748B1FFE741F20000C4F29F
:1042E00001004FF4006109F04BFE1AE043F686200E
:1042F000C2F2000090F8270090B9FFE743F686204D
:10430000C2F2000090F82800C00748B9FFE741F268
:104310000000C4F201004FF4006109F029FEFFE73C
:10432000FFE7FFE741E040E03FE09DF83500C007D0
:1043300058B1FFE743F68620C2F2000090F82C1037
:104340000120884301F010F9FFE72EE09DF83500C9
:10435000C00758B1FFE743F68620C2F2000090F88C
:1043600029100120884301F0BBF8FFE71DE043F668
:104370008620C2F2000090F82A100120884301F044
:1043800045F912E043F68620C2F2000090F82B10A7
:104390000120884301F0C2F807E006E005E004E0F0
:1043A00003E000208DF83700FFE79DF9370000217A
:1043B0000A9104F0FDFF0A9843F27441C2F2000131
:1043C000C870FFE743F2E970C2F2000090F9000004
:1043D000002800F0E580FFE79DF9370001460991CC
:1043E0000B2800F2CC800999DFE801F0064E4F6BF4
:1043F000868788898AA9C7C843F68620C2F200004A
:10440000089090F8270043F2E971C2F2000191F997
:10441000001042180020012109F04EFF01460898C3
:1044200080F8271090F82700012809D1FFE741F212
:104430000000C4F201004FF4006109F0A1FD1AE090
:1044400043F68620C2F2000090F8270090B9FFE7FB
:1044500043F68620C2F2000090F82800C00748B951
:10446000FFE741F20000C4F201004FF4006109F0DF
:104470007FFDFFE7FFE743F68620C2F2000090F8D9
:10448000270001F015F87EE07DE043F68620C2F2B9
:104490000000079090F8320043F2E971C2F2000187
:1044A00091F9001042180020032109F005FF079937
:1044B00081F8320091F8320081F8330001F004FAFB
:1044C00061E043F68620C2F20000069090F83100C9
:1044D00043F2E971C2F2000191F900104218012083
:1044E000022109F0E9FE0146069880F8311090F8A3
:1044F000310001F027F846E045E044E043E042E0C7
:1045000043F68620C2F200000590C17C2D30049055
:10451000405C43F2E971C2F2000191F900104218C7
:104520000020032109F0C8FE049902460598C37CC7
:10453000CA54C07C0A5C114601F0DEF823E043F661
:104540008620C2F200000290C17C34300390405CAF
:1045500043F2E971C2F2000191F900104218002003
:10456000042109F0A9FE029902460398CB7CC254AB
:10457000C97C405C01F0FCF905E004E003E00020A8
:104580008DF83700FFE79DF937000021019104F015
:104590000FFF019843F2E971C2F200010870FFE7D2
:1045A00043F27440C2F20000007818B1FFE709F04E
:1045B00021FA02E005F052FB24E60EB080BD0000B7
:1045C00080B58AB000208DF827009DF927000121D1
:1045D00005F0B6F9FFE743F27440C2F200004078FC
:1045E000B0B1FFE743F27441C2F20001002048700D
:1045F0009DF9270008B9FFE7EDE79DF8270001388E
:104600008DF827009DF92700002105F099F9FFE7B3
:1046100043F27440C2F200008078B8B1FFE743F281
:104620007441C2F20001002088709DF9270005281E
:1046300001D1FFE7CFE79DF8270001308DF8270073
:104640009DF92700002105F07BF9FFE743F2744054
:10465000C2F20000C07828B3FFE79DF927000146A9
:10466000089105280DD80899DFE801F00304050634
:1046700007080AE009E008E007E006E000F0E6FBD2
:1046800003E000208DF82700FFE79DF927000021B7
:10469000079105F055F9079843F27441C2F2000101
:1046A000C870FFE743F2E970C2F2000090F9000021
:1046B000002800F07880FFE79DF927000146069169
:1046C00005285FD80699DFE801F003172B3F5B5CF4
:1046D00043F68620C2F200000590C07B43F2E971E8
:1046E000C2F2000191F9001042180020032109F0E4
:1046F000E3FD0599C87349E043F68620C2F2000045
:104700000490407B43F2E971C2F2000191F900107C
:1047100042180020012109F0CFFD0499487335E0CB
:1047200043F68620C2F200000390807B43F2E971D9
:10473000C2F2000191F90010421805203C2109F055
:10474000BBFD0399887321E043F68620C2F2000086
:10475000029090F9100043F2E971C2F2000191F960
:104760000010421809200A2109F0A6FD014602980E
:104770000174007C40F2AE01C2F20001887005E0D5
:1047800004E003E000208DF82700FFE79DF92700F3
:104790000021019105F0D4F8019843F2E971C2F2C9
:1047A00000010870FFE743F27440C2F20000007895
:1047B00018B1FFE709F01EF902E005F04FFA0AE729
:1047C0000AB080BD70470000BFF34F8F4EF60C510A
:1047D000CEF20001086800F4E0600422C0F2FA5250
:1047E00010430860BFF34F8FFFE7FEE770470000FC
:1047F00080B584B00390039943F61C00C2F2000018
:1048000001900160026800210291518043F6060286
:10481000C2F20002118000680430092120220092B7
:10482000FCF7DAFE009A019800680D300821FCF7C9
:10483000D3FE009A019802990368597500681630F2
:104840004021FCF7C9FE019902980A6882F85600D7
:104850000A6882F858000A6882F8590009680870E6
:1048600004B080BD80B584B043F61C00C2F20000E5
:104870000290026800210391518043F60602C2F2C1
:104880000002118000680430092120220192FCF707
:10489000A3FE019A029800680D300821FCF79CFEE7
:1048A000019A0298039903685975006816304021EF
:1048B000FCF792FE029903980A6882F8560009688C
:1048C000087004B080BD000081B08DF803009DF831
:1048D0000300002848D1FFE740F2EC30C2F20000AC
:1048E00090F82010013180F8201090F820003C282A
:1048F0000DD1FFE740F2EC31C2F20001002081F857
:10490000200091F82100013081F82100FFE740F2FA
:10491000EC30C2F2000090F821003C280DD1FFE7F6
:1049200040F2EC31C2F20001002081F8210091F840
:104930002200013081F82200FFE740F2EC30C2F2A1
:10494000000090F8220018280DD1FFE740F2EC316A
:10495000C2F20001002081F8220091F8230001300A
:1049600081F82300FFE7FFE79DF80300012811D13C
:10497000FFE743F68620C2F2000090F820000128ED
:1049800007D1FFE743F25C41C2F200010120087049
:10499000FFE7FFE701B0704780B582B001200CF05F
:1049A0006FFF38B1FFE701200CF05EFF0020FFF73A
:1049B0008BFF17E002200CF063FF90B1FFE70220AD
:1049C0000CF052FF0CF08EFF0CF072FF019001987A
:1049D00042F2D87108440CF0BDFF0120FFF774FFCC
:1049E000FFE7FFE702B080BD80B582B040F21B70E8
:1049F0000CF060FA40F21C700CF05CFA0BF096FFC1
:104A000006F044FA4FF4006001900CF01FF9019891
:104A10000CF030F94FF480700CF088FA40F60F007B
:104A20000CF048FA0CF082FF0CF05CFF01200CF057
:104A30004DFF0CF057FF47F6FF700CF05FFF0CF0D6
:104A400051FF00200CF0A2FF42F2D8700CF082FF60
:104A500002B080BD80B586B004900020ADF80E0095
:104A60000498FCF78FFB012830D1FFE7049806215A
:104A7000FCF772FB8DF80C00049802210091FCF702
:104A80006BFB00998DF80D0003A80190FCF7CCFD9D
:104A9000014601988DF80B109DF80B10405C002822
:104AA0000FDCFFE79DF80B0028B9FFE7049840886A
:104AB000ADF80E0004E00498C088ADF80E00FFE7E2
:104AC00003E00020ADF8160031E010E00498062164
:104AD000FCF742FB002805DCFFE704984088ADF8AE
:104AE0000E0003E00020ADF8160020E0FFE7BDF85F
:104AF0000E0043F60601C2F200010988884211D077
:104B0000FFE7BDF80E0043F60601C2F2000108807F
:104B100043F61C00C2F200000168087840F0010072
:104B20000870FFE7BDF80E00ADF81600FFE7BDF80E
:104B3000160006B080BD000080B582B00190002153
:104B40008DF803100198808800F003008DF80300B1
:104B50000198FCF701FB002818DCFFE70198417A77
:104B600043F61C00C2F2000002689DF8033002EB1D
:104B7000430251730199098902689DF8033002EBE1
:104B800043029173016800204875FFE700208DF80B
:104B90000200FFE79DF8020007282CDCFFE743F640
:104BA0001C00C2F2000000689DF802201044407B07
:104BB00043F23041C2F20001895C884214D0FFE721
:104BC00043F61C00C2F200000268117841F00401B3
:104BD000117000689DF802201044407B43F2304180
:104BE000C2F200018854FFE7FFE79DF802000130A0
:104BF0008DF80200CEE702B080BD000080B584B021
:104C0000039000208DF80B000398808800F00F00BF
:104C10008DF80B0003988088C0F3001043F61C0148
:104C2000C2F200010A6882F8570043F23840C2F22B
:104C300000000078096891F85710884223D0FFE7F8
:104C400043F61C00C2F200000190006816304021BB
:104C50002022FCF7C1FC01980268002182F856105E
:104C600003681A7802F0F7021A7043F22E42C2F279
:104C700000021180006890F8570043F23841C2F2F8
:104C800000010870FFE70398FCF77CFA00285DD16B
:104C9000FFE703980221FCF75FFA002838DCFFE702
:104CA00003980021FCF758FA002831DCFFE703984D
:104CB000C07943F61C01C2F200010A689DF80B306E
:104CC00002EB830290750398C0880A689DF80B3048
:104CD00002EB8302D0750398407A0A689DF80B3086
:104CE00002EB830210760398008909689DF80B2077
:104CF00001EB820148769DF80B10012000FA01F2C9
:104D000043F22E41C2F20001088810430880FFE7F9
:104D100043F22E40C2F2000000884FF6FF71884235
:104D200013D1FFE743F61C00C2F2000002681178BD
:104D300041F0080111700168002081F8560043F22B
:104D40002E41C2F200010880FFE745E003980021F0
:104D5000FCF702FA002821DCFFE70398407A43F6CB
:104D60001C01C2F200010A689DF80B3002EB4302FD
:104D700090750398008909689DF80B2001EB4201AA
:104D8000C8759DF80B10012000FA01F243F22E4184
:104D9000C2F20001088810430880FFE743F22E406A
:104DA000C2F2000000884FF6FF71884213D1FFE77E
:104DB00043F61C00C2F200000268117841F00801BD
:104DC00011700168002081F8360043F22E41C2F2D2
:104DD00000010880FFE7FFE704B080BD70470000D6
:104DE00080B54FF440700BF093FD0EF053FC40F291
:104DF00002600CF05FF840F203600CF05BF840F2E8
:104E000004600CF057F840F205600CF053F84FF4D2
:104E1000C0600CF04FF840F204700CF04BF840F218
:104E200005700CF047F840F209600CF043F80720D9
:104E30000BF086FD40F21D700CF03CF840F20E6065
:104E40000CF038F8052006F0A5FE80BD80B58EB0C8
:104E5000002005908DF834000C908DF82F00ADF8EF
:104E60002C00ADF82A00ADF8280043F68621C2F2E6
:104E7000000106910A4612F8123FADF82630BDF83F
:104E8000263002EB43025288ADF82420CA7C11443C
:104E900091F821108DF82310ADF820008DF81F0037
:104EA00043F26041C2F200010120087000F0FAFBF9
:104EB00005990698BDF8262040F2B20CC2F2000C0B
:104EC000CC2302FB03C25170C07C20B9FFE7032052
:104ED00000F0CEFB03E0062000F0CAFBFFE7BDF8C0
:104EE00026004BF63E41C0F6010131F810204BF68A
:104EF0003641C0F6010131F8101040F2B20CC2F296
:104F0000000CCC2300FB03C04378EC460120CCF816
:104F100000001046FDF7B6FA43F68620C2F2000004
:104F2000807C032840F0C880FFE743F68620C2F269
:104F30000000407B002800F0BF80FFE700208DF8D4
:104F40002F00FFE79DF82F000D2800F3B480FFE746
:104F50009DF82F104BF65E40C0F6010030F821009E
:104F6000ADF820000020ADF82C00FFE7BDF82C00C4
:104F70009DF82F304BF65E42C0F6010202EB830132
:104F8000498832F82320891ABDF8263040F2AE0253
:104F9000C2F20002D25C91FBF2F188426DDAFFE7C7
:104FA000BDF82000022101F0F9FA0AF019F88DF895
:104FB0001F009DF81F00C007D8B1FFE7BDF8200013
:104FC000BDF8263040F2B202C2F20002CC2103FB4F
:104FD000012393F801C003EB4C039880BDF8260031
:104FE00000FB012148780130487000208DF81F0037
:104FF000FFE74BF65E41C0F601010888C98EBDF897
:105000002020BDF8263040F2B20EC2F2000E4FF062
:10501000CC0C03FB0CE35B78EE464FF0000CCEF8B3
:1050200000C0FDF72FFABDF82000BDF8262040F2A1
:10503000AE01C2F20001895C0844ADF8200043F2E1
:105040007440C2F20000007878B9FFE7BDF826206E
:1050500040F2B201C2F20001CC2302FB03105A431A
:105060004078895C884201D1FFE706E0FFE7BDF8A0
:105070002C000130ADF82C0078E743F27440C2F206
:105080000000007878B9FFE7BDF8262040F2B201B1
:10509000C2F20001CC2302FB03105A434078895C22
:1050A000884201D1FFE706E0FFE79DF82F000130BD
:1050B0008DF82F0046E7D0E0BDF82600A0B9FFE745
:1050C00043F68621C2F20001CA7B4BF64E40C0F681
:1050D000010030F82220ADF82A20C97B00EB8100C6
:1050E0004088ADF828002BE0BDF82600022811D139
:1050F000FFE740F2AE00C2F2000080780A2809D132
:10510000FFE740F21220ADF82A0040F2AE60ADF8A1
:10511000280014E0BDF826104BF63E40C0F6010012
:1051200030F81100ADF82A00BDF826104BF63640D5
:10513000C0F6010030F81100ADF82800FFE7FFE7E6
:10514000BDF82A00ADF820000020ADF82C00FFE7E4
:10515000BDF82C00BDF82810BDF82A20891ABDF82A
:10516000263040F2AE02C2F20002D25C91FBF2F1B4
:10517000884271DAFFE7BDF82000022101F00EFA43
:1051800009F02EFF8DF81F009DF81F00C007D8B151
:10519000FFE7BDF82000BDF8263040F2B202C2F2AF
:1051A0000002CC2103FB012393F801C003EB4C0365
:1051B0009880BDF8260000FB012148780130487036
:1051C00000208DF81F00FFE7BDF82A00BDF8281069
:1051D000BDF82020BDF8263040F2B20EC2F2000E1B
:1051E0004FF0CC0C03FB0CE35B78EE464FF0000C69
:1051F000CEF800C0FDF746F9BDF82000BDF8262026
:1052000040F2AE01C2F20001895C0844ADF8200012
:1052100043F27440C2F20000007878B9FFE7BDF8AD
:10522000262040F2B201C2F20001CC2302FB03109F
:105230005A434078895C884207D1FFE743F27441C2
:10524000C2F200010020087006E0FFE7BDF82C0064
:105250000130ADF82C007BE7FFE7BDF8260040F2F7
:10526000B202C2F20002CC2100FB01210020049016
:1052700088709DF8230000F0FBF9BDF8240001219F
:1052800001F08CF9049800F00DFA049843F26041A3
:10529000C2F20001087043F27440C2F200000078CC
:1052A000B8B1FFE769460320C8600020886040F27B
:1052B0000800C2F2000048604CF29D00C0F60100F8
:1052C0000860622036214FF0FF331A46FDF756F989
:1052D00016E069460320C8600020886040F208009C
:1052E000C2F2000048604CF29800C0F6010008606D
:1052F000622036214FF0FF331A46FDF73FF9FFE7F2
:105300009DF826000CF08EFB08F074FB0EB080BDFB
:1053100080B58AB08DF8270043F26041C2F20001E7
:1053200001200690087000208DF8260043F68620A4
:10533000C2F200000790014611F8122F01EB420162
:105340004988ADF82410BDF82410ADF82210C17CB6
:10535000084490F821008DF82100FFF783FA0698A1
:1053600000F0A0F90798C07C20B9FFE7032000F007
:105370007FF903E0062000F07BF9FFE7FFE79DF8E7
:105380002600C007002878D1FFE743F2E970C2F297
:10539000000090F90000F0B1FFE743F2E971C2F2BA
:1053A00000010020059008709DF8210000F060F9D0
:1053B000BDF822000121049101F0F0F8049802F0F8
:1053C00045FE059800F06EF9059843F26041C2F27F
:1053D0000001087069E0BDF822309DF9270043F60E
:1053E0008621C2F2000191F812C040F2AE02C2F270
:1053F000000212F80C2010FB0230ADF82200BDF8BC
:1054000022008A7C4BF63641C0F6010131F91210B8
:10541000884210DCFFE7BDF8220043F68621C2F285
:1054200000018A7C4BF63E41C0F6010131F91210B1
:10543000884218DAFFE79DF8210000F019F9BDF85D
:1054400024000121029101F0A9F8029802F0FEFD6A
:105450000020039000F026F9039843F26041C2F265
:105460000001087021E0BDF82200022101F096F849
:1054700009F0B6FD8DF8260081E79DF8210000F0C7
:10548000F7F8BDF822000121009101F087F800989B
:1054900002F0DCFD0020019000F004F9019843F2D5
:1054A0006041C2F200010870FFE70AB080BD000051
:1054B00080B582B08DF807009DF80700022801DB57
:1054C000FFE70BE09DF8070043F6C021C2F20001A0
:1054D000096881F8270000F01DFBFFE702B080BDDE
:1054E00080B582B08DF8070043F6C020C2F20000FC
:1054F000006890F8200008B9FFE70DE09DF807006C
:1055000043F6C021C2F20001096800F0010081F8F1
:10551000290000F041F9FFE702B080BD80B582B0FC
:105520008DF807009DF8070043F6C021C2F2000184
:10553000096800F0010081F82B0000F02DF902B09D
:1055400080BD000080B582B08DF807009DF807008F
:1055500043F6C021C2F20001096881F8310000F071
:10556000B3F902B080BD000080B586B08DF8170099
:1055700043F6C020C2F20000006890F8200008B98D
:10558000FFE740E09DF8170043F6C021C2F200019A
:10559000096800F0010081F82C009DF81700C00791
:1055A000B8B1FFE70220039019210022049200F015
:1055B00053FC0398049A792100F04EFC0398049A56
:1055C0001D2100F049FC0398049A7D2100F044FC61
:1055D00016E00220019019213F22029200F03CFCCB
:1055E0000198029A792100F037FC0198029A1D2156
:1055F00000F032FC0198029A7D2100F02DFCFFE7BB
:1056000000F062F9FFE706B080BD000080B582B00F
:105610008DF807009DF8070043F6C021C2F2000193
:10562000096800F0010081F82A0000F0B5F802B026
:1056300080BD000080B582B08DF8070043F6C02021
:10564000C2F20000006890F8200008B9FFE70DE002
:105650009DF8070043F6C021C2F20001096800F07E
:10566000010081F8280000F055FAFFE702B080BD84
:1056700080B582B08DF807009DF80700102801DB87
:10568000FFE70DE09DF8070043F6C021C2F20001DC
:105690000968CA7C114481F8210000F01FFAFFE775
:1056A00002B080BD80B582B08DF807009DF807106C
:1056B00043F6C020C2F20000026801F00101D1707F
:1056C0000068C078C00728B1FFE7002001210DF075
:1056D00041F80EE043F6C020C2F200000068C07836
:1056E000C00728B9FFE7002108460DF033F8FFE7AF
:1056F000FFE702B080BD000080B582B08DF80700E2
:105700008DF806108DF805209DF80600032805DCAD
:10571000FFE79DF80500042801DBFFE713E09DF893
:10572000060043F6C021C2F200010A689DF8073066
:105730001A4482F82D009DF80500096881F82F00B1
:1057400000F02AF8FFE702B080BD000080B582B00B
:105750008DF807008DF8061000208DF8050043F63F
:10576000C020C2F200000068C07C08B1FFE711E071
:105770009DF807109DF8060000EB81019DF80500DB
:1057800008438DF8050007200DF10501012200F006
:1057900039FBFFE702B080BD80B582B000208DF8F4
:1057A000070043F6C020C2F200000068C07C002859
:1057B00060D1FFE743F6C020C2F20000006890F815
:1057C0002A00C00738B1FFE79DF8070040F08000CD
:1057D0008DF8070006E09DF8070000F07F008DF8C7
:1057E0000700FFE743F6C020C2F20000006890F80F
:1057F0002B00C00738B1FFE79DF8070040F04000DC
:105800008DF8070006E09DF8070000F0BF008DF856
:105810000700FFE743F6C020C2F20000006890F8DE
:105820002900C00738B1FFE79DF8070040F02000CD
:105830008DF8070006E09DF8070000F0DF008DF806
:105840000700FFE743F6C020C2F200000068C17CF9
:10585000084490F82D0000F003019DF8070040EA8D
:1058600081008DF807009DF8070040F002008DF8D8
:10587000070021E09DF8070040F040008DF8070088
:1058800043F6C020C2F200000168CA7C114491F8BE
:105890002D1001F003029DF8071041EA82018DF8F6
:1058A0000710006890F82F0000F003019DF8070032
:1058B00008438DF80700FFE705200DF107010122DD
:1058C00000F0A0FA02B080BD80B582B000208DF853
:1058D000070043F6C020C2F200000068C07C70BB25
:1058E000FFE743F6C020C2F20000006890F83000E5
:1058F00038B9FFE79DF8070040F080008DF80700F9
:10590000FFE743F6C020C2F20000006890F82C00C8
:10591000C00738B1FFE79DF8070040F020008DF880
:105920000700FFE743F6C020C2F20000006890F8CD
:1059300031109DF8070008438DF8070010E043F68A
:10594000C020C2F20000016891F8320091F83310D3
:1059500000EB81019DF8070008438DF80700FFE781
:1059600006200DF10701012200F04CFA02B080BDC3
:1059700080B586B08DF8170043F6C020C2F2000053
:105980000068C07C002853D1FFE79DF8170001464E
:10599000049104284BD80499DFE801F003111F2D6E
:1059A0003B0069460C208860332048603A2008603C
:1059B00006200D216522002300F04EFA37E06946EB
:1059C0000C208860332048601520086006200D21D7
:1059D0006522102300F040FA29E069460C20886017
:1059E000332048603A20086006200D2165221023EC
:1059F00000F032FA1BE069460820886033204860D6
:105A00003A20086006200D2165221E2300F024FAAA
:105A10000DE0694605208860552048603A200860FE
:105A200006200D2165222A2300F016FAFFE752E036
:105A30009DF817000146039104284BD80399DFE82D
:105A400001F003111F2D3B0069460C2088603320B4
:105A500048603A20086006200D216022002300F0F3
:105A6000FBF937E069460C208860332048603A2013
:105A7000086006200D216022102300F0EDF929E0D6
:105A800069460C208860332048603A200860062070
:105A90000D216022902300F0DFF91BE0694605200C
:105AA0008860332048604920086006200D2160226C
:105AB000D02300F0D1F90DE069460420886033203E
:105AC00048604D20086006200D216022D02300F0A0
:105AD000C3F9FFE7FFE706B080BD000080B582B0E4
