:020000040800F2
:10000000F84600204501000895460008292B000805
:100010001132000845100008BD9A000800000000D9
:10002000000000000000000000000000AD4C0008CF
:100030008D12000800000000BD460008E95D0008C0
:100040005F0100085F0100085F01000869480008BF
:100050005F0100085F0100085F0100085F01000800
:100060005F0100085F0100085F0100085F010008F0
:100070005F0100085F0100085F010008E911000846
:100080005F0100085F010008C10800085F01000867
:100090005F0100085F0100085F0100085F010008C0
:1000A0005F0100085F0100085F0100085F010008B0
:1000B0005F0100085F0100085F0100085F010008A0
:1000C0005F0100085F0100085F0100085F01000890
:1000D0005F0100085F0100085F0100085F01000880
:1000E0005F0100085F0100085F0100085F01000870
:1000F0005F0100085F0100085F0100085F01000860
:100100005F0100085F0100085F0100085F0100084F
:100110005F0100085F010008CD5E0008ED5E000889
:100120005F0100085F0100085F0100085F0100082F
:10013000DFF80CD000F0ACFB0048004761CC0008B1
:10014000F84600200648804706480047FEE7FEE7DD
:10015000FEE7FEE7FEE7FEE7FEE7FEE7FEE7FEE777
:10016000ED5D0008310100082DE9FE4F804681EA6F
:100170000300C00F0C46009021F0004123F0004521
:10018000B8EB0200A94105D24046214690461C46E4
:100190000B46024623F00040104347D0270DC7F31B
:1001A0000A00C3F30A510290401A019040286BDA0A
:1001B000C3F3130040F4801B0098924620B1002343
:1001C000D2EB030A63EB0B0B01985946C0F14002D6
:1001D000504600F048FA06460D4650465946019AE8
:1001E00000F060FA10EB08006141002487EA115228
:1001F00084EAE7731A4340D0009A62B3019A012A55
:100200004FEA075215DC001B61EB02014FF0004280
:1002100002EA0752CDE90042001C41F58011324646
:100220002B4600F0B5FA03B0BDE8F08F40462146FA
:10023000F9E7001B61EB0201001C41F58013001877
:100240005B412018A2F5001747EB030140EAD57087
:10025000B6196D4111E06D084FEA360645EAC075E2
:100260004FEA0752001B61EB0201001C41F58011AF
:1002700049084FEA30000019514132462B4603B07D
:10028000BDE8F04F00F075BA00980122400000234D
:10029000D0EB020263EBE073009821464FEAE07472
:1002A000B8EB000061EB0401E9E783F000435BE792
:1002B00081F0004158E72DE9FE4F81EA030404F084
:1002C000004421F0004100944FF0000B23F0004364
:1002D00050EA01045ED052EA03045BD0C3F30A542F
:1002E000C1F30A552C44A4F2F3340194A0FB025448
:1002F000C1F3130141F48011C3F3130343F48013DA
:1003000001FB024400FB034E840A970A44EA81542D
:1003100047EA8357A4FB076802958D0A05FB07850A
:100320004FEA932C04FB0C542705029D4FEA065814
:1003300047EA1637B5EB08056EEB070C870E920EF1
:1003400047EA811742EA8312A7FB0201B6EB0B01D1
:1003500064EB00042B0D43EA0C335E1844EB1C5095
:10036000DA465146E7FB0201C5F313044FEA0B33AB
:1003700043EA14534FEA0432019C43EA0603A4F112
:100380000C040294009CCDE900B400F001FA03B023
:10039000BDE8F08F00200146F9E72DE9F04D81EA34
:1003A000030404F0004B21F0004514464FF0000A0E
:1003B00023F0004150EA050220D054EA01021DD08A
:1003C000C5F30A570246C5F31303C1F31300C1F383
:1003D0000A5640F4801543F48013A7EB0608101B5F
:1003E000D64608F2FD3873EB050002D308F1010888
:1003F00001E092185B41B8F1000F03DA00200146DA
:10040000BDE8F08D00204FF48011064684460EE0D2
:10041000171B73EB050705D3121B63EB050306439C
:100420004CEA010C49084FEA300092185B4150EA4F
:100430000107EDD152EA030012D082EA040083EAF8
:100440000501084305D0101BAB4106D20122002351
:1004500006E000224FF0004302E06FF0010253106B
:100460001AEB06004CEB085110EB0A0041EB0B01B4
:10047000BDE8F04D00F07DB930B5041E71F1000407
:1004800004DB4FF00044404264EB0101141E73F1A1
:10049000000405DB1C464FF00043524263EB0403AB
:1004A000801A994101D3012030BD002030BD30B504
:1004B000041E71F1000404DB4FF00044404264EB81
:1004C0000101141E73F1000405DB1C464FF00043CC
:1004D000524263EB0403101A8B4101D2012030BD5C
:1004E000002030BD30B5041E71F1000404DB4FF074
:1004F0000044404264EB0101141E73F1000405DB6B
:100500001C464FF00043524263EB0403101A8B4128
:1005100001D3012030BD002030BD0EB5C10F80EAEF
:10052000E0700844CA07002140F233438DE80E0012
:100530000A460B4600F02CF903B000BD70B5C1F3BC
:100540000A5201F000450024C1F3130140F2FF33C9
:1005500041F480119A4201DA002070BD40F2334329
:100560009A42A2F2334203DC524200F08BF800E0E0
:1005700090402C43F1D0404270BD00F0004230F07A
:1005800000400AD0C10D01F56071C0F3160042EAC7
:100590000151C208400711437047002001467047CF
:1005A00001F0004330B421F0004150EA010206D0CE
:1005B0000A0DA2F56072C1F31301002A02DC30BCFF
:1005C00000207047440F44EAC104C100E01830BC69
:1005D00000EBC25000F078B830B50B460146002061
:1005E0002022012409E021FA02F59D4205D303FAF5
:1005F00002F5491B04FA02F52844151EA2F1010276
:10060000F1DC30BD2DE9F05F0546002092469B46A7
:1006100088460646814640241BE028464146474618
:10062000224600F02FF853465A46C01A914110D383
:1006300011461846224600F016F82D1A67EB0108FD
:100640004F4622460120002100F00DF817EB00096B
:100650004E41201EA4F10104DFDC484631462A4603
:100660004346BDE8F09F202A04DB203A00FA02F15D
:10067000002070479140C2F1200320FA03F3194390
:1006800090407047202A04DB203A21FA02F0002132
:10069000704721FA02F3D040C2F120029140084392
:1006A00019467047202A06DBCB17203A41FA02F0A0
:1006B00043EAE07306E041FA02F3D040C2F12002BF
:1006C00091400843194670470029A8BF7047401C55
:1006D000490008BF20F00100704710B4B0FA80FC58
:1006E00000FA0CF050EA010404BF10BC704749B195
:1006F000CCF1200421FA04F411FA0CF118BF012105
:1007000021430843A3EB0C01CB1D4FEA00614FEAE4
:10071000102042BF002010BC704700EBC3501044B3
:100720000029A4BF10BC7047401C490008BF20F03E
:10073000010010BC704710B541000CD0C0F3C75188
:10074000962908DC7E2909DC06DB410204D000F092
:10075000004040F07E5010BD002010BDC1F1960455
:10076000C4F1200100FA01F1E040FFF7ADFFA04025
:1007700010BD10B5141E73F1000408DA401C41F1DD
:10078000000192185B411A4301D120F0010010BD15
:100790002DE9F04D92469B4611B1B1FA81F202E08B
:1007A000B0FA80F220329046FFF75DFF04460F4614
:1007B00040EA0A0041EA0B0153465A46084313D067
:1007C000114653EA010019D0C8F140025046FFF724
:1007D00059FF05460E46504659464246FFF743FF2D
:1007E000084305D0012004E020463946BDE8F08DDD
:1007F0000020054346EAE0762C4337430A98630518
:10080000E40AA0EB08000022FD0A44EA47540A303B
:1008100002D500200146E9E7010510196941DDE92B
:10082000084500196941BDE8F04DA2E7C1F30A523D
:10083000C1F3130140F2FF3341F480119A4202DA0E
:1008400000200146704740F233439A42A2F23342FD
:1008500002DC5242FFF716BFFFF705BF30B5041E9A
:1008600071F1000404DB4FF00044404264EB0101ED
:10087000141E73F1000405DB1C464FF00043524286
:1008800063EB0403994208BF904230BD00207047DB
:100890001CB509480090094801900546009C06E0F7
:1008A000E06840F0010394E8070098471034AC4238
:1008B000F6D3FFF741FC0000D07A0108F07A010876
:1008C00080B542F20040C4F20100022109F048FB69
:1008D00028B1FFE70020522100F012F8FFE742F2B2
:1008E0000040C4F20100042109F03AFB28B1FFE7FF
:1008F0000020492100F004F8FFE780BD000000005F
:1009000080B586B08DF817008DF816100020ADF870
:100910001400ADF812009DF81700002840F02F8158
:10092000FFE79DF81600522840F09180FFE742F261
:100930000040C4F2010009F02FFCADF81400BDF82E
:10094000140040F6775188420BDCFFE7BDF8140035
:10095000B0F53E6F05DBFFE70021084602F0A2FA82
:1009600062E0BDF8140040F6D32188420CDCFFE7BA
:10097000BDF8140040F63C11884205DBFFE701207A
:10098000002102F08FFA4EE0BDF8140040F24671EB
:1009900088420CDCFFE7BDF8140040F2AF518842FA
:1009A00005DBFFE70220002102F07CFA3AE0BDF807
:1009B0001400B0F5667F0BDCFFE7BDF81400B0F55E
:1009C000007F05DDFFE70320002102F06BFA28E03D
:1009D000BDF81400CC2805DCFFE70520002102F05B
:1009E00061FA1DE0BDF8140040F63371884216DB51
:1009F000FFE700200121039102F054FA0399084611
:100A000002F050FA0399022002F04CFA03990320F5
:100A100002F048FA0399052002F044FAFFE7FFE7E5
:100A2000FFE7FFE7FFE7FFE740F60000C4F2010041
:100A300001210AF063FD0146042002F033FA42F27C
:100A40000040C4F20100022109F080FA96E09DF80E
:100A50001600492840F09180FFE742F20040C4F2BE
:100A600001000290002109F023FAADF81200BDF850
:100A7000120000EE100AB8EE400A10EE100AFFF75E
:100A80007CFD41EC100B9FED401B53EC112B51EC06
:100A9000100BFFF710FC41EC100B51EC100B9FED0D
:100AA0003C0B53EC102BFFF778FC41EC100B51EC96
:100AB000100BFFF743FD40F26801C2F20001019103
:100AC000888541F20000C4F2010008210AF030FCE0
:100AD0000298012109F0ECF9ADF81200BDF81200FE
:100AE00000EE100AB8EE400A10EE100AFFF745FDBE
:100AF00041EC100B9FED281B53EC112B51EC100B0C
:100B0000FFF7D9FB41EC100B51EC100B9FED240BC0
:100B100053EC102BFFF741FC41EC100B51EC100B88
:100B20009FED210B53EC102BFFF71EFB41EC100B3C
:100B300051EC100B9FED1E0B53EC102BFFF72DFC0F
:100B400041EC100B51EC100B9FED1B0B53EC102BD9
:100B5000FFF70AFB41EC100B51EC100BFFF720FDE7
:100B600000EE100A0CF0EEFC019A0146029882F8A1
:100B70002E10042109F0EAF9FFE7FFE7FFE706B0CE
:100B800080BD00BF00BF00BF000000000025B140D5
:100B9000000000000000E4406666666666660AC003
:100BA000000000000000B040333333333333F73FED
:100BB000091B9E5E29CB703F0000000000003940F9
:100BC00080B586B042F20040C4F20100059009F001
:100BD00047F80020029009F015FA05984FF480714B
:100BE0000122019209F0FEFA0299059809F024F811
:100BF000019A0598114608F0E7FF0299059802222C
:100C00000392062309F00EFA019905984FF4602229
:100C100009F0ACF8019A0598114609F06BF8039AAF
:100C20000598114608F0D0FF029905980C22072379
:100C3000009309F0C5F8009B01990598102209F06E
:100C4000BFF8039905984FF4E04209F08FF8019A34
:100C50000399059809F04EF8029A122003210CF02E
:100C6000F3FC0399059809F071F9059804210491A2
:100C700009F06CF90399059809F040F90499059871
:100C800009F03CF9059809F025F8052009F074FDF4
:100C9000059808F07BFF09F0F9FA06B080BD000066
:100CA00080B582B043F2A260C2F20000807CADF851
:100CB0000400BDF8042043F2FC00C2F20000805C96
:100CC00047F28541C0F60101895C884204DBFFE7F9
:100CD00000208DF80700FEE0BDF8041043F2FC0090
:100CE000C2F20000405C28BBFFE7BDF8041043F2ED
:100CF000A260C2F2000000EB4100808AC8224A4391
:100D000043F20011C2F200018852BDF8042043F200
:100D1000FC01C2F20001885C01308854BDF8042057
:100D200043F2F801C2F200010020885401208DF83E
:100D30000700D0E000208DF80300BDF8041043F256
:100D4000FC00C2F20000405C01388DF80300FFE7B0
:100D50009DF80300002800F1AF80FFE7BDF8041004
:100D600043F2A260C2F2000000EB4100808A43F22D
:100D70000013C2F20003C82201FB02319DF80320D8
:100D800031F8121088420DD1FFE79DF80300BDF83D
:100D9000042043F2F801C2F20001885401208DF8CA
:100DA000070098E0BDF8041043F2A260C2F2000010
:100DB00000EB4100808A43F20013C2F20003C82214
:100DC00001FB02319DF8032031F81210884211DA3C
:100DD000FFE7BDF8040043F20012C2F20002C8218E
:100DE00000FB01209DF8032000EB420130F81200C7
:100DF000488037E0BDF8041043F2A260C2F2000060
:100E000000EB4100808A43F20013C2F20003C822C3
:100E100001FB02319DF8032031F81210884220DDD9
:100E2000FFE7BDF8041043F2A260C2F2000000EB3D
:100E30004100808A43F20013C2F20003C82201FB82
:100E400002319DF8032001EB420148809DF8030028
:100E50000130BDF8042043F2F801C2F200018854C9
:100E60002AE0FFE7FFE79DF80300F0B9FFE7BDF8D0
:100E7000041043F2A260C2F2000000EB4100808A3D
:100E800043F20013C2F20003C82201FB02319DF8B5
:100E9000032021F812009DF80300BDF8042043F25E
:100EA000F801C2F20001885406E0FFE79DF8030054
:100EB00001388DF803004BE7BDF8042043F2FC0134
:100EC000C2F20001885C013088540DF081F90120E4
:100ED0008DF80700FFE79DF8070002B080BD000015
:100EE00080B582B08DF8070043F2A260C2F2000024
:100EF000C17C084490F821008DF806009DF8071089
:100F00009DF8060008448DF806009DF90620002093
:100F10000F210AF0B1FB8DF806009DF8060004F0E1
:100F2000FBFA02B080BD000080B582B08DF80700EA
:100F300043F2A260C2F2000010F812CF00EB4C01A5
:100F40004B889DF9071040F24002C2F2000202EB0A
:100F5000CC0284449CF80AC032F81C2001FB023108
:100F6000ADF80410027847F29240C0F6010030F963
:100F7000120047F28A41C0F6010131F91210BDF8A2
:100F800004200AF079FBADF80400BDF8040001214B
:100F900005F03EFA03F0CEFB02B080BD80B582B012
:100FA0008DF8070043F2A260C2F200008178405C35
:100FB0008DF806009DF906009DF9071000EB41022F
:100FC000002064210AF058FB8DF806009DF8060009
:100FD00004F086FD02B080BD80B582B041F2000011
:100FE000C4F2010000904FF4806101910AF0A0F971
:100FF000052009F0C1FB009801990AF0A1F914201D
:1010000009F0BAFB43F2DC60C2F20000006890F81D
:101010002000012807D1FFE741F69600C0F6010045
:1010200000F0F8F8FFE741F66400C0F6010000F0B8
:10103000F1F841F66900C0F6010000F0EBF802B0EB
:1010400080BD0000FFE7FEE782B001908DF803103D
:10105000019840899DF80310C84000F0030002B0D9
:101060007047000081B0009000988088000B01B0AC
:101070007047000081B0009000980078C0F3001025
:1010800001B0704780B582B08DF807000020ADF840
:1010900004009DF8070001460091012804D0FFE7F5
:1010A0000098022806D00BE0002009F019FAADF8EC
:1010B000040005E0012009F013FAADF80400FFE791
:1010C000BDF8040002B080BD80B584B009F0AEF96F
:1010D000002002903821019109F052FA029809F09B
:1010E00035FA0299084609F06FFA029809F0DEF91C
:1010F00001990120039009F043FA039809F026FAB8
:101100000299039809F060FA039809F0CFF9029860
:1011100009F098F9039809F095F904B080BD000032
:1011200080B586B08DF81700ADF814109DF8170043
:1011300001460391012804D0FFE70398022834D028
:1011400048E0BDF8140020B9FFE70020ADF8120018
:1011500020E0BDF81400FFF7E0F941EC100B9FED23
:101160001E1B53EC112B51EC100BFFF7A4F841ECB4
:10117000100B51EC100B9FED1A0B53EC102BFEF7DC
:10118000F3FF41EC100B51EC100BFFF7D7F9ADF862
:101190001200FFE7BDF8122000210291084609F075
:1011A000EFF8029809F0B8F914E0BDF81420002017
:1011B000009040F214510AF05FFA0099ADF8120065
:1011C000BDF812200120019009F0DAF8019809F029
:1011D000A3F9FFE706B080BD6666666666664440B2
:1011E000000000000000284080B50020C4F202008A
:1011F0000421022209F0C4FC50B1FFE70020C4F230
:1012000002000421012209F0A9FC0BF045FAFFE7D6
:1012100080BD000080B584B0039003980190FFE783
:10122000019800788DF80B000198013001909DF82D
:101230000B0008B9FFE727E09DF80B00FF2803D15A
:10124000FFE708F081FCEBE79DF80B0000060028A3
:101250000DD5FFE79DF80B0000F07F010198421CBF
:101260000192007840EA012009F086FA0BE001992A
:101270009DF80B20382001F04DFD01989DF80B10D2
:1012800008440190FFE7CBE704B080BD7047000041
:1012900080B582B00190019803F044FB43F23841DD
:1012A000C2F200010968488001980421FFF7CCFED2
:1012B00000281CDCFFE70198FFF7D4FE014640F24E
:1012C000A000C2F20000017000780146009120B138
:1012D000FFE70098022804D007E0019803F094FB90
:1012E00004E0019803F0F2FB00E0FFE7FFE702B043
:1012F00080BD000080B582B0ADF80600BDF80600E4
:10130000552806DBFFE7BDF80600B0F5B47F01DD28
:10131000FFE717E00020ADF804009DF8060000F09C
:101320003F008DF80400BDF80600C0F382108DF870
:1013300005009DF804209DF80530812002210BF066
:1013400093FBFFE702B080BD80B584B08446069869
:101350008DF80FC08DF80E10ADF80C208DF80B3005
:101360008DF80A00BDF80C00ADF808009DF80B00E0
:101370008008ADF806009DF80E009DF80F10BDF82E
:101380000C200244013ABDF806300B44013BD2B2B6
:10139000DBB20BF011FA5C2000210BF065FB9DF82D
:1013A0000A00BDF80810BDF80620514389B20BF0C1
:1013B000E9FB04B080BD000080B592B08DF8470015
:1013C0008DF846109DF847001F2805DCFFE79DF8C3
:1013D0004600202801DBFFE723E0312000211091A7
:1013E0000BF042FB109B9DF847109DF84620684685
:1013F0000F9043630363C262826242620362C3610D
:10140000826143610361C1608160416003602020AB
:1014100010211A460BF028FB109930200BF024FB0A
:10142000FFE712B080BD000080B582B08DF80700E4
:10143000A6208DF806009DF80700C00730B1FFE731
:101440009DF8060001308DF80600FFE79DF80600C4
:1014500000210BF009FB02B080BD000080B582B016
:101460008DF807009DF8070028B9FFE7AE2000219E
:101470000BF0FAFA04E0AF2000210BF0F5FAFFE7D9
:1014800002B080BD80B584B0039002918DF8072032
:1014900008F06EFB03999DF8072044F23900C0F272
:1014A000F40004F0A9FB02999220C0F2F40004F0C9
:1014B0006FFB9DF807109320C0F2F40004F068FB66
:1014C000002004B080BD000083B00290ADF806108B
:1014D0008DF805200020ADF80200ADF80200FFE70E
:1014E000BDF80200BDF80610013988420DDAFFE7A9
:1014F0009DF805000299BDF802208854FFE7BDF869
:1015000002000130ADF80200EAE70299BDF80220BE
:101510000020885403B0704783B00290ADF80610E5
:101520000020ADF80400ADF80200ADF80400FFE7BC
:10153000BDF80400BDF80610884216DAFFE70299EC
:10154000BDF80200085CBDF80420895C884205DD16
:10155000FFE7BDF80400ADF80200FFE7FFE7BDF8C4
:1015600004000130ADF80400E2E7BDF8020003B06A
:101570007047000080B588B040F20020C0F2300013
:10158000012109F0D1FF40F60000C4F201000590EE
:101590000421069102220492812309F0EDFE049AAF
:1015A000059828214FF4004309F0E6FE049A0699B5
:1015B00040F60040C4F20100039040F6034309F0F6
:1015C000DBFE049A059840F61401C4F201014023A1
:1015D0000B601021009109F0CFFE0099049A41F2AE
:1015E0001400C4F2010040F6D853036041F2000039
:1015F000C4F20100019009F0BFFE00990398049A1B
:1016000040F6144CC4F2010C4FF48073CCF8003057
:1016100009F0B2FE0198049B002102910322079277
:1016200009F0AAFE02990598079A302309F0A4FE52
:1016300002990598069B079A09F09EFE0398049A62
:1016400040F61041C4F20101C0230B60142109F0DF
:1016500093FE0598079A18214FF4007309F08CFE49
:1016600005980699079A4FF4806309F085FE08B043
:1016700080BD0000B0B58AB08C4686460F980E99A2
:10168000ADF826E08DF825C08DF8242008938DF85C
:101690001F108DF81E009DF824008DF81D009DF888
:1016A0001D00202805DBFFE79DF81D007F2804DBD7
:1016B000FFE73F208DF81D00FFE70898807940077D
:1016C00040B9FFE70898C088C1088DF81C10C0F326
:1016D000C70008E00898C188012000EBD1008DF810
:1016E0001C00C0B2FFE79DF81D0020389DF81C10BB
:1016F0004843089989884843ADF81A00089800685B
:10170000BDF81A1008440590BDF826009DF8251074
:10171000089B9A889B799DF81FC09DF81E40059DE7
:10172000EE46CEF80C50CEF80840CEF804C04FF08C
:10173000000CCEF800C000F041F80AB0B0BD0000C7
:1017400080B582B08DF807000020ADF80400FFE7F7
:10175000BDF80400172829DCFFE70020ADF80200DF
:10176000FFE7BDF80200FF2819DCFFE79DF807102E
:1017700043F63170C0F60100405CBDF8042040F231
:10178000AD01C2F2000101EB0221BDF80220885434
:10179000FFE7BDF802000130ADF80200E1E7FFE726
:1017A000BDF804000130ADF80400D1E70021FF22AC
:1017B0005F23084600F00CFF02B080BDB0B58AB0D0
:1017C00094468E460446119810980F990E9AADF8DB
:1017D00026408DF825E0ADF822C08DF821308DF837
:1017E00020208DF81F108DF81E000020ADF8140089
:1017F0009DF821109DF8203043F62F72C0F60102AB
:10180000D25CB1FBF2F101318DF813108DF81000AC
:10181000ADF81800FFE7BDF818009DF813108842D6
:1018200080F2B280FFE79DF82130BDF818009DF8E6
:10183000202043F62F71C0F601018A5C00FB1230B4
:101840008DF812009DF812009DF82020895C8842D6
:101850000ADBFFE79DF8201043F62F70C0F6010069
:10186000405C8DF8110004E09DF812008DF8110025
:10187000FFE70020ADF81C00FFE7BDF81C00BDF835
:10188000221088426DDAFFE71198BDF81410405C11
:101890008DF817000020ADF81A00FFE7BDF81A0018
:1018A0009DF81110884250DAFFE79DF8200058BBE0
:1018B000FFE7BDF82600BDF81C10084402909DF813
:1018C0002500BDF81A1008449DF810100844039034
:1018D0009DF817000006002804D5FFE79DF81F00BB
:1018E000019003E09DF81E000190FFE70399029824
:1018F000019A80B2C9B2D2B200F0C6F89DF81700C2
:1019000040008DF8170019E0BDF82600BDF81C1046
:1019100008449DF82510BDF81A2011449DF81020A8
:1019200011449DF81720920980B2C9B200F0ACF8BA
:101930009DF8170080008DF81700FFE7FFE7BDF85E
:101940001A000130ADF81A00A8E7BDF81400013004
:10195000ADF81400FFE7BDF81C000130ADF81C0025
:101960008BE79DF8201043F62F70C0F60100415C14
:101970009DF8100008448DF81000FFE7BDF818002E
:101980000130ADF8180046E79DF82510BDF8260097
:10199000BDF822200244013A9DF821300B44013B5E
:1019A00092B2DBB2C0B200F013FE0AB0B0BD0000CC
:1019B00080B584B0DDF818C08DF80F008DF80E10DA
:1019C000ADF80C208DF80B300020ADF800009DF82C
:1019D0000E008008ADF804009DF80B008008ADF8FB
:1019E0000200BDF80400ADF80800FFE7BDF80800EC
:1019F000BDF80410BDF802201144884231DAFFE737
:101A00009DF80F00ADF80600FFE7BDF806009DF851
:101A10000F10BDF80C20114488421BDAFFE706982E
:101A2000BDF80010405CBDF8082040F2AD01C2F2E4
:101A3000000101EB0221BDF806208854BDF800002A
:101A40000130ADF80000FFE7BDF806000130ADF849
:101A50000600DAE7FFE7BDF808000130ADF808003E
:101A6000C4E79DF80F009DF80E10BDF80C2002444D
:101A7000013A9DF80B300B44013B92B2DBB200F00F
:101A8000A7FD04B080BD000082B0ADF806008DF85F
:101A900005108DF804209DF8050080088DF80300DE
:101AA0009DF80510032020EA010149008DF802107D
:101AB0009DF8021000FA01FC9DF8031040F2AD0001
:101AC000C2F2000000EB0122BDF80630D15C21EA31
:101AD0000C01D1549DF804109DF8022001FA02F384
:101AE0009DF8031000EB0121BDF80620885C184327
:101AF000885402B07047000080B586B084460898CC
:101B0000ADF816C08DF81510ADF812208DF8113013
:101B10008DF810009DF81100ADF80A009DF8150031
:101B2000ADF80600BDF8060000F00300ADF80400B3
:101B3000BDF8060080088DF80300FFE7BDF80A0035
:101B4000002800F0CB80FFE7BDF80A00BDF80410C4
:101B5000C1F10401884205DAFFE7BDF80A00ADF8DB
:101B6000080007E0BDF80400C0F10400ADF808006B
:101B700080B2FFE700208DF802008DF80100BDF86B
:101B8000080004282DD1FFE79DF8101043F63170AE
:101B9000C0F60100405C8DF80200BDF81600ADF8FB
:101BA0000E00FFE7BDF80E00BDF81210BDF81620BC
:101BB0001144884214DAFFE79DF802009DF80320E3
:101BC00040F2AD01C2F2000101EB0221BDF80E208E
:101BD0008854FFE7BDF80E000130ADF80E00E1E7D4
:101BE00062E00020ADF80E00FFE7BDF80E00BDF882
:101BF0000810884226DAFFE7BDF80E00BDF8041091
:101C00000844C0F1030040008DF800009DF810006A
:101C10009DF8001000FA01F19DF8020008438DF8CC
:101C200002009DF80010032000FA01F19DF8010068
:101C300008438DF80100FFE7BDF80E000130ADF854
:101C40000E00D2E7BDF81600ADF80E00FFE7BDF8B4
:101C50000E00BDF81210BDF816201144884222DA99
:101C6000FFE79DF801C09DF8031040F2AD00C2F2FD
:101C7000000000EB0122BDF80E30D15C21EA0C011E
:101C8000D1549DF802309DF8031000EB0121BDF8FE
:101C90000E20885C18438854FFE7BDF80E00013021
:101CA000ADF80E00D3E7FFE7BDF80810BDF80A0055
:101CB000401AADF80A00BDF80810BDF80600084447
:101CC000ADF80600BDF8060000F00300ADF8040012
:101CD000BDF8060080088DF803002FE79DF8151069
:101CE000BDF81600BDF812200244013A9DF81130EB
:101CF0000B44013B92B2DBB2C0B200F069FC06B00B
:101D000080BD000080B584B084460698ADF80EC052
:101D10008DF80D10ADF80A208DF809308DF8080007
:101D20009DF80D008008ADF802009DF809008008BC
:101D3000ADF80000BDF80200ADF80400FFE7BDF803
:101D40000400BDF80210BDF80020114488422ADAD0
:101D5000FFE7BDF80E00ADF80600FFE7BDF806008E
:101D6000BDF80E10BDF80A201144884214DAFFE7CE
:101D70009DF80800BDF8042040F2AD01C2F2000158
:101D800001EB0221BDF806208854FFE7BDF80600EC
:101D90000130ADF80600E1E7FFE7BDF804000130CF
:101DA000ADF80400CBE79DF80D10BDF80E00BDF8AE
:101DB0000A200244013A9DF809300B44013B92B2DB
:101DC000DBB2C0B200F004FC04B080BDB0B58CB092
:101DD0008C46864612981199109CADF82EE08DF82D
:101DE0002DC08DED0A0A8DF827208DF826308DF84C
:101DF00025108DF8240000208DF823009DED0A0A9F
:101E0000BDEEC00A8DED070A9DED0A0A9DED071A89
:101E1000B8EEC11A30EE410A9DF8271043F6407023
:101E2000C0F6010000EB810090ED001AB8EE411AF7
:101E300020EE010ABDEEC00A8DED060A0698B0F14B
:101E4000FF3F04DCFFE7069840420690FFE79DF85D
:101E5000260001284BD1FFE7BDF82E009DF82D107C
:101E6000069A109B9DF825E09DF82440EC46CCF89E
:101E70000840CCF804E0CCF800300123059300F0D2
:101E8000FDF8BDF82E209DF827000130109B9988A1
:101E900000FB11209DF82D109DF825209DF824E0D1
:101EA000EC46CCF804E0CCF8002080B22E22FFF7FC
:101EB000E1FB059BBDF82E209DF827000130DDF8E1
:101EC00040C0BCF8041000FB11209DF82D10079AAB
:101ED0009DF825409DF82450EE46CEF80850CEF8E7
:101EE0000440CEF800C080B200F0C8F84BE0BDF866
:101EF0002E009DF82D10069A109B9DF825E09DF868
:101F00002440EC46CCF80840CCF804E0CCF8003093
:101F10000023049300F0B2F88DF82300BDF82E20C2
:101F20009DF82300109B998800FB01209DF82D103F
:101F30009DF825209DF824E0EC46CCF804E0CCF890
:101F4000002080B22E22FFF795FB049BBDF82E20C7
:101F50009DF823000130DDF840C0BCF8041000FB00
:101F600001209DF82D10079A9DF825409DF82450DA
:101F7000EE46CEF80850CEF80440CEF800C080B24D
:101F800000F07CF8FFE70CB0B0BD000010B584B0E5
:101F90008C46864607980699ADF80EE08DF80DC080
:101FA0008DF80C20ADF80A30ADF808108DF8070058
:101FB0009DF80C0001282FD1FFE7BDF80E00BDF8F9
:101FC0000A100844B0F5807F07DDFFE7BDF80E007A
:101FD000C0F58070ADF80A00FFE79DF80D00BDF870
:101FE00008100844612807DBFFE79DF80D00C0F1E9
:101FF0006000ADF80800FFE7BDF80E009DF80D1079
:10200000BDF80A209DF808309DF807C0EE46CEF8CE
:1020100000C0FFF771FD2EE09DF80D00BDF80A101D
:102020000844612807DBFFE79DF80D00C0F1600060
:10203000ADF80A00FFE7BDF80E00BDF8081008442F
:10204000B0F5807F07DDFFE7BDF80E00C0F58070BA
:10205000ADF80800FFE7BDF80E009DF80D10BDF8C3
:1020600008209DF80A309DF807C0EE46CEF800C063
:10207000FFF742FDFFE704B010BD000010B58AB0C5
:102080008C4686460E980D990C9CADF826E08DF88E
:1020900025C008928DF81F308DF81E108DF81D0098
:1020A00000208DF81C00089802900298B0F1FF3FC4
:1020B00004DCFFE7029840420290FFE7FFE7029846
:1020C00046F26761C6F2666150FB01F39A1002EBBB
:1020D000D37202EB8202A0EB42009DF81C300DF19E
:1020E0000F02D054029850FB01F1881000EBD17020
:1020F00002909DF81C0001308DF81C00FFE702984B
:102100000028DCD1FFE70898B0F1FF3F0CDCFFE7C7
:102110009DF81C200DF10F012D2088549DF81C0006
:1021200001308DF81C00FFE79DF81F0000285CD1EE
:10213000FFE700208DF81B00FFE79DF81B009DF8CE
:102140001C10884250DAFFE79DF81C109DF81B0018
:10215000C04301440DF10F00405C2D281AD1FFE768
:10216000BDF826009DF825109DF81C309DF81B2019
:10217000D24313440DF10F02D25C0C9B9DF81EC09C
:102180009DF81D40EE46CEF80440CEF800C0FFF7A3
:1021900071FA1BE0BDF826009DF825109DF81C3053
:1021A0009DF81B20D24313440DF10F02D25C303254
:1021B0000C9B9DF81EC09DF81D40EE46CEF80440D5
:1021C000CEF800C0D2B2FFF755FAFFE70C9881882D
:1021D000BDF826000844ADF82600FFE79DF81B0077
:1021E00001308DF81B00A8E757E000208DF81B0098
:1021F000FFE79DF81B009DF81C1088424CDAFFE7B2
:102200009DF81B100DF10F00405C2D281AD1FFE73F
:10221000BDF826000C9B9988401A9DF825109DF862
:102220001BC00DF10F0212F80C209DF81EC09DF886
:102230001D40EE46CEF80440CEF800C080B2FFF755
:1022400019FA1BE0BDF826000C9B9988401A9DF8EE
:1022500025109DF81BC00DF10F0212F80C20303232
:102260009DF81EC09DF81D40EE46CEF80440CEF805
:1022700000C080B2D2B2FFF7FDF9FFE70C98818869
:10228000BDF82600401AADF82600FFE79DF81B00B8
:1022900001308DF81B00ACE7FFE79DF81C000AB089
:1022A00010BD000010B588B08C4686460B980A9980
:1022B000ADF81EE08DF81DC0ADF81A208DF819306C
:1022C0008DF818108DF81700BDF81E009DF81D1030
:1022D000BDF81A309DF818209DF817E0EC46CCF8B0
:1022E00004E0CCF8002001220392FFF74FFE039A8E
:1022F000BDF81E009DF81D109DF819301944BDF859
:102300001A309DF818C09DF81740EE46CEF80440EC
:10231000CEF800C0C9B2FFF739FEBDF81E009DF827
:102320001D109DF819309DF818209DF817E0EC4617
:10233000CCF804E0CCF8002000220492FFF726FE3F
:10234000049ABDF81E00BDF81A1008449DF81D102F
:102350009DF819309DF818C063449DF81740EE466B
:10236000CEF80440CEF800C080B2FFF70FFE08B0F0
:1023700010BD000080B588B084460A98ADF81EC034
:10238000ADF81C10ADF81A208DF819308DF8180032
:10239000BDF81A00BDF81E20801A00EB8000400135
:1023A000BDF81C10891A90FBF1F08DF817009DF80C
:1023B0001800C007D0B1FFE740F23001C2F20001BF
:1023C00064200870694600200490086021203321B1
:1023D0009F221323FFF790FB049869460860E720CB
:1023E000362115220C23FFF787FBFFE79DF8190024
:1023F00040F23001C2F200010978884218D0FFE7AC
:102400009DF81920694600238B600320486040F244
:102410000800C2F200000860E7203621FFF72EFE18
:102420009DF8190040F23001C2F200010870FFE788
:102430009DF8170040F23101C2F20001097888428C
:1024400012D0FFE79DF8172069460320086021207D
:1024500033211323FFF750FB9DF8170040F23101A1
:10246000C2F200010870FFE708B080BD10B588B067
:102470008C4686460D980C990B9C0A9CADF81EE084
:102480008DF81DC0ADF81A20ADF818308DF8171072
:102490008DF816000A980490BDF81E00ADF80E00E5
:1024A0009DF81D008DF80D00BDF81A00ADF80A006A
:1024B000BDF81800ADF80800BDF91A00002806D4D0
:1024C000FFE7BDF91A00B0F5807F05DDFFE74FF4A7
:1024D0008070ADF80A00FFE7BDF91800002805D4A8
:1024E000FFE7BDF91800612804DBFFE76020ADF8C5
:1024F0000800FFE7FFE704980078002866D0FFE7B0
:10250000049800780A281AD1FFE7BDF81E00ADF83C
:102510000E000B98C1889DF80D0008448DF80D0041
:102520009DF80D000B99C9880844BDF80810884231
:1025300001DDFFE74AE0049801300490DBE7BDF8D5
:102540000E009DF80D10049A12780B9B9DF817C091
:102550009DF81640EE46CEF80440CEF800C0FFF7D6
:1025600089F80B988188BDF80E000844ADF80E007C
:10257000BDF80E000B9989880844BDF80A108842FE
:1025800020DDFFE7BDF81E00ADF80E000B98C188F6
:102590009DF80D0008448DF80D009DF80D000B9975
:1025A000C9880844BDF80810884201DDFFE70DE046
:1025B00004984078202804D1FFE704980130049063
:1025C000FFE7FFE704980130049094E708B010BDDE
:1025D00082B08DF807008DF80610ADF804208DF854
:1025E00003309DF8070043F2EE61C2F20001098852
:1025F000884208DAFFE79DF8070043F2EE61C2F275
:1026000000010880FFE79DF8060043F2F261C2F284
:1026100000010988884208DAFFE79DF8060043F2C6
:10262000F261C2F200010880FFE7BDF8040043F246
:10263000EC61C2F200010988884208DDFFE7BDF8BD
:10264000040043F2EC61C2F200010880FFE79DF84C
:10265000030043F2F061C2F200010988884208DDFC
:10266000FFE79DF8030043F2F061C2F20001088029
:10267000FFE702B07047000086B005900491039216
:102680004FF2E070C1F6FF7002900298006801906E
:10269000019804990880BDF80600039908804FF25C
:1026A000E870C1F6FF70029000208DF80300FFE78C
:1026B0009DF80300022811DCFFE7029800680599E5
:1026C0009DF8032041F82200029804300290FFE7B1
:1026D0009DF8030001308DF80300E9E706B070476C
:1026E00080B584B0039043F2DC60C2F20000006861
:1026F00090F90400142808DBFFE743F2DC60C2F223
:1027000000000068807C08B1FFE745E007206946CB
:10271000012200F0DDF89DF800000399087003988D
:1027200000780006002837D5FFE703980078800678
:10273000002831D4FFE7072069460A2200F0C8F8D4
:102740009DF80000039908709DF801109DF80200A3
:1027500040EA0120039948809DF803109DF8040089
:1027600040EA0120039988809DF805109DF8060035
:1027700040EA01200399C8809DF807109DF80800E1
:1027800040EA0120039908819DF8090003994881D6
:102790000398FEF77DFDFFE704B080BD80B582B0F1
:1027A00000200DF10301052200F092F89DF80300CE
:1027B000410943F2DC60C2F200000268D1729DF868
:1027C00003100268C1F3C00191729DF804206FF0FC
:1027D000070101EB5201026811710068807C68B941
:1027E000FFE79DF8050043F2DC61C2F200010A68D0
:1027F00050719DF806000968C87108E09DF8050051
:1028000043F2DC61C2F2000109688871FFE79DF8BC
:10281000070000F07F0043F2DC61C2F200010968AA
:1028200008729DF807000006002809D5FFE743F26B
:10283000DC60C2F200000168087A40420872FFE7DB
:1028400002B080BD80B584B0039000200290382093
:1028500000F028FA9DF80E0000F086FA9DF80D00B1
:1028600000F082FA9DF80C0000F07EFA392000F0AA
:10287000FBF99DF80D00400600280DD5FFE700206C
:1028800000F074F900020290012000F06FF9014697
:1028900002980843029016E00020019000F066F9CB
:1028A000014601980904029100F060F9014602987E
:1028B00040EA01200290012000F058F901460298F8
:1028C00008430290FFE700F005FA029804B080BDCB
:1028D00080B584B08DF80F0002918DF8072000209C
:1028E0000090ADF80400382000F0DCF99DF80F00EE
:1028F00000F03AFA392000F0B7F90098ADF804007A
:10290000FFE7BDF804009DF80710013988420EDA90
:10291000FFE7002000F02AF90299BDF8042088544E
:10292000FFE7BDF804000130ADF80400E9E701203D
:1029300000F01CF90299BDF80420885400F0CAF98F
:1029400004B080BD80B582B08DF8070000208DF8FE
:1029500006008DF8050043F2A260C2F20000807C00
:10296000ADF8020001F0E6FEBDF8021043F2FC00F3
:10297000C2F20000405C002800F0D380FFE79DF920
:102980000700012849DBFFE700208DF80600FFE77C
:102990009DF90600BDF8022043F2FC01C2F20001DD
:1029A000895C88422BDAFFE7BDF8022043F2001170
:1029B000C2F20001C82002FB00109DF9061030F899
:1029C000110043F2A261C2F2000101EB4201898AC7
:1029D00088420DDDFFE79DF80600BDF8022043F2B6
:1029E000F801C2F20001885401208DF8050006E0CC
:1029F000FFE79DF8060001308DF80600C8E79DF856
:102A0000050048B9FFE7BDF8022043F2F801C2F221
:102A1000000100208854FFE74DE0BDF8021043F2AA
:102A2000FC00C2F20000405C01388DF80600FFE7B0
:102A30009DF9060000282BD4FFE7BDF8022043F2E1
:102A40000011C2F20001C82002FB00109DF906101F
:102A500030F8110043F2A261C2F2000101EB420121
:102A6000898A88420DDAFFE79DF80600BDF802204A
:102A700043F2F801C2F20001885401208DF80500EC
:102A800006E0FFE79DF8060001388DF80600CFE765
:102A90009DF8050070B9FFE7BDF8022043F2FC0085
:102AA000C2F20000805C013843F2F801C2F200017A
:102AB0008854FFE7FFE7BDF8022043F20011C2F29D
:102AC0000001C82002FB001043F2F801C2F200012D
:102AD000895C30F8110043F2A261C2F2000101EBFF
:102AE00042018882BDF8020068B9FFE7BDF8021014
:102AF00043F2A260C2F2000000EB4100808A042190
:102B000003F086FC0CE0BDF8021043F2A260C2F2B2
:102B1000000000EB4100808A012103F079FCFFE70F
:102B2000FFE702B080BD0000FFE7FEE781B08DF84F
:102B3000030003208DF80200FFE79DF80300411E0B
:102B40008DF8031068B1FFE703208DF80200FFE75E
:102B50009DF80200411E8DF8021008B1FFE7F7E76B
:102B6000EBE701B0704700007047000080B584B00B
:102B70008DF80F0000208DF80E0040F61042C4F2D0
:102B80000102802111608DF80D00FFE79DF80D0016
:102B900007283CDCFFE79DF80E0040008DF80E0092
:102BA0000220FFF7C3FF40F61041C4F201014020AC
:102BB00008600120FFF7BAFFFFE740F60040C4F2CB
:102BC0000100402108F09AFC08B9FFE7F5E740F65C
:102BD0000040C4F20100802108F090FC38B1FFE70A
:102BE0009DF80E0040F001008DF80E00FFE7012077
:102BF000FFF79CFF40F61441C4F201014020086039
:102C0000FFE79DF80D0001308DF80D00BEE79DF83F
:102C10000F00C00738B1FFE740F61041C4F20101D0
:102C20008020086006E040F61441C4F201018020D3
:102C30000860FFE702200190FFF778FF019840F657
:102C40001042C4F20102402102911160FFF76EFFB1
:102C5000029840F61441C4F2010108608020086027
:102C60009DF80E0004B080BD80B584B08DF80F00D3
:102C700004200290FFF75AFF029840F61042C4F277
:102C80000102019280211160FFF750FF019A029822
:102C900040211160FFF74AFF9DF80F0000F002F895
:102CA00004B080BD80B582B08DF8070040F61441B5
:102CB000C4F201010091802008600420FFF736FF74
:102CC0000099402008609DF8070000F04DF802B020
:102CD00080BD000080B584B040F61441C4F201010B
:102CE00080200290086004200390FFF71FFF0398E4
:102CF00040F61042C4F20102019240211160FFF738
:102D000015FF019A029903981160FFF70FFF04B0B5
:102D100080BD000080B584B08DF80F000291ADF841
:102D200006209DF80F0000F0FE00FFF7BBFF00201B
:102D3000ADF80400FFE7BDF80400BDF806108842B6
:102D40000DDAFFE70298BDF80410405C00F00CF8C3
:102D5000FFE7BDF804000130ADF80400EBE7FFF732
:102D6000B9FF04B080BD000080B586B08DF81700B3
:102D700080208DF81600FFE79DF8160090B3FFE75E
:102D80000120FFF7D3FE9DF816009DF817100842AA
:102D900007D0FFE740F61041C4F20101802008602F
:102DA00006E040F61441C4F2010180200860FFE70C
:102DB0000120FFF7BBFE40F61041C4F201014020A4
:102DC000049008600220FFF7B1FE049840F6144119
:102DD000C4F201010860FFE79DF8160040088DF875
:102DE0001600C9E701200090FFF7A0FE009840F60A
:102DF0001042C4F201020192802103911160FFF799
:102E000095FE039940F60040C4F2010008F076FBFD
:102E100001998DF815004020029008600220FFF70C
:102E200085FE029A039840F61441C4F201010A603B
:102E300008609DF81500B0FA80F0400906B080BD2A
:102E400081B0ADF80000BDF80000092804DCFFE700
:102E500001208DF8030021E0BDF80000632804DCA8
:102E6000FFE702208DF8030018E0BDF80000B0F580
:102E70007A7F04DAFFE703208DF803000EE0BDF847
:102E8000000042F20F71884204DCFFE704208DF855
:102E9000030003E005208DF80300FFE79DF8030021
:102EA00001B0704780B582B08DF807008DF806102C
:102EB0009DF8071040F2A700C2F20000405C0146F6
:102EC000009140B1FFE7009801282DD0FFE700985E
:102ED000022865D073E09DF8071040F2A100C2F20D
:102EE0000000405C022811DBFFE79DF8072040F25C
:102EF000A101C2F20001002088549DF8072043F28E
:102F0000E501C2F2000101208854FFE79DF80600A8
:102F100048B9FFE79DF8072040F2A701C2F200017F
:102F200001208854FFE74BE00AF042FF9DF80600BD
:102F300050B9FFE79DF8072040F2A101C2F200015D
:102F4000885C0130885408E09DF8072040F2A70112
:102F5000C2F2000100208854FFE79DF8071040F2FC
:102F6000A100C2F20000405C642818DBFFE79DF876
:102F7000072040F2A701C2F20001022088549DF808
:102F8000073040F2A102C2F200020021D1549DF8A4
:102F9000072043F2E501C2F200018854FFE70FE089
:102FA0009DF80600012809D1FFE79DF8072040F2AF
:102FB000A701C2F2000100208854FFE700E0FFE70C
:102FC00002B080BD80B58EB000F094F841F20000F0
:102FD000C4F2010003908021049108F0A9F9642053
:102FE0000B9007F0C9FB0398049908F0A9F90B9816
:102FF00007F0C2FB3020069000210D9109F034FD4E
:103000000D99942009F030FD0D99312009F02CFD27
:10301000D72001210C919F22089209F025FD0C9BDD
:103020000D9A68460321079101603220059009F04E
:103030001BFD059807996A461060F2201E2228237E
:1030400009F012FD68460D2343600360F0200990EB
:1030500004211A4609F008FD06980D9909F004FDAF
:103060000D99084609F08EFB0C990D9ABC2009F0C9
:10307000FBFC0799089B0D9AEC460A20CCF800004F
:10308000CA2009F0F1FC09980C99112209F0ECFC16
:103090000C9920200B2209F0E7FC43F22C60C2F2CD
:1030A00000000A90C088FEF725F90A9948788978C7
:1030B000FEF782F90A98C07800F00100FEF7B4F933
:1030C0000D98FEF73DFB0D99684601604FF4807244
:1030D00060230846FEF738F90B9807F099FB0C9827
:1030E000FEF7BCF90D9807F0C7F9052007F044FB7F
:1030F0000EB080BD80B58CB040F203600AF00AFECD
:103100004FF4C0600AF006FE40F20E700AF002FEB4
:103110000A2007F07DFB40F61040C4F201004FF496
:10312000A043036040F60040C4F20100019010216A
:103130000322029208F020F90198029A18214FF414
:10314000204308F019F905A803900CF0A9FC43F6F8
:103150000000C4F2000004900CF00EFC029B0399E6
:1031600004984FF4404206924FF482720592002276
:1031700007920A934FF4007308930B9209920CF094
:103180004BFC04980CF082FC04984FF480410CF046
:10319000ABFB04980CF0D4FB0CB080BD82B08DF872
:1031A000070043F2EE61C2F20001FF20088043F203
:1031B000F261C2F200015F20088043F2EC61C2F2CA
:1031C00000010020088043F2F061C2F20001088093
:1031D0009DF80700C007C0B1FFE743F22C61C2F2BF
:1031E0000001009105208880888800EB8000400065
:1031F00088601420087040F20912CA8010224A70B8
:1032000088700020C8700873FFE702B070470000A4
:10321000FFE7FEE780B50020012103F0DBF9FFE7BF
:1032200043F2E500C2F20000007818B1FFE708F0B1
:1032300041F802E006F044FCF2E780BD0000000027
:1032400070B5A0B000201F904FF400311E911D906A
:1032500040F20311C0F209311C918DF86F008DF816
:103260006E008DF86D009DF96F009DF96D109DF950
:103270006E20012303F0E8F9FFE743F2E500C2F214
:1032800000004078F0B1FFE743F2E501C2F200012F
:10329000002048709DF96F0008B9FFE7EDE79DF841
:1032A0006F0001388DF86F0000238DF86E308DF8B7
:1032B0006D309DF96F009DF96D109DF96E2003F042
:1032C000C3F9FFE743F2E500C2F200008078F8B1ED
:1032D000FFE743F2E501C2F20001002088709DF98A
:1032E0006F00072801D1FFE7C7E79DF86F000130A5
:1032F0008DF86F0000238DF86E308DF86D309DF9DC
:103300006F009DF96D109DF96E2003F09DF9FFE7A8
:1033100043F2E500C2F200000079E8B1FFE743F2B2
:10332000E501C2F2000100201A9008719DF96F209A
:103330001EA9895601399DF96E20012308F0B8F9BC
:103340001A9B8DF86E009DF96F009DF96D109DF927
:103350006E2003F079F9FFE743F2EC00C2F20000BF
:1033600090F90000002800F04882FFE79DF96F0007
:1033700001461991072800F22F821999DFE811F010
:1033800008009400D2006401010202020302040258
:103390009DF96D000146189140B1FFE7189801288A
:1033A0002DD0FFE71898022853D07CE043F23C4030
:1033B000C2F20000179090ED000A43F2EC00C2F256
:1033C000000090F9000001EE100AB8EEC11A30EECC
:1033D000010ABDEEC00A10EE102A6FF02F0018216E
:1033E00008F04AF90146179800EE101AB8EEC00A24
:1033F00080ED000A90ED000A0BF0F6FB53E043F27B
:103400003C40C2F20000169090ED030A43F2EC003B
:10341000C2F2000090F9000001EE100AB8EEC11AE5
:1034200030EE010ABDEEC00A10EE102A6FF02F0038
:10343000002108F021F90146169800EE101AB8EEA6
:10344000C00A80ED030A90ED030A4C200AF0D8FF71
:1034500029E043F23C40C2F20000159090ED040ACE
:1034600043F2EC00C2F2000090F9000001EE100AF5
:10347000B8EEC11A30EE010ABDEEC00A10EE102AF5
:103480006FF02F00002108F0F7F80146159800EEC4
:10349000101AB8EEC00A80ED040A90ED040A52201A
:1034A0000AF0AEFFFFE797E143F23C40C2F20000B2
:1034B00014904069FDF761F841EC100B8DED120B93
:1034C00043F2EC00C2F2000090F90000FDF725F88D
:1034D00041EC100B9FEDE61B53EC112B51EC100B44
:1034E000FCF7E9FE9DED120B41EC110B51EC110BB9
:1034F00053EC102BFCF738FE41EC100B51EC100B89
:10350000FDF74EF801EE100AB0EE0C0ADFEDDB0A13
:1035100008F088F8149880ED050A90ED050A0AF085
:10352000DBFF59E19DF96E000146119120B1FFE7E3
:103530001198012831D076E09DF96D0000EB400133
:1035400043F25440C2F20000109000EB810090ED75
:10355000010A43F2EC00C2F2000090F9000001EE13
:10356000100AB8EEC11A30EE010ABDEEC00A10EE24
:10357000102A6FF00B000C2108F07EF8014610981D
:1035800000EE101AB8EEC00A9DF96D1001EB410172
:1035900000EB810080ED010A45E09DF96D0000EB34
:1035A000400143F25440C2F200000F9000EB810052
:1035B0008068FCF7E2FF41EC100B8DED0C0B43F241
:1035C000EC00C2F2000090F90000FCF7A6FF41EC0D
:1035D000100B9FEDA51B53EC112B51EC100BFCF7BE
:1035E0006AFE9DED0C0B53EC102B41EC100B51ECD3
:1035F000100BFCF7B9FD41EC100B51EC100BFCF774
:10360000CFFF01EE100A9FED9C0AF2EE040A08F0CB
:1036100009F80F989DF96D1001EB410100EB810055
:1036200080ED020AFFE79DF96D0000EB400143F2D7
:103630005440C2F2000000EB810250F821005168B2
:1036400092680BF055F8C7E09DF96D0001460B91AB
:1036500040B1FFE70B98012829D0FFE70B9802281B
:103660004AD06EE043F21060C2F200000A9090ED82
:10367000010A43F2EC00C2F2000090F9000001EEF2
:10368000100AB8EEC11A30EE010ABDEEC00A10EE03
:10369000102A6FF00B000C2107F0EEFF01460A988C
:1036A00000EE101AB8EEC00A80ED010A49E043F2BC
:1036B0001060C2F20000099090ED040A43F2EC00A1
:1036C000C2F2000090F9000001EE100AB8EEC11A33
:1036D00030EE010ABDEEC00A10EE102A6FF00B00AA
:1036E0000C2107F0C9FF0146099800EE101AB8EE48
:1036F000C00A80ED040A24E043F21060C2F2000028
:10370000089090ED060A43F2EC00C2F2000090F936
:10371000000001EE100AB8EEC11A30EE010ABDEE4B
:10372000C00A10EE102A6FF00B000C2107F0A4FF66
:103730000146089800EE101AB8EEC00A80ED060A9D
:10374000FFE79DF86D6043F2106EC2F2000EDEF8E6
:103750000000DEF80410DEF80820DEF80C30DEF899
:1037600010C0DEF81440DEF81850EE46CEF80C60BB
:10377000CEF80850CEF80440CEF800C00BF0A8FBFD
:103780002AE029E028E027E043F2DC50C2F2000002
:10379000079090ED010A43F2EC00C2F2000090F9AC
:1037A000000001EE100AB8EEC11A30EE010ABDEEBB
:1037B000C00A10EE102A0020182107F05DFF014614
:1037C000079800EE101AB8EEC00A80ED010A90EDDD
:1037D000010A0BF0F5FFFFE79DF96F009DF96D10F1
:1037E0009DF96E200023069302F02EFF069843F207
:1037F000EC01C2F200010870FFE743F2E500C2F2FB
:103800000000C078E8B1FFE743F2E501C2F2000131
:1038100000200590C8709DF96F201CA989560139B8
:103820009DF96D20012307F043FF059B8DF86D0086
:103830009DF96F009DF96D109DF96E2002F004FF57
:10384000FFE743F2E500C2F20000007830B1FFE785
:1038500007F030FD03200AF045FD02E006F030F9E4
:103860000BE520B070BD00BF9A9999999999B93F1D
:10387000000000000000E03FCDCCCC3D0000C8427D
:1038800080B592B000208DF843000DF13E018A1CF6
:1038900040F26800C2F2000008901030FEF7ECFE23
:1038A000E2200DF12B0109911322FFF711F808997D
:1038B000DDF82B0000BAC86147F20B50C0F60100DA
:1038C0000CF0D4FC47F2D360C0F601000CF0CEFC43
:1038D000089801694269836947F2C070C0F6010027
:1038E0000CF0C4FCBDF83E10BDF8402047F29F70BC
:1038F000C0F601000CF0BAFC47F2EB60C0F6010024
:103900000CF0B4FC089841688268C36847F2FB6019
:10391000C0F601000CF0AAFC47F2B660C0F6010048
:103920000CF0A4FC9DF82B109DF82C20BDF82D0068
:1039300043BA47F24E50C0F601000CF097FC9DF8D8
:103940002F109DF830009DF831C001F00F010209E1
:1039500000F00F034FEA1C100CF00F0EEC46CCF8F1
:1039600004E0CCF8000047F24B70C0F601000CF008
:103970007DFC9DF832109DF833009DF834C001F0B5
:103980000F01020900F00F034FEA1C100CF00F0E9C
:10399000EC46CCF804E0CCF8000047F26770C0F6C3
:1039A00001000CF063FC9DF835109DF836009DF881
:1039B00037C001F00F01020900F00F034FEA1C109D
:1039C0000CF00F0EEC46CCF804E0CCF8000047F207
:1039D0008370C0F601000CF049FC9DF839209DF879
:1039E0003A00110902F00F02030947F21B70C0F6FA
:1039F00001000CF03BFC9DF83C209DF83D001109B6
:103A000002F00F02030947F23370C0F601000CF018
:103A10002DFC0999E6200F22FEF75AFF9DF82B1086
:103A20009DF82C309DF82D001A0903F00F03EC4689
:103A3000CCF8000047F26750C0F601000CF016FC0D
:103A40009DF82E109DF82F309DF830001A0903F0D4
:103A50000F03EC46CCF8000047F2ED50C0F6010031
:103A60000CF004FC9DF831109DF832309DF83300C5
:103A70001A0903F00F03EC46CCF8000047F273601C
:103A8000C0F601000CF0F2FB9DF834109DF83530C3
:103A90009DF836001A0903F00F03EC46CCF800003D
:103AA00047F2AA50C0F601000CF0E0FB9DF8371079
:103AB0009DF838309DF839001A0903F00F03EC46E1
:103AC000CCF8000047F23060C0F601000CF0CEFBED
:103AD00047F2D270C0F601000CF0C8FB9DF943001C
:103AE000012103F0ADF8FFE743F2E500C2F2000068
:103AF0004078B0B1FFE743F2E501C2F200010020D7
:103B000048709DF9430008B9FFE7EDE79DF84300D1
:103B100001388DF843009DF94300002103F090F82F
:103B2000FFE743F2E500C2F200008078B8B1FFE79A
:103B300043F2E501C2F20001002088709DF94300C4
:103B4000042801D1FFE7CFE79DF8430001308DF84D
:103B500043009DF94300002103F072F8FFE743F2B0
:103B6000E500C2F20000C078002800F09A80FFE76C
:103B70009DF9430001460791042800F281800799CE
:103B8000DFE801F0030F1B27280040F26801C2F2B2
:103B9000000191F82F00B0FA80F0400981F82F0061
:103BA00072E043F2A261C2F2000191F82000B0FA83
:103BB00080F0400981F8200066E040F26801C2F21E
:103BC000000191F83000B0FA80F0400981F830002F
:103BD0005AE059E043F2E501C2F200010020C8704A
:103BE0006946C8600320886040F22000C2F20000ED
:103BF000486047F61E00C0F6010008600820182142
:103C0000F8226023FEF732FCFFE743F2E500C2F240
:103C10000000C078022822D1FFE740F60040C4F23D
:103C200001004FF4807107F08BFB4FF47A7006901F
:103C300006F0A2FD069806F09FFD069806F09CFD92
:103C4000069806F099FD069806F096FD72B60120DA
:103C50001190119880F3138800F01EFDFFE743F2E6
:103C6000E500C2F20000007818B1FFE707F022FB80
:103C700000E0CAE79DF94300012102F0E1FF03E003
:103C800000208DF84300FFE79DF9430000210591D6
:103C900002F0D6FF059843F2E501C2F20001C870B8
:103CA000FFE743F2EC00C2F2000090F9000018B107
:103CB000FFE707F0FFFAFFE743F2E500C2F200007A
:103CC000007830B1FFE707F0F5FA00200AF00AFBB0
:103CD00002E005F0F5FE07E712B080BD80B588B0C0
:103CE00043F2D800C2F200000121017000208DF8DB
:103CF0001F009DF91F0003F09DF908F07FFDFFE70D
:103D000043F2E500C2F200004078C0B1FFE743F2A1
:103D1000E501C2F20001002048709DF91F0008B9BA
:103D2000FFE7EDE79DF81F0001388DF81F009DF9B2
:103D30001F00002103F07EF908F060FDFFE743F269
:103D4000E500C2F200008078C8B1FFE743F2E50168
:103D5000C2F20001002088709DF91F00062801D1E1
:103D6000FFE7CDE79DF81F0001308DF81F009DF99A
:103D70001F00002103F05EF908F040FDFFE743F269
:103D8000EC00C2F2000090F90000002800F0A580CD
:103D9000FFE79DF91F0001460691062800F28A8080
:103DA0000699DFE801F0041E3A5354556E0043F2C1
:103DB0002C60C2F20000059090F9000043F2EC0183
:103DC000C2F2000191F9001042180020642107F0AE
:103DD00053FC01460598017001780120FDF7A0F918
:103DE0006CE043F22C60C2F200000490B0F90400D1
:103DF00043F2EC01C2F2000191F9001001EB8101E4
:103E0000421800203C2107F037FC049988808888FC
:103E100000EB80004000886050E043F22C60C2F26A
:103E200000000390C08843F2EC01C2F2000191F956
:103E30000010421855204FF4B47107F01DFC0146E4
:103E40000398C180C088FDF755FA37E036E035E0C9
:103E500043F22C60C2F200000290817890F90100D8
:103E600043F2EC02C2F2000292F900200244002068
:103E700007F002FC0299487048788978FDF79CFAAF
:103E80001CE043F22C61C2F200010191487891F9E3
:103E9000021043F2EC02C2F2000292F900200A443E
:103EA0001F2107F0E9FB0199887048788978FDF7B0
:103EB00083FA03E000208DF81F00FFE79DF91F0043
:103EC0000021009103F0B6F808F098FC009843F246
:103ED000EC01C2F200010870FFE743F2E500C2F214
:103EE0000000C078B0B3FFE79DF91F00032815D18B
:103EF000FFE743F22C60C2F20000C2780121914337
:103F0000C170C07800F00100FDF78EFA9DF91F0026
:103F1000002103F08FF808F071FCFFE79DF91F0006
:103F2000042810D1FFE743F22C61C2F200010A7BA2
:103F30000120904308739DF91F00002103F07AF8D7
:103F400008F05CFCFFE743F2E501C2F2000100204B
:103F5000C870FFE743F2E500C2F20000007860B1EC
:103F6000FFE707F0A7F902200AF0BCF943F2D801F5
:103F7000C2F200010020087002E005F0A1FDBFE6DA
:103F800008B080BD80B582B000208DF807009DF993
:103F90000700012105F002F8FFE743F2E500C2F255
:103FA00000004078B0B1FFE743F2E501C2F2000142
:103FB000002048709DF9070008B9FFE7EDE79DF87C
:103FC000070001388DF807009DF90700002104F073
:103FD000E5FFFFE743F2E500C2F200008078B8B1E8
:103FE000FFE743F2E501C2F20001002088709DF96D
:103FF0000700052801D1FFE7CFE79DF80700013052
:104000008DF807009DF90700002104F0C7FFFFE7C6
:1040100043F2E500C2F20000C07850B3FFE707F0BA
:1040200049F99DF9070001460091052817D8009924
:10403000DFE801F00306090C0F12FFF74FFE12E054
:10404000FFF7FEF80FE000F027F80CE000F01AFA96
:1040500009E0FFF715FC06E0FFF7DCF803E00020BD
:104060008DF80700FFE79DF90700012104F096FF96
:10407000FFE743F2E500C2F20000007830B1FFE74D
:1040800007F018F9012003F01BFF02E005F018FD0E
:1040900083E702B080BD000080B58EB000208DF8AF
:1040A000370043F2A260C2F2000090F8200000281E
:1040B00018BF01208DF835009DF93700012105F06A
:1040C000A9F8FFE743F2E500C2F200004078B0B182
:1040D000FFE743F2E501C2F20001002048709DF9BC
:1040E000370008B9FFE7EDE79DF8370001388DF894
:1040F00037009DF93700002105F08CF8FFE743F207
:10410000E500C2F200008078B8B1FFE743F2E501B4
:10411000C2F20001002088709DF937000B2801D100
:10412000FFE7CFE79DF8370001308DF837009DF9A4
:104130003700002105F06EF8FFE743F2E500C2F218
:104140000000C078002800F09D80FFE79DF937004F
:1041500001460C910B2800F284800C99DFE801F0F5
:1041600006074344455667727D7E7F807DE09DF85B
:104170003500C007B0B3FFE743F2A260C2F200000F
:104180000B9090F828100120884301F0A7F90B98B4
:1041900090F82800C00748B1FFE741F20000C4F2E0
:1041A00001004FF4006107F0CBF81AE043F2A2607F
:1041B000C2F2000090F8270090B9FFE743F2A26036
:1041C000C2F2000090F82800C00748B9FFE741F2AA
:1041D0000000C4F201004FF4006107F0A9F8FFE706
:1041E000FFE7FFE741E040E03FE09DF83500C00712
:1041F00058B1FFE743F2A260C2F2000090F82C1021
:104200000120884301F004F9FFE72EE09DF8350016
:10421000C00758B1FFE743F2A260C2F2000090F875
:1042200029100120884301F0AFF8FFE71DE043F2B9
:10423000A260C2F2000090F82A100120884301F029
:1042400039F912E043F2A260C2F2000090F82B109C
:104250000120884301F0B6F807E006E005E004E03D
:1042600003E000208DF83700FFE79DF937000021BB
:104270000A9104F0CFFF0A9843F2E501C2F200016F
:10428000C870FFE743F2EC00C2F2000090F90000B2
:10429000002800F0E580FFE79DF93700014609910D
:1042A0000B2800F2CC800999DFE801F0064E4F6B35
:1042B000868788898AA9C7C843F2A260C2F2000033
:1042C000089090F8270043F2EC01C2F2000191F946
:1042D000001042180020012107F0CEF9014608988D
:1042E00080F8271090F82700012809D1FFE741F254
:1042F0000000C4F201004FF4006107F021F81AE059
:1043000043F2A260C2F2000090F8270090B9FFE7E4
:1043100043F2A260C2F2000090F82800C00748B93A
:10432000FFE741F20000C4F201004FF4006106F023
:10433000FFFFFFE7FFE743F2A260C2F2000090F840
:10434000270001F009F87EE07DE043F2A260C2F2AE
:104350000000079090F8320043F2EC01C2F2000135
:1043600091F9001042180020032107F085F9079900
:1043700081F8320091F8320081F8330001F0F8F949
:1043800061E043F2A260C2F20000069090F83100B2
:1043900043F2EC01C2F2000191F900104218012031
:1043A000022107F069F90146069880F8311090F86B
:1043B000310001F01BF846E045E044E043E042E014
:1043C00043F2A260C2F200000590C17C2D3004903F
:1043D000405C43F2EC01C2F2000191F90010421876
:1043E0000020032107F048F9049902460598C37C90
:1043F000CA54C07C0A5C114601F0D2F823E043F2B3
:10440000A260C2F200000290C17C34300390405C94
:1044100043F2EC01C2F2000191F9001042180020B1
:10442000042107F029F9029902460398CB7CC25473
:10443000C97C405C01F0F0F905E004E003E00020F5
:104440008DF83700FFE79DF937000021019104F056
:10445000E1FE019843F2EC01C2F200010870FFE7AF
:1044600043F2E500C2F20000007830B1FFE706F049
:1044700021FF012009F036FF02E005F021FB21E6D3
:104480000EB080BD80B58AB000208DF827009DF960
:104490002700012105F086F9FFE743F2E500C2F2AB
:1044A00000004078B0B1FFE743F2E501C2F200013D
:1044B000002048709DF9270008B9FFE7EDE79DF857
:1044C000270001388DF827009DF92700002105F00D
:1044D00069F9FFE743F2E500C2F200008078B8B165
:1044E000FFE743F2E501C2F20001002088709DF968
:1044F0002700052801D1FFE7CFE79DF8270001300D
:104500008DF827009DF92700002105F04BF9FFE702
:1045100043F2E500C2F20000C07838B3FFE79DF92E
:1045200027000146089105280FD80899DFE801F017
:104530000304050607080CE00BE00AE009E008E0C8
:1045400000F0ECFB09F044FE03E000208DF82700AA
:10455000FFE79DF927000021079105F023F907984F
:1045600043F2E501C2F20001C870FFE743F2EC003C
:10457000C2F2000090F90000002800F07880FFE708
:104580009DF927000146069105285FD80699DFE8C6
:1045900001F003172B3F5B5C43F2A260C2F2000004
:1045A0000590C07B43F2EC01C2F2000191F90010CA
:1045B00042180020032107F05FF80599C87349E00D
:1045C00043F2A260C2F200000490407B43F2EC018F
:1045D000C2F2000191F9001042180020012107F0F9
:1045E0004BF80499487335E043F2A260C2F2000030
:1045F0000390807B43F2EC01C2F2000191F90010BC
:10460000421805203C2107F037F80399887321E010
:1046100043F2A260C2F20000029090F9100043F24F
:10462000EC01C2F2000191F90010421809200A21A0
:1046300007F022F8014602980174007C40F2600104
:10464000C2F20001887005E004E003E000208DF86C
:104650002700FFE79DF927000021019105F0A2F84E
:10466000019843F2EC01C2F200010870FFE743F247
:10467000E500C2F20000007830B1FFE706F01AFE54
:10468000012009F02FFE02E005F01AFA05E70AB052
:1046900080BD000070470000BFF34F8F4EF60C51F5
:1046A000CEF20001086800F4E0600422C0F2FA5281
:1046B00010430860BFF34F8FFFE7FEE7704700002D
:1046C00080B584B00390039943F23840C2F20000F1
:1046D00001900160026800210291518043F2324250
:1046E000C2F20002118000680430092120220092E9
:1046F000FCF7EAFE009A019800680D300821FCF7EB
:10470000E3FE009A01980299036859750068163013
:104710004021FCF7D9FE019902980A6882F85600F8
:104720000A6882F858000A6882F859000968087017
:1047300004B080BD80B584B043F23840C2F20000BE
:104740000290026800210391518043F23242C2F28A
:104750000002118000680430092120220192FCF738
:10476000B3FE019A029800680D300821FCF7ACFEF8
:10477000019A029803990368597500681630402120
:10478000FCF7A2FE029903980A6882F856000968AD
:10479000087004B080BD000081B08DF803009DF862
:1047A0000300002848D1FFE740F26800C2F2000091
:1047B00090F82010013180F8201090F820003C285B
:1047C0000DD1FFE740F26801C2F20001002081F83C
:1047D000200091F82100013081F82100FFE740F22C
:1047E0006800C2F2000090F821003C280DD1FFE7DC
:1047F00040F26801C2F20001002081F8210091F826
:104800002200013081F82200FFE740F26800C2F286
:10481000000090F8220018280DD1FFE740F268014F
:10482000C2F20001002081F8220091F8230001303B
:1048300081F82300FFE7FFE79DF80300012811D16D
:10484000FFE743F2A260C2F2000090F820000128C6
:1048500007D1FFE743F2D601C2F200010120087040
:10486000FFE7FFE701B0704780B582B0012009F093
:104870001DFC38B1FFE7012009F00CFC0020FFF718
:104880008BFF17E0022009F011FC90B1FFE7022036
:1048900009F000FC09F03CFC09F020FC01900198B3
:1048A00042F2D871084409F06BFC0120FFF774FF55
:1048B000FFE7FFE702B080BD80B582B040F21B7019
:1048C00009F028FA40F21C7009F024FA08F05EFFA3
:1048D00005F0E6FC4FF40060019009F0E7F801985C
:1048E00009F0F8F84FF4807009F050FA40F60F0024
:1048F00009F010FA09F030FC09F00AFC012009F077
:10490000FBFB09F005FC47F6FF7009F00DFC09F010
:10491000FFFB002009F050FC42F2D87009F030FC97
:1049200002B080BD80B586B004900020ADF80E00C6
:104930000498FCF79FFB012830D1FFE7049806217B
:10494000FCF782FB8DF80C00049802210091FCF723
:104950007BFB00998DF80D0003A80190FCF7DCFDAE
:10496000014601988DF80B109DF80B10405C002853
:104970000FDCFFE79DF80B0028B9FFE7049840889B
:10498000ADF80E0004E00498C088ADF80E00FFE713
:1049900003E00020ADF8160031E010E00498062195
:1049A000FCF752FB002805DCFFE704984088ADF8CF
:1049B0000E0003E00020ADF8160020E0FFE7BDF890
:1049C0000E0043F23241C2F200010988884211D040
:1049D000FFE7BDF80E0043F23241C2F20001088049
:1049E00043F23840C2F200000168087840F001004C
:1049F0000870FFE7BDF80E00ADF81600FFE7BDF840
:104A0000160006B080BD000080B582B00190002184
:104A10008DF803100198808800F003008DF80300E2
:104A20000198FCF711FB002818DCFFE70198417A98
:104A300043F23840C2F2000002689DF8033002EBF6
:104A4000430251730199098902689DF8033002EB12
:104A500043029173016800204875FFE700208DF83C
:104A60000200FFE79DF8020007282CDCFFE743F275
:104A70003840C2F2000000689DF802201044407BDC
:104A800043F2B001C2F20001895C884214D0FFE712
:104A900043F23840C2F200000268117841F004018C
:104AA000117000689DF802201044407B43F2B00171
:104AB000C2F200018854FFE7FFE79DF802000130D1
:104AC0008DF80200CEE702B080BD000080B584B052
:104AD000039000208DF80B000398808800F00F00F1
:104AE0008DF80B0003988088C0F3001043F2384122
:104AF000C2F200010A6882F8570043F2B800C2F21D
:104B000000000078096891F85710884223D0FFE729
:104B100043F23840C2F20000019000681630402194
:104B20002022FCF7D1FC01980268002182F856107F
:104B300003681A7802F0F7021A7043F2AE02C2F26A
:104B400000021180006890F8570043F2B801C2F2E9
:104B500000010870FFE70398FCF78CFA00285DD18C
:104B6000FFE703980221FCF76FFA002838DCFFE723
:104B700003980021FCF768FA002831DCFFE703986E
:104B8000C07943F23841C2F200010A689DF80B3047
:104B900002EB830290750398C0880A689DF80B3079
:104BA00002EB8302D0750398407A0A689DF80B30B7
:104BB00002EB830210760398008909689DF80B20A8
:104BC00001EB820148769DF80B10012000FA01F2FA
:104BD00043F2AE01C2F20001088810430880FFE7EB
:104BE00043F2AE00C2F2000000884FF6FF71884227
:104BF00013D1FFE743F23840C2F200000268117897
:104C000041F0080111700168002081F8560043F25C
:104C1000AE01C2F200010880FFE745E003980021E1
:104C2000FCF712FA002821DCFFE70398407A43F2F0
:104C30003841C2F200010A689DF80B3002EB4302D2
:104C400090750398008909689DF80B2001EB4201DB
:104C5000C8759DF80B10012000FA01F243F2AE0175
:104C6000C2F20001088810430880FFE743F2AE005B
:104C7000C2F2000000884FF6FF71884213D1FFE7AF
:104C800043F23840C2F200000268117841F0080196
:104C900011700168002081F8360043F2AE01C2F2C3
:104CA00000010880FFE7FFE704B080BD7047000007
:104CB00080B54FF4407008F05BFD0AF0D5FF40F27C
:104CC000026009F027F840F2036009F023F840F28F
:104CD000046009F01FF840F2056009F01BF84FF47A
:104CE000C06009F017F840F2047009F013F840F2C0
:104CF000057009F00FF840F2096009F00BF8072081
:104D000008F04EFD40F21D7009F004F840F20E600C
:104D100009F000F8052005F02FFD80BD80B58EB0AC
:104D2000002005908DF834000C908DF82F00ADF820
:104D30002C00ADF82A00ADF8280043F2A261C2F2BF
:104D4000000106910A4612F8123FADF8263013789A
:104D500002EB43025288ADF82420CA7C114491F83A
:104D600021108DF82310ADF820008DF81F0043F2BC
:104D7000D901C2F200010120087000F0E7FB05999B
:104D80000698BDF8263043F2FC02C2F20002D1546C
:104D9000C07C20B9FFE7032000F0BEFB03E0062043
:104DA00000F0BAFBFFE7BDF8263047F29240C0F6AC
:104DB000010030F8132047F28A40C0F6010030F8B5
:104DC000131043F2FC00C2F20000C35CEC46012069
:104DD000CCF800001046FDF7CDFA43F2A260C2F213
:104DE0000000807C032840F0C580FFE743F2A2600A
:104DF000C2F20000407B002800F0BC80FFE70020EA
:104E00008DF82F00FFE79DF82F000D2800F3B180EB
:104E1000FFE79DF82F1047F2B240C0F6010030F8CE
:104E20002100ADF820000020ADF82C00FFE7BDF810
:104E30002C009DF82F3047F2B242C0F6010202EB7F
:104E40008301498832F82320891ABDF8263040F2C0
:104E50006002C2F20002D25C91FBF2F188426ADA8F
:104E6000FFE7BDF82000022101F0D2FA07F090FA26
:104E70008DF81F009DF81F00C007D8B1FFE7BDF8EF
:104E80002000BDF8263043F20012C2F20002C82111
:104E900003FB012243F2FC01C2F20001CB5C22F8C9
:104EA0001300BDF82620885C0130885400208DF85E
:104EB0001F00FFE747F2B241C0F601010888C98E22
:104EC000BDF82020BDF826C043F2FC03C2F2000367
:104ED00013F80C30EE464FF0000CCEF800C0FDF792
:104EE00049FABDF82000BDF8262040F26001C2F268
:104EF0000001895C0844ADF8200043F2E500C2F2ED
:104F00000000007878B9FFE7BDF8262043F2FC00E6
:104F1000C2F20000805C47F28541C0F60101895C65
:104F2000884201D1FFE706E0FFE7BDF82C00013021
:104F3000ADF82C007BE743F2E500C2F200000078F8
:104F400078B9FFE7BDF8262043F2FC00C2F200006A
:104F5000805C47F28541C0F60101895C884201D13D
:104F6000FFE706E0FFE79DF82F0001308DF82F00E6
:104F700049E7CDE0BDF82600A0B9FFE743F2A26102
:104F8000C2F20001CA7B47F2A240C0F6010030F82D
:104F90002220ADF82A20C97B00EB81004088ADF8C3
:104FA00028002BE0BDF82600022811D1FFE740F2CF
:104FB0006000C2F2000080780A2809D1FFE740F2C1
:104FC0001220ADF82A0040F2AE60ADF8280014E0DF
:104FD000BDF8261047F29240C0F6010030F81100EB
:104FE000ADF82A00BDF8261047F28A40C0F601004D
:104FF00030F81100ADF82800FFE7FFE7BDF82A0000
:10500000ADF820000020ADF82C00FFE7BDF82C0023
:10501000BDF82810BDF82A20891ABDF8263040F2C4
:105020006002C2F20002D25C91FBF2F188426EDAB9
:10503000FFE7BDF82000022101F0EAF907F0A8F926
:105040008DF81F009DF81F00C007D8B1FFE7BDF81D
:105050002000BDF8263043F20012C2F20002C8213F
:1050600003FB012243F2FC01C2F20001CB5C22F8F7
:105070001300BDF82620885C0130885400208DF88C
:105080001F00FFE7BDF82A00BDF82810BDF820205A
:10509000BDF826C043F2FC03C2F2000313F80C3043
:1050A000EE464FF0000CCEF800C0FDF763F9BDF8F6
:1050B0002000BDF8262040F26001C2F20001895CA8
:1050C0000844ADF8200043F2E500C2F20000007889
:1050D00078B9FFE7BDF8262043F2FC00C2F20000D9
:1050E000805C47F28541C0F60101895C884207D1A6
:1050F000FFE743F2E501C2F200010020087006E07C
:10510000FFE7BDF82C000130ADF82C007EE7FFE78B
:10511000BDF8262043F2F801C2F2000100200490FD
:1051200088549DF8230000F0F7F9BDF82400012110
:1051300001F06EF9049800F009FA049843F2D901DD
:10514000C2F20001087043F2E500C2F200000078EC
:10515000B8B1FFE769460320C8600020886040F2CC
:105160000800C2F20000486047F61900C0F60100CE
:105170000860622036214FF0FF331A46FDF776F9BA
:1051800016E069460320C8600020886040F20800ED
:10519000C2F20000486047F61400C0F60100086043
:1051A000622036214FF0FF331A46FDF75FF9FFE723
:1051B00006F080F80EB080BD80B58AB08DF827006B
:1051C00043F2D901C2F200010120069008700020CC
:1051D0008DF8260043F2A260C2F20000079001465B
:1051E00011F8122F01EB42014988ADF82410BDF8E7
:1051F0002410ADF82210C17C084490F821008DF8ED
:105200002100FFF797FA069800F0A0F90798C07CF4
:1052100020B9FFE7032000F07FF903E0062000F04B
:105220007BF9FFE7FFE79DF82600C007002878D14B
:10523000FFE743F2EC00C2F2000090F90000F0B189
:10524000FFE743F2EC01C2F2000100200590087074
:105250009DF8210000F060F9BDF8220001210491C1
:1052600001F0D6F8049802F02BFE059800F06EF9D4
:10527000059843F2D901C2F20001087069E0BDF857
:1052800022309DF9270043F2A261C2F2000191F899
:1052900012C040F26002C2F2000212F80C2010FBB1
:1052A0000230ADF82200BDF822008A7C47F28A4124
:1052B000C0F6010131F91210884210DCFFE7BDF899
:1052C000220043F2A261C2F200018A7C47F29241BD
:1052D000C0F6010131F91210884218DAFFE79DF893
:1052E000210000F019F9BDF824000121029101F01C
:1052F0008FF8029802F0E4FD0020039000F026F9F8
:10530000039843F2D901C2F20001087021E0BDF810
:105310002200022101F07CF807F03AF88DF826000F
:1053200081E79DF8210000F0F7F8BDF82200012187
:10533000009101F06DF8009802F0C2FD002001908C
:1053400000F004F9019843F2D901C2F2000108709B
:10535000FFE70AB080BD000080B582B08DF807007D
:105360009DF80700022801DBFFE70BE09DF807002E
:1053700043F2DC61C2F20001096881F8270000F005
:105380001DFBFFE702B080BD80B582B08DF807003D
:1053900043F2DC60C2F20000006890F8200008B917
:1053A000FFE70DE09DF8070043F2DC61C2F2000167
:1053B000096800F0010081F8290000F041F9FFE7D9
:1053C00002B080BD80B582B08DF807009DF807005F
:1053D00043F2DC61C2F20001096800F0010081F8CB
:1053E0002B0000F02DF902B080BD000080B582B026
:1053F0008DF807009DF8070043F2DC61C2F200015E
:10540000096881F8310000F0B3F902B080BD0000F6
:1054100080B586B08DF8170043F2DC60C2F2000060
:10542000006890F8200008B9FFE740E09DF81700F9
:1054300043F2DC61C2F20001096800F0010081F86A
:105440002C009DF81700C007B8B1FFE702200390B9
:1054500019210022049200F053FC0398049A792148
:1054600000F04EFC0398049A1D2100F049FC0398BB
:10547000049A7D2100F044FC16E0022001901921DD
:105480003F22029200F03CFC0198029A792100F040
:1054900037FC0198029A1D2100F032FC0198029A13
:1054A0007D2100F02DFCFFE700F062F9FFE706B078
:1054B00080BD000080B582B08DF807009DF8070020
:1054C00043F2DC61C2F20001096800F0010081F8DA
:1054D0002A0000F0B5F802B080BD000080B582B0AF
:1054E0008DF8070043F2DC60C2F20000006890F81B
:1054F000200008B9FFE70DE09DF8070043F2DC61EA
:10550000C2F20001096800F0010081F8280000F0F3
:1055100055FAFFE702B080BD80B582B08DF8070074
:105520009DF80700102801DBFFE70DE09DF807005C
:1055300043F2DC61C2F200010968CA7C114481F8BF
:10554000210000F01FFAFFE702B080BD80B582B0F5
:105550008DF807009DF8071043F2DC60C2F20000EE
:10556000026801F00101D1700068C078C00728B15D
:10557000FFE70020012109F061FC0EE043F2DC604E
:10558000C2F200000068C078C00728B9FFE7002118
:10559000084609F053FCFFE7FFE702B080BD0000BA
:1055A00080B582B08DF807008DF806108DF80520C3
:1055B0009DF80600032805DCFFE79DF80500042898
:1055C00001DBFFE713E09DF8060043F2DC61C2F265
:1055D00000010A689DF807301A4482F82D009DF8F2
:1055E0000500096881F82F0000F02AF8FFE702B0F3
:1055F00080BD000080B582B08DF807008DF80610E0
:1056000000208DF8050043F2DC60C2F20000006863
:10561000C07C08B1FFE711E09DF807109DF8060077
:1056200000EB81019DF8050008438DF80500072077
:105630000DF10501012200F039FBFFE702B080BD4A
:1056400080B582B000208DF8070043F2DC60C2F222
:1056500000000068C07C002860D1FFE743F2DC60F6
:10566000C2F20000006890F82A00C00738B1FFE7D6
:105670009DF8070040F080008DF8070006E09DF8D7
:10568000070000F07F008DF80700FFE743F2DC60C1
:10569000C2F20000006890F82B00C00738B1FFE7A5
:1056A0009DF8070040F040008DF8070006E09DF8E7
:1056B000070000F0BF008DF80700FFE743F2DC6051
:1056C000C2F20000006890F82900C00738B1FFE777
:1056D0009DF8070040F020008DF8070006E09DF8D7
:1056E000070000F0DF008DF80700FFE743F2DC6001
:1056F000C2F200000068C17C084490F82D0000F060
:1057000003019DF8070040EA81008DF807009DF82D
:10571000070040F002008DF8070021E09DF8070027
:1057200040F040008DF8070043F2DC60C2F2000058
:105730000168CA7C114491F82D1001F003029DF814
:10574000071041EA82018DF80710006890F82F00D9
:1057500000F003019DF8070008438DF80700FFE7FC
:1057600005200DF10701012200F0A0FA02B080BD72
:1057700080B582B000208DF8070043F2DC60C2F2F1
:1057800000000068C07C70BBFFE743F2DC60C2F23F
:105790000000006890F8300038B9FFE79DF8070076
:1057A00040F080008DF80700FFE743F2DC60C2F2B2
:1057B0000000006890F82C00C00738B1FFE79DF8A2
:1057C000070040F020008DF80700FFE743F2DC609F
:1057D000C2F20000006890F831109DF807000843FD
:1057E0008DF8070010E043F2DC60C2F200000168AF
:1057F00091F8320091F8331000EB81019DF8070019
:1058000008438DF80700FFE706200DF1070101228C
:1058100000F04CFA02B080BD80B586B08DF817005C
:1058200043F2DC60C2F200000068C07C002853D163
:10583000FFE79DF817000146049104284BD804990E
:10584000DFE801F003111F2D3B0069460C20886042
:10585000332048603A20086006200D21652200238D
:1058600000F04EFA37E069460C208860332048602B
:105870001520086006200D216522102300F040FA53
:1058800029E069460C208860332048603A2008608F
:1058900006200D216522102300F032FA1BE0694634
:1058A00008208860332048603A20086006200D21D7
:1058B00065221E2300F024FA0DE069460520886069
:1058C000552048603A20086006200D2165222A23D1
:1058D00000F016FAFFE752E09DF817000146039129
:1058E00004284BD80399DFE801F003111F2D3B007A
:1058F00069460C208860332048603A200860062002
:105900000D216022002300F0FBF937E069460C20EE
:105910008860332048603A20086006200D2160220C
:10592000102300F0EDF929E069460C20886033204F
:1059300048603A20086006200D216022902300F084
:10594000DFF91BE069460520886033204860492064
:10595000086006200D216022D02300F0D1F90DE06F
:10596000694604208860332048604D200860062086
:105970000D216022D02300F0C3F9FFE7FFE706B056
:1059800080BD000080B582B000208DF8070043F292
:10599000DC60C2F200000068C17C014491F8210083
:1059A00091F8231000EB81108DF8070003200DF112
:1059B0000701012200F07AF902B080BD80B582B003
:1059C00000208DF807008DF8060043F2DC60C2F27B
:1059D00000000068C07C002858D1FFE743F2DC607B
:1059E000C2F20000006890F82500C00738B1FFE758
:1059F0009DF8070040F080008DF8070006E09DF854
:105A0000070000F07F008DF80700FFE79DF8070012
:105A10008DF8060043F2DC60C2F20000006890F8E6
:105A2000270000F001019DF8070040EA81008DF891
:105A300007009DF807004007002807D5FFE79DF8FD
:105A4000060000F0FB008DF8060006E09DF8060059
:105A500040F004008DF80600FFE743F2DC60C2F27C
:105A60000000006890F82800C00738B1FFE79DF8F3
:105A7000070040F001008DF8070006E09DF80700E0
:105A800000F0FE008DF80700FFE718E043F2DC604D
:105A9000C2F20000006890F82600C00738B1FFE7A6
:105AA0009DF8070040F080008DF8070006E09DF8A3
:105AB000070000F07F008DF80700FFE7FFE70420F4
:105AC0000DF107010122009200F0F0F8009A642025
:105AD0000DF1060100F0EAF802B080BD0000000000
