:020000040800F2
:10000000E82E002045010008214400080D290008C1
:10001000CD2F0008710F0008F993000800000000C0
:10002000000000000000000000000000D9490008A6
:10003000BD1100080000000049440008095B0008E9
:100040005F0100085F0100085F010008914500089A
:100050005F0100085F0100085F0100085F01000800
:100060005F0100085F0100085F0100085F010008F0
:100070005F0100085F0100085F0100081911000816
:100080005F0100085F010008D10800085F01000857
:100090005F0100085F0100085F0100085F010008C0
:1000A0005F0100085F0100085F0100085F010008B0
:1000B0005F0100085F0100085F0100085F010008A0
:1000C0005F0100085F0100085F0100085F01000890
:1000D0005F0100085F0100085F0100085F01000880
:1000E0005F0100085F0100085F0100085F01000870
:1000F0005F0100085F0100085F0100085F01000860
:100100005F0100085F0100085F0100085F0100084F
:100110005F0100085F010008ED5B00080D5C00084E
:100120005F0100085F0100085F0100085F0100082F
:10013000DFF80CD000F0BAFB00480047B9C3000854
:10014000E82E00200648804706480047FEE7FEE705
:10015000FEE7FEE7FEE7FEE7FEE7FEE7FEE7FEE777
:100160000D5B0008310100082DE9FE4F804681EA51
:100170000300C00F0C46009021F0004123F0004521
:10018000B8EB0200A94105D24046214690461C46E4
:100190000B46024623F00040104347D0270DC7F31B
:1001A0000A00C3F30A510290401A019040286BDA0A
:1001B000C3F3130040F4801B0098924620B1002343
:1001C000D2EB030A63EB0B0B01985946C0F14002D6
:1001D000504600F055FA06460D4650465946019ADB
:1001E00000F06DFA10EB08006141002487EA11521B
:1001F00084EAE7731A4340D0009A62B3019A012A55
:100200004FEA075215DC001B61EB02014FF0004280
:1002100002EA0752CDE90042001C41F58011324646
:100220002B4600F0C2FA03B0BDE8F08F40462146ED
:10023000F9E7001B61EB0201001C41F58013001877
:100240005B412018A2F5001747EB030140EAD57087
:10025000B6196D4111E06D084FEA360645EAC075E2
:100260004FEA0752001B61EB0201001C41F58011AF
:1002700049084FEA30000019514132462B4603B07D
:10028000BDE8F04F00F082BA009801224000002340
:10029000D0EB020263EBE073009821464FEAE07472
:1002A000B8EB000061EB0401E9E783F000435BE792
:1002B00081F0004158E72DE9FE4F81EA030404F084
:1002C000004421F0004100944FF0000B23F0004364
:1002D00050EA01045ED052EA03045BD0C3F30A542F
:1002E000C1F30A552C44A4F2F3340194A0FB025448
:1002F000C1F3130141F48011C3F3130343F48013DA
:1003000001FB024400FB034E840A970A44EA81542D
:1003100047EA8357A4FB076802958D0A05FB07850A
:100320004FEA932C04FB0C542705029D4FEA065814
:1003300047EA1637B5EB08056EEB070C870E920EF1
:1003400047EA811742EA8312A7FB0201B6EB0B01D1
:1003500064EB00042B0D43EA0C335E1844EB1C5095
:10036000DA465146E7FB0201C5F313044FEA0B33AB
:1003700043EA14534FEA0432019C43EA0603A4F112
:100380000C040294009CCDE900B400F00EFA03B016
:10039000BDE8F08F00200146F9E72DE9F04D81EA34
:1003A000030404F0004B21F0004514464FF0000A0E
:1003B00023F0004150EA050220D054EA01021DD08A
:1003C000C5F30A570246C5F31303C1F31300C1F383
:1003D0000A5640F4801543F48013A7EB0608101B5F
:1003E000D64608F2FD3873EB050002D308F1010888
:1003F00001E092185B41B8F1000F03DA00200146DA
:10040000BDE8F08D00204FF48011064684460EE0D2
:10041000171B73EB050705D3121B63EB050306439C
:100420004CEA010C49084FEA300092185B4150EA4F
:100430000107EDD152EA030012D082EA040083EAF8
:100440000501084305D0101BAB4106D20122002351
:1004500006E000224FF0004302E06FF0010253106B
:100460001AEB06004CEB085110EB0A0041EB0B01B4
:10047000BDE8F04D00F08AB930B5041E71F10004FA
:1004800004DB4FF00044404264EB0101141E73F1A1
:10049000000405DB1C464FF00043524263EB0403AB
:1004A000801A994101D3012030BD002030BD30B504
:1004B000041E71F1000404DB4FF00044404264EB81
:1004C0000101141E73F1000405DB1C464FF00043CC
:1004D000524263EB0403101A8B4101D2012030BD5C
:1004E000002030BD30B5041E71F1000404DB4FF074
:1004F0000044404264EB0101141E73F1000405DB6B
:100500001C464FF00043524263EB0403101A8B4128
:1005100001D3012030BD002030BD0EB5C10F80EAEF
:10052000E0700844CA07002140F233438DE80E0012
:100530000A460B4600F039F903B000BD0EB540F293
:10054000334102910021CDE900110A460B4600F02B
:100550002CF903B000BD70B5C1F30A5201F000459B
:100560000024C1F3130140F2FF3341F480119A4299
:1005700001DA002070BD40F233439A42A2F23342C6
:1005800003DC524200F08BF800E090402C43F1D0A5
:10059000404270BD00F0004230F000400AD0C10D72
:1005A00001F56071C0F3160042EA0151C20840072C
:1005B0001143704700200146704701F0004330B4FA
:1005C00021F0004150EA010206D00A0DA2F5607246
:1005D000C1F31301002A02DC30BC00207047440F35
:1005E00044EAC104C100E01830BC00EBC25000F086
:1005F00078B830B50B46014600202022012409E0DE
:1006000021FA02F59D4205D303FA02F5491B04FACB
:1006100002F52844151EA2F10102F1DC30BD2DE9DE
:10062000F05F0546002092469B4688460646814676
:1006300040241BE0284641464746224600F02FF85A
:1006400053465A46C01A914110D3114618462246C5
:1006500000F016F82D1A67EB01084F4622460120DC
:10066000002100F00DF817EB00094E41201EA4F107
:100670000104DFDC484631462A464346BDE8F09F88
:10068000202A04DB203A00FA02F100207047914052
:10069000C2F1200320FA03F3194390407047202A47
:1006A00004DB203A21FA02F00021704721FA02F31C
:1006B000D040C2F120029140084319467047202AD9
:1006C00006DBCB17203A41FA02F043EAE07306E07A
:1006D00041FA02F3D040C2F120029140084319468A
:1006E00070470029A8BF7047401C490008BF20F090
:1006F0000100704710B4B0FA80FC00FA0CF050EA28
:10070000010404BF10BC704749B1CCF1200421FAA8
:1007100004F411FA0CF118BF012121430843A3EBA3
:100720000C01CB1D4FEA00614FEA102042BF0020B0
:1007300010BC704700EBC35010440029A4BF10BC8C
:100740007047401C490008BF20F0010010BC7047F2
:1007500010B541000CD0C0F3C751962908DC7E29A2
:1007600009DC06DB410204D000F0004040F07E507E
:1007700010BD002010BDC1F19604C4F1200100FAA3
:1007800001F1E040FFF7ADFFA04010BD10B5141E11
:1007900073F1000408DA401C41F1000192185B413A
:1007A0001A4301D120F0010010BD2DE9F04D924611
:1007B0009B4611B1B1FA81F202E0B0FA80F2203228
:1007C0009046FFF75DFF04460F4640EA0A0041EA03
:1007D0000B0153465A46084313D0114653EA010011
:1007E00019D0C8F140025046FFF759FF05460E46A2
:1007F000504659464246FFF743FF084305D00120C3
:1008000004E020463946BDE8F08D0020054346EA65
:10081000E0762C4337430A986305E40AA0EB08000E
:100820000022FD0A44EA47540A3002D5002001465E
:10083000E9E7010510196941DDE908450019694139
:10084000BDE8F04DA2E7C1F30A52C1F3130140F233
:10085000FF3341F480119A4202DA002001467047CA
:1008600040F233439A42A2F2334202DC5242FFF793
:1008700016BFFFF705BF000030B5041E71F100047C
:1008800004DB4FF00044404264EB0101141E73F19D
:10089000000405DB1C464FF00043524263EB0403A7
:1008A000994208BF904230BD00207047064C074D6A
:1008B00006E0E06840F0010394E807009847103430
:1008C000AC42F6D3FFF738FC506B0108706B01089F
:1008D00080B542F20040C4F20100022108F0DEFFC0
:1008E00028B1FFE70020522100F012F8FFE742F2A2
:1008F0000040C4F20100042108F0D0FF28B1FFE756
:100900000020492100F004F8FFE780BD000000004E
:1009100080B584B08DF80F008DF80E100020ADF872
:100920000C00ADF80A009DF80F00002840F0DD80B3
:10093000FFE79DF80E00522840F09180FFE742F259
:100940000040C4F2010009F0C5F8ADF80C00BDF894
:100950000C0040F6775188420BDCFFE7BDF80C0035
:10096000B0F53E6F05DBFFE70021084602F08CF989
:1009700062E0BDF80C0040F6D32188420CDCFFE7B2
:10098000BDF80C0040F63C11884205DBFFE7012072
:10099000002102F079F94EE0BDF80C0040F24671FA
:1009A00088420CDCFFE7BDF80C0040F2AF518842F2
:1009B00005DBFFE70220002102F066F93AE0BDF80E
:1009C0000C00B0F5667F0BDCFFE7BDF80C00B0F55E
:1009D000007F05DDFFE70320002102F055F928E044
:1009E000BDF80C00CC2805DCFFE70520002102F053
:1009F0004BF91DE0BDF80C0040F63371884216DB60
:100A0000FFE700200121019102F03EF9019908461B
:100A100002F03AF90199022002F036F90199032017
:100A200002F032F90199052002F02EF9FFE7FFE705
:100A3000FFE7FFE7FFE7FFE740F60000C4F2010031
:100A400001210AF0EFF90146042002F01DF942F2FB
:100A50000040C4F20100022108F016FF44E09DF8B6
:100A60000E0049283FD1FFE742F20040C4F20100E6
:100A70000090002108F0BAFEADF80A00BDF80A00A7
:100A800000EE100AB8EE400A10EE100AFFF782FDE1
:100A900041EC100B9FED161B53EC112B51EC100B7E
:100AA000FFF709FC41EC100B51EC100B9FED120B02
:100AB00053EC102BFFF771FC41EC100B51EC100BB9
:100AC000FFF749FD40F26801C2F20001888541F25A
:100AD0000000C4F2010008210AF0BEF800980421C9
:100AE00008F0D2FEFFE7FFE7FFE704B080BD00BFDC
:100AF000000000000025B140000000000000E440BC
:100B000080B586B042F20040C4F20100059008F0C2
:100B100045FD0020019008F013FF05984FF4807107
:100B20000122009208F0FCFF0199059808F022FDCF
:100B3000009A0598114608F0E5FC019905980222F3
:100B400002920523049308F00BFF009905984FF4D7
:100B5000602208F0A9FD009A0598114608F068FD8A
:100B6000009A0299059808F0CDFC019905980C228D
:100B7000072308F0C3FD029905984FF4E04208F0FE
:100B800093FD009A0299059808F052FD019A1220EF
:100B900003210CF093F80299059808F075FE05986A
:100BA0000421039108F070FE0299059808F044FEB4
:100BB0000399059808F040FE059808F029FD04986F
:100BC00009F06EFA059808F07FFC06B080BD0000C1
:100BD00080B582B041F69A60C2F20000807CADF828
:100BE0000400BDF8042041F6F800C2F20000805C69
:100BF00046F21051C0F60101895C884204DBFFE730
:100C000000208DF80700FEE0BDF8041041F6F80062
:100C1000C2F20000405C28BBFFE7BDF8041041F6BB
:100C20009A60C2F2000000EB4100808AC8224A4369
:100C300041F6FC01C2F200018852BDF8042041F6E1
:100C4000F801C2F20001885C01308854BDF804202C
:100C500041F6F401C2F200010020885401208DF811
:100C60000700D0E000208DF80300BDF8041041F625
:100C7000F800C2F20000405C01388DF80300FFE785
:100C80009DF80300002800F1AF80FFE7BDF80410D5
:100C900041F69A60C2F2000000EB4100808A41F602
:100CA000FC03C2F20003C82201FB02319DF80320BD
:100CB00031F8121088420DD1FFE79DF80300BDF80E
:100CC000042041F6F401C2F20001885401208DF89D
:100CD000070098E0BDF8041041F69A60C2F20000E7
:100CE00000EB4100808A41F6FC03C2F20003C822F7
:100CF00001FB02319DF8032031F81210884211DA0D
:100D0000FFE7BDF8040041F6FC02C2F20002C82170
:100D100000FB01209DF8032000EB420130F8120097
:100D2000488037E0BDF8041041F69A60C2F2000036
:100D300000EB4100808A41F6FC03C2F20003C822A6
:100D400001FB02319DF8032031F81210884220DDAA
:100D5000FFE7BDF8041041F69A60C2F2000000EB14
:100D60004100808A41F6FC03C2F20003C82201FB65
:100D700002319DF8032001EB420148809DF80300F9
:100D80000130BDF8042041F6F401C2F2000188549C
:100D90002AE0FFE7FFE79DF80300F0B9FFE7BDF8A1
:100DA000041041F69A60C2F2000000EB4100808A14
:100DB00041F6FC03C2F20003C82201FB02319DF898
:100DC000032021F812009DF80300BDF8042041F62D
:100DD000F401C2F20001885406E0FFE79DF8030029
:100DE00001388DF803004BE7BDF8042041F6F80107
:100DF000C2F20001885C013088540CF025FD01200E
:100E00008DF80700FFE79DF8070002B080BD0000E5
:100E100080B582B08DF8070041F69A60C2F20000FA
:100E2000C17C084490F821008DF806009DF8071059
:100E30009DF8060008448DF806009DF90620002064
:100E40000F210AF0ADF88DF806009DF8060004F0B9
:100E5000F5F902B080BD000080B582B08DF80700C2
:100E600041F69A60C2F2000010F812CF00EB4C017C
:100E70004B889DF9071040F24002C2F2000202EBDB
:100E8000CC0284449CF80AC032F81C2001FB0231D9
:100E9000ADF80410027846F21C50C0F6010030F99B
:100EA000120046F21451C0F6010131F91210BDF8DA
:100EB00004200AF075F8ADF80400BDF80400012123
:100EC00005F026F902B080BD80B582B08DF807002C
:100ED00041F69A60C2F200008178405C8DF806000D
:100EE0009DF906009DF9071000EB410200206421E6
:100EF0000AF056F88DF806009DF8060004F080FC14
:100F000002B080BD80B582B041F20000C4F20100A1
:100F100000904FF48061019109F09EFE052009F0D8
:100F2000BFF80098019909F09FFE142009F0B8F865
:100F300041F6D460C2F20000006890F82000012859
:100F400007D1FFE740F60E70C0F6010000F0FAF896
:100F5000FFE740F6DC60C0F6010000F0F3F840F671
:100F6000E160C0F6010000F0EDF802B080BD0000C5
:100F7000FFE7FEE782B001908DF8031001984089E9
:100F80009DF80310C84000F0030002B07047000055
:100F900081B0009000988088000B01B0704700007D
:100FA00081B0009000980078C0F3001001B0704745
:100FB00080B582B08DF807000020ADF804009DF8E0
:100FC000070001460091012804D0FFE7009802289D
:100FD00006D00BE0002008F017FFADF8040005E094
:100FE000012008F011FFADF80400FFE7BDF8040090
:100FF00002B080BD80B584B008F0ACFE0020029045
:101000003821019108F050FF029808F033FF02994F
:10101000084608F06DFF029808F0DCFE01990120F7
:10102000039008F041FF039808F024FF0299039809
:1010300008F05EFF039808F0CDFE029808F096FED7
:10104000039808F093FE04B080BD0000000000008B
:1010500080B586B08DF81700ADF814109DF8170014
:1010600001460391012804D0FFE70398022834D0F9
:1010700048E0BDF8140020B9FFE70020ADF81200E9
:1010800020E0BDF81400FFF748FA41EC100B9FED8B
:101090001E1B53EC112B51EC100BFFF70CF941EC1C
:1010A000100B51EC100B9FED1A0B53EC102BFFF7AC
:1010B0005BF841EC100B51EC100BFFF74CFAADF85C
:1010C0001200FFE7BDF8122000210291084608F047
:1010D000EBFD029808F0B4FE14E0BDF814200020E7
:1010E000009040F2145109F05BFF0099ADF8120036
:1010F000BDF812200120019008F0D6FD019808F0FB
:101100009FFEFFE706B080BD666666666666444081
:10111000000000000000284080B50020C4F202005A
:101120000421022209F0C0F950B1FFE70020C4F207
:1011300002000421012209F0A5F90AF041FFFFE7AE
:1011400080BD000080B584B0039003980190FFE754
:10115000019800788DF80B000198013001909DF8FE
:101160000B0008B9FFE727E09DF80B00FF2803D12B
:10117000FFE708F087F9EBE79DF80B000006002871
:101180000DD5FFE79DF80B0000F07F010198421C90
:101190000192007840EA012008F082FF0BE00199FB
:1011A0009DF80B20382001F0A7FC01989DF80B104A
:1011B00008440190FFE7CBE704B080BD7047000012
:1011C00080B582B00190019803F042FA41F63441B3
:1011D000C2F200010968488001980421FFF7CAFEA5
:1011E00000281CDCFFE70198FFF7D2FE014640F221
:1011F0009800C2F20000017000780146009120B111
:10120000FFE70098022804D007E0019803F092FA63
:1012100004E0019803F0F0FA00E0FFE7FFE702B016
:1012200080BD000080B582B0ADF80600BDF80600B4
:10123000552806DBFFE7BDF80600B0F5B47F01DDF9
:10124000FFE717E00020ADF804009DF8060000F06D
:101250003F008DF80400BDF80600C0F382108DF841
:1012600005009DF804209DF80530812002210AF038
:10127000A7FFFFE702B080BD80B584B08446069822
:101280008DF80FC08DF80E10ADF80C208DF80B30D6
:101290008DF80A00BDF80C00ADF808009DF80B00B1
:1012A0008008ADF806009DF80E009DF80F10BDF8FF
:1012B0000C209DF806300AF013FF5C2000210AF094
:1012C0007FFF9DF80A00BDF80810BDF806205143C5
:1012D00089B20BF003F804B080BD000080B592B075
:1012E0008DF847008DF846109DF847001F2805DC53
:1012F000FFE79DF84600202801DBFFE723E03120CF
:10130000002110910AF05CFF109B9DF847109DF89A
:10131000462068460F9043630363C2628262426262
:101320000362C361826143610361C16081604160A6
:101330000360202010211A460AF042FF1099302045
:101340000AF03EFFFFE712B080BD000080B582B01A
:101350008DF80700A6208DF806009DF80700C0074D
:1013600030B1FFE79DF8060001308DF80600FFE779
:101370009DF8060000210AF023FF02B080BD0000A6
:1013800080B582B08DF807009DF8070028B9FFE707
:10139000AE2000210AF014FF04E0AF2000210AF083
:1013A0000FFFFFE702B080BD80B584B003900291CB
:1013B0008DF8072008F07AF803999DF8072044F289
:1013C0003900C0F2F40004F0A7FA02999220C0F2AA
:1013D000F40004F06DFA9DF807109320C0F2F400B9
:1013E00004F066FA002004B080BD000083B00290D3
:1013F000ADF806108DF805200020ADF80200ADF81C
:101400000200FFE7BDF80200BDF80610013988426E
:101410000DDAFFE79DF805000299BDF80220885417
:10142000FFE7BDF802000130ADF80200EAE70299DB
:10143000BDF802200020885403B0704783B00290AA
:10144000ADF806100020ADF80400ADF80200ADF8CC
:101450000400FFE7BDF80400BDF80610884216DA64
:10146000FFE70299BDF80200085CBDF80420895C22
:10147000884205DDFFE7BDF80400ADF80200FFE794
:10148000FFE7BDF804000130ADF80400E2E7BDF865
:10149000020003B07047000080B588B040F2002021
:1014A000C0F23000012109F0D3FC40F60000C4F284
:1014B000010005900421069102220492812309F083
:1014C000EFFB049A059828214FF4004309F0E8FB4C
:1014D000049A069940F60040C4F20100039040F6D9
:1014E000034309F0DDFB049A059840F61401C4F2A9
:1014F000010140230B601021009109F0D1FB0099FC
:10150000049A41F21400C4F2010040F6D85303607B
:1015100041F20000C4F20100019009F0C1FB009902
:101520000398049A40F6144CC4F2010C4FF48073F3
:10153000CCF8003009F0B4FB0198049B0021029123
:101540000322079209F0ACFB02990598079A302311
:1015500009F0A6FB02990598069B079A09F0A0FBE3
:101560000398049A40F61041C4F20101C0230B60B5
:10157000142109F095FB0598079A18214FF4007380
:1015800009F08EFB05980699079A4FF4806309F0DD
:1015900087FB08B080BD0000B0B58AB08C46864697
:1015A0000F980E99ADF826E08DF825C08DF824200F
:1015B00008938DF81F108DF81E009DF824008DF8FB
:1015C0001D009DF81D00202805DBFFE79DF81D008C
:1015D0007F2804DBFFE73F208DF81D00FFE7089818
:1015E000C088400740B9FFE70898C088C1088DF857
:1015F0001C10C0F3C70008E00898C188012000EB68
:10160000D1008DF81C00C0B2FFE79DF81D00203806
:101610009DF81C104843089989884843ADF81A0082
:1016200008980068BDF81A1008440590BDF8260017
:101630009DF82510089B9A889B799DF81FC09DF8FE
:101640001E40059DEE46CEF80C50CEF80840CEF870
:1016500004C04FF0000CCEF800C000F03BF80AB018
:10166000B0BD000082B08DF807000020ADF8040086
:10167000FFE7BDF80400172829DCFFE70020ADF8DC
:101680000200FFE7BDF80200FF2819DCFFE79DF824
:10169000071043F2A950C0F60100405CBDF80420D9
:1016A00040F2A501C2F2000101EB0221BDF80220C7
:1016B0008854FFE7BDF802000130ADF80200E1E711
:1016C000FFE7BDF804000130ADF80400D1E702B037
:1016D00070470000B0B58AB094468E460446119813
:1016E00010980F990E9AADF826408DF825E0ADF8C8
:1016F00022C08DF821308DF820208DF81F108DF834
:101700001E000020ADF814009DF821109DF8203037
:1017100043F2A752C0F60102D25CB1FBF2F10131F3
:101720008DF813108DF81000ADF81800FFE7BDF824
:1017300018009DF81310884280F2B280FFE79DF8F0
:101740002130BDF818009DF8202043F2A751C0F6C3
:1017500001018A5C00FB12308DF812009DF8120026
:101760009DF82020895C88420ADBFFE79DF8201065
:1017700043F2A750C0F60100405C8DF8110004E070
:101780009DF812008DF81100FFE70020ADF81C0055
:10179000FFE7BDF81C00BDF8221088426DDAFFE7B4
:1017A0001198BDF81410405C8DF817000020ADF8BA
:1017B0001A00FFE7BDF81A009DF81110884250DAB0
:1017C000FFE79DF8200058BBFFE7BDF82600BDF8F5
:1017D0001C10084402909DF82500BDF81A1008441A
:1017E0009DF81010084403909DF81700000600288B
:1017F00004D5FFE79DF81F00019003E09DF81E004F
:101800000190FFE703990298019A80B2C9B2D2B25F
:1018100000F0A2F89DF8170040008DF8170019E0BD
:10182000BDF82600BDF81C1008449DF82510BDF831
:101830001A2011449DF8102011449DF81720920998
:1018400080B2C9B200F088F89DF8170080008DF8CA
:101850001700FFE7FFE7BDF81A000130ADF81A00E6
:10186000A8E7BDF814000130ADF81400FFE7BDF89B
:101870001C000130ADF81C008BE79DF8201043F2EE
:10188000A750C0F60100415C9DF8100008448DF897
:101890001000FFE7BDF818000130ADF8180046E76A
:1018A0000AB0B0BD84B0DDF810C08DF80F008DF81F
:1018B0000E10ADF80C208DF80B300020ADF80000B4
:1018C0009DF80E008008ADF804009DF80B0080081C
:1018D000ADF80200BDF80400ADF80800FFE7BDF860
:1018E0000800BDF80410BDF802201144884231DA26
:1018F000FFE79DF80F00ADF80600FFE7BDF8060012
:101900009DF80F10BDF80C20114488421BDAFFE748
:101910000498BDF80010405CBDF8082040F2A50115
:10192000C2F2000101EB0221BDF806208854BDF887
:1019300000000130ADF80000FFE7BDF806000130FF
:10194000ADF80600DAE7FFE7BDF808000130ADF8B2
:101950000800C4E704B0704782B0ADF806008DF807
:1019600005108DF804209DF8050080088DF803000F
:101970009DF80510032020EA010149008DF80210AE
:101980009DF8021000FA01FC9DF8031040F2A5003A
:10199000C2F2000000EB0122BDF80630D15C21EA62
:1019A0000C01D1549DF804109DF8022001FA02F3B5
:1019B0009DF8031000EB0121BDF80620885C184358
:1019C000885402B07047000080B586B084460898FD
:1019D000ADF816C08DF81510ADF812208DF8113045
:1019E0008DF810009DF81100ADF80A009DF8150063
:1019F000ADF80600BDF8060000F00300ADF80400E5
:101A0000BDF8060080088DF80300FFE7BDF80A0066
:101A1000002800F0CB80FFE7BDF80A00BDF80410F5
:101A2000C1F10401884205DAFFE7BDF80A00ADF80C
:101A3000080007E0BDF80400C0F10400ADF808009C
:101A400080B2FFE700208DF802008DF80100BDF89C
:101A5000080004282DD1FFE79DF8101043F2A9508B
:101A6000C0F60100405C8DF80200BDF81600ADF82C
:101A70000E00FFE7BDF80E00BDF81210BDF81620ED
:101A80001144884214DAFFE79DF802009DF8032014
:101A900040F2A501C2F2000101EB0221BDF80E20C7
:101AA0008854FFE7BDF80E000130ADF80E00E1E705
:101AB00062E00020ADF80E00FFE7BDF80E00BDF8B3
:101AC0000810884226DAFFE7BDF80E00BDF80410C2
:101AD0000844C0F1030040008DF800009DF810009C
:101AE0009DF8001000FA01F19DF8020008438DF8FE
:101AF00002009DF80010032000FA01F19DF801009A
:101B000008438DF80100FFE7BDF80E000130ADF885
:101B10000E00D2E7BDF81600ADF80E00FFE7BDF8E5
:101B20000E00BDF81210BDF816201144884222DACA
:101B3000FFE79DF801C09DF8031040F2A500C2F236
:101B4000000000EB0122BDF80E30D15C21EA0C014F
:101B5000D1549DF802309DF8031000EB0121BDF82F
:101B60000E20885C18438854FFE7BDF80E00013052
:101B7000ADF80E00D3E7FFE7BDF80810BDF80A0086
:101B8000401AADF80A00BDF80810BDF80600084478
:101B9000ADF80600BDF8060000F00300ADF8040043
:101BA000BDF8060080088DF803002FE706B080BD61
:101BB00080B584B084460698ADF80EC08DF80D103F
:101BC000ADF80A208DF809308DF808009DF80D0059
:101BD0008008ADF802009DF809008008ADF800000B
:101BE000BDF80200ADF80400FFE7BDF80400BDF841
:101BF0000210BDF80020114488422ADAFFE7BDF840
:101C00000E00ADF80600FFE7BDF80600BDF80E10A7
:101C1000BDF80A201144884214DAFFE79DF8080055
:101C2000BDF8042040F2A501C2F2000101EB02213F
:101C3000BDF806208854FFE7BDF806000130ADF876
:101C40000600E1E7FFE7BDF804000130ADF804004D
:101C5000CBE704B080BD0000B0B58CB08C468646A2
:101C600012981199109CADF82EE08DF82DC08DEDD5
:101C70000A0A8DF827208DF826308DF825108DF86A
:101C8000240000208DF823009DED0A0ABDEEC00A55
:101C90008DED070A9DED0A0A9DED071AB8EEC11AEF
:101CA00030EE410A9DF8271043F2B850C0F601000B
:101CB00000EB810090ED001AB8EE411A20EE010A07
:101CC000BDEEC00A8DED060A0698B0F1FF3F04DCB8
:101CD000FFE7069840420690FFE79DF8260001289E
:101CE0004BD1FFE7BDF82E009DF82D10069A109BF2
:101CF0009DF825E09DF82440EC46CCF80840CCF84F
:101D000004E0CCF800300123059300F0FDF8BDF8A5
:101D10002E209DF827000130109B998800FB112090
:101D20009DF82D109DF825209DF824E0EC46CCF878
:101D300004E0CCF8002080B22E22FFF72DFC059B9A
:101D4000BDF82E209DF827000130DDF840C0BCF81A
:101D5000041000FB11209DF82D10079A9DF82540D6
:101D60009DF82450EE46CEF80850CEF80440CEF848
:101D700000C080B200F0C8F84BE0BDF82E009DF81E
:101D80002D10069A109B9DF825E09DF82440EC4606
:101D9000CCF80840CCF804E0CCF8003000230493E1
:101DA00000F0B2F88DF82300BDF82E209DF8230036
:101DB000109B998800FB01209DF82D109DF825208F
:101DC0009DF824E0EC46CCF804E0CCF8002080B28A
:101DD0002E22FFF7E1FB049BBDF82E209DF8230087
:101DE0000130DDF840C0BCF8041000FB01209DF874
:101DF0002D10079A9DF825409DF82450EE46CEF808
:101E00000850CEF80440CEF800C080B200F07CF854
:101E1000FFE70CB0B0BD000010B584B08C4686461C
:101E200007980699ADF80EE08DF80DC08DF80C20DE
:101E3000ADF80A30ADF808108DF807009DF80C00D9
:101E400001282FD1FFE7BDF80E00BDF80A100844A5
:101E5000B0F5807F07DDFFE7BDF80E00C0F58070AC
:101E6000ADF80A00FFE79DF80D00BDF80810084422
:101E7000612807DBFFE79DF80D00C0F16000ADF8B9
:101E80000800FFE7BDF80E009DF80D10BDF80A2010
:101E90009DF808309DF807C0EE46CEF800C0FFF769
:101EA00093FD2EE09DF80D00BDF80A10084461284E
:101EB00007DBFFE79DF80D00C0F16000ADF80A00F8
:101EC000FFE7BDF80E00BDF808100844B0F5807FAC
:101ED00007DDFFE7BDF80E00C0F58070ADF8080023
:101EE000FFE7BDF80E009DF80D10BDF808209DF825
:101EF0000A309DF807C0EE46CEF800C0FFF764FD3B
:101F0000FFE704B010BD000010B58AB08C468646CD
:101F10000E980D990C9CADF826E08DF825C008921E
:101F20008DF81F308DF81E108DF81D0000208DF8E3
:101F30001C00089802900298B0F1FF3F04DCFFE714
:101F4000029840420290FFE7FFE7029846F267617D
:101F5000C6F2666150FB01F39A1002EBD37202EBFA
:101F60008202A0EB42009DF81C300DF10F02D0540C
:101F7000029850FB01F1881000EBD17002909DF89F
:101F80001C0001308DF81C00FFE702980028DCD10E
:101F9000FFE70898B0F1FF3F0CDCFFE79DF81C203D
:101FA0000DF10F012D2088549DF81C0001308DF893
:101FB0001C00FFE79DF81F0000285FD1FFE700200D
:101FC0008DF81B00FFE79DF81B009DF81C10884250
:101FD00053DAFFE79DF81C009DF81B10401A0DF125
:101FE0000F01084410F8010C2D281BD1FFE7BDF8A4
:101FF00026009DF825109DF81C209DF81B30D21A54
:102000000DF10F031A4412F8012C0C9B9DF81EC011
:102010009DF81D40EE46CEF80440CEF800C0FFF714
:10202000BBFA1CE0BDF826009DF825109DF81C2089
:102030009DF81B30D21A0DF10F031A4412F8012C2F
:1020400030320C9B9DF81EC09DF81D40EE46CEF828
:102050000440CEF800C0D2B2FFF79EFAFFE70C981A
:102060008188BDF826000844ADF82600FFE79DF8FA
:102070001B0001308DF81B00A5E757E000208DF80C
:102080001B00FFE79DF81B009DF81C1088424CDAEE
:10209000FFE79DF81B100DF10F00405C2D281AD1B1
:1020A000FFE7BDF826000C9B9988401A9DF8251083
:1020B0009DF81BC00DF10F0212F80C209DF81EC0F8
:1020C0009DF81D40EE46CEF80440CEF800C080B228
:1020D000FFF762FA1BE0BDF826000C9B9988401AB6
:1020E0009DF825109DF81BC00DF10F0212F80C2071
:1020F00030329DF81EC09DF81D40EE46CEF80440DB
:10210000CEF800C080B2D2B2FFF746FAFFE70C98D3
:102110008188BDF82600401AADF82600FFE79DF83B
:102120001B0001308DF81B00ACE7FFE79DF81C0099
:102130000AB010BD10B588B08C4686460B980A9937
:10214000ADF81EE08DF81DC0ADF81A208DF81930DD
:102150008DF818108DF81700BDF81E009DF81D10A1
:10216000BDF81A309DF818209DF817E0EC46CCF821
:1021700004E0CCF8002001220392FFF74DFE039A01
:10218000BDF81E009DF81D109DF819301944BDF8CA
:102190001A309DF818C09DF81740EE46CEF804405E
:1021A000CEF800C0C9B2FFF737FEBDF81E009DF89B
:1021B0001D109DF819309DF818209DF817E0EC4689
:1021C000CCF804E0CCF8002000220492FFF724FEB3
:1021D000049ABDF81E00BDF81A1008449DF81D10A1
:1021E0009DF819309DF818C063449DF81740EE46DD
:1021F000CEF80440CEF800C080B2FFF70DFE08B064
:1022000010BD000080B588B084460A98ADF81EC0A5
:10221000ADF81C10ADF81A208DF819308DF81800A3
:10222000BDF81A00BDF81E20801A00EB80004001A6
:10223000BDF81C10891A90FBF1F08DF817009DF87D
:102240001800C007D0B1FFE740F23001C2F2000130
:102250006420087069460020049008602120332122
:102260009F221323FFF7B0FB049869460860E7201C
:10227000362115220C23FFF7A7FBFFE79DF8190075
:1022800040F23001C2F200010978884218D0FFE71D
:102290009DF81920694600238B600320486040F2B6
:1022A0000800C2F200000860E7203621FFF72CFE8C
:1022B0009DF8190040F23001C2F200010870FFE7FA
:1022C0009DF8170040F23101C2F2000109788842FE
:1022D00012D0FFE79DF817206946032008602120EF
:1022E00033211323FFF770FB9DF8170040F23101F3
:1022F000C2F200010870FFE708B080BD10B588B0D9
:102300008C4686460D980C990B9C0A9CADF81EE0F5
:102310008DF81DC0ADF81A20ADF818308DF81710E3
:102320008DF816000A980490BDF81E00ADF80E0056
:102330009DF81D008DF80D00BDF81A00ADF80A00DB
:10234000BDF81800ADF80800BDF91A00002806D441
:10235000FFE7BDF91A00B0F5807F05DDFFE74FF418
:102360008070ADF80A00FFE7BDF91800002805D419
:10237000FFE7BDF91800612804DBFFE76020ADF836
:102380000800FFE7FFE704980078002866D0FFE721
:10239000049800780A281AD1FFE7BDF81E00ADF8AE
:1023A0000E000B98C1889DF80D0008448DF80D00B3
:1023B0009DF80D000B99C9880844BDF808108842A3
:1023C00001DDFFE74AE0049801300490DBE7BDF847
:1023D0000E009DF80D10049A12780B9B9DF817C003
:1023E0009DF81640EE46CEF80440CEF800C0FFF748
:1023F000D3F80B988188BDF80E000844ADF80E00A4
:10240000BDF80E000B9989880844BDF80A1088426F
:1024100020DDFFE7BDF81E00ADF80E000B98C18867
:102420009DF80D0008448DF80D009DF80D000B99E6
:10243000C9880844BDF80810884201DDFFE70DE0B7
:1024400004984078202804D1FFE7049801300490D4
:10245000FFE7FFE704980130049094E708B010BD4F
:1024600086B00590049103924FF2E070C1F6FF70C0
:102470000290029800680190019804990880BDF8C4
:102480000600039908804FF2E870C1F6FF700290D1
:1024900000208DF80300FFE79DF80300022811DCFF
:1024A000FFE70298006805999DF8032041F8220093
:1024B000029804300290FFE79DF8030001308DF888
:1024C0000300E9E706B0704780B584B0039041F699
:1024D000D460C2F20000006890F90400142808DB00
:1024E000FFE741F6D460C2F200000068807C08B1CA
:1024F000FFE745E007206946012200F0DDF89DF87E
:10250000000003990870039800780006002837D56A
:10251000FFE7039800788006002831D4FFE7072002
:1025200069460A2200F0C8F89DF800000399087077
:102530009DF801109DF8020040EA012003994880AF
:102540009DF803109DF8040040EA0120039988805B
:102550009DF805109DF8060040EA01200399C88007
:102560009DF807109DF8080040EA012003990881B2
:102570009DF80900039948810398FEF721FEFFE7C3
:1025800004B080BD80B582B000200DF103010522AA
:1025900000F092F89DF80300410941F6D460C2F2C0
:1025A00000000268D1729DF80310C1F3C0010268F7
:1025B00091729DF804206FF0070101EB520102684F
:1025C00011710068807C68B9FFE79DF8050041F64D
:1025D000D461C2F200010A6850719DF806000968D2
:1025E000C87108E09DF8050041F6D461C2F200010F
:1025F00009688871FFE79DF8070000F07F0041F649
:10260000D461C2F20001096808729DF80700000653
:10261000002809D5FFE741F6D460C2F20000016846
:10262000087A40420872FFE702B080BD80B584B0EE
:10263000039000200290382000F026FA9DF80E004A
:1026400000F084FA9DF80D0000F080FA9DF80C006F
:1026500000F07CFA392000F0F9F99DF80D004006F1
:1026600000280DD5FFE7002000F072F9000202906B
:10267000012000F06DF9014602980843029016E02F
:102680000020019000F064F90146019809040291CC
:1026900000F05EF90146029840EA01200290012014
:1026A00000F056F90146029808430290FFE700F057
:1026B00003FA029804B080BD80B584B08DF80F0095
:1026C00002918DF8072000200090ADF8040038201A
:1026D00000F0DAF99DF80F0000F038FA392000F028
:1026E000B5F90098ADF80400FFE7BDF804009DF8C7
:1026F0000710013988420EDAFFE7002000F028F9C0
:102700000299BDF804208854FFE7BDF804000130A9
:10271000ADF80400E9E7012000F01AF90299BDF8CC
:102720000420885400F0C8F904B080BD80B582B0A0
:102730008DF8070000208DF806008DF8050041F6A1
:102740009A60C2F20000807CADF80200BDF8021071
:1027500041F6F800C2F20000405C002800F0D3808F
:10276000FFE79DF90700012849DBFFE700208DF80E
:102770000600FFE79DF90600BDF8022041F6F801CA
:10278000C2F20001895C88422BDAFFE7BDF8022023
:1027900041F6FC01C2F20001C82002FB00109DF9C5
:1027A000061030F8110041F69A61C2F2000101EB07
:1027B0004201898A88420DDDFFE79DF80600BDF8D9
:1027C000022041F6F401C2F20001885401208DF884
:1027D000050006E0FFE79DF8060001308DF80600D1
:1027E000C8E79DF8050048B9FFE7BDF8022041F6AB
:1027F000F401C2F2000100208854FFE74DE0BDF86B
:10280000021041F6F800C2F20000405C01388DF879
:102810000600FFE79DF9060000282BD4FFE7BDF86E
:10282000022041F6FC01C2F20001C82002FB0010A8
:102830009DF9061030F8110041F69A61C2F20001CC
:1028400001EB4201898A88420DDAFFE79DF8060014
:10285000BDF8022041F6F401C2F2000188540120C3
:102860008DF8050006E0FFE79DF8060001388DF8B9
:102870000600CFE79DF8050070B9FFE7BDF802201C
:1028800041F6F800C2F20000805C013841F6F40124
:10289000C2F200018854FFE7FFE7BDF8022041F6CD
:1028A000FC01C2F20001C82002FB001041F6F40155
:1028B000C2F20001895C30F8110041F69A61C2F25F
:1028C000000101EB42018882BDF8020068B9FFE710
:1028D000BDF8021041F69A60C2F2000000EB410020
:1028E000808A042103F014FC0CE0BDF8021041F6CC
:1028F0009A60C2F2000000EB4100808A012103F0DF
:1029000007FCFFE7FFE702B080BD0000FFE7FEE73E
:1029100081B08DF8030003208DF80200FFE79DF8D9
:102920000300411E8DF8031068B1FFE703208DF806
:102930000200FFE79DF80200411E8DF8021008B169
:10294000FFE7F7E7EBE701B07047000070470000D2
:1029500080B584B08DF80F0000208DF80E0040F691
:102960001042C4F20102802111608DF80D00FFE7D2
:102970009DF80D0007283CDCFFE79DF80E004000A5
:102980008DF80E000220FFF7C3FF40F61041C4F29D
:102990000101402008600120FFF7BAFFFFE740F681
:1029A0000040C4F20100402108F03CFA08B9FFE7FA
:1029B000F5E740F60040C4F20100802108F032FA49
:1029C00038B1FFE79DF80E0040F001008DF80E00D1
:1029D000FFE70120FFF79CFF40F61441C4F201011C
:1029E00040200860FFE79DF80D0001308DF80D00D4
:1029F000BEE79DF80F00C00738B1FFE740F6104171
:102A0000C4F201018020086006E040F61441C4F2DF
:102A1000010180200860FFE702200190FFF778FFA6
:102A2000019840F61042C4F2010240210291116067
:102A3000FFF76EFF029840F61441C4F201010860EE
:102A4000802008609DF80E0004B080BD80B584B081
:102A50008DF80F0004200290FFF75AFF029840F60D
:102A60001042C4F20102019280211160FFF750FF71
:102A7000019A029840211160FFF74AFF9DF80F006C
:102A800000F002F804B080BD80B582B08DF8070078
:102A900040F61441C4F20101009180200860042036
:102AA000FFF736FF0099402008609DF8070000F00E
:102AB0004DF802B080BD000080B584B040F61441EE
:102AC000C4F2010180200290086004200390FFF707
:102AD0001FFF039840F61042C4F201020192402108
:102AE0001160FFF715FF019A029903981160FFF733
:102AF0000FFF04B080BD000080B584B08DF80F00DA
:102B00000291ADF806209DF80F0000F0FE00FFF7DF
:102B1000BBFF0020ADF80400FFE7BDF80400BDF8DE
:102B2000061088420DDAFFE70298BDF80410405CF9
:102B300000F00CF8FFE7BDF804000130ADF8040028
:102B4000EBE7FFF7B9FF04B080BD000080B586B0A9
:102B50008DF8170080208DF81600FFE79DF816000D
:102B600090B3FFE70120FFF7D3FE9DF816009DF814
:102B70001710084207D0FFE740F61041C4F20101E8
:102B80008020086006E040F61441C4F20101802074
:102B90000860FFE70120FFF7BBFE40F61041C4F2DA
:102BA00001014020049008600220FFF7B1FE049864
:102BB00040F61441C4F201010860FFE79DF81600D9
:102BC00040088DF81600C9E701200090FFF7A0FE2D
:102BD000009840F61042C4F2010201928021039154
:102BE0001160FFF795FE039940F60040C4F2010022
:102BF00008F018F901998DF815004020029008603E
:102C00000220FFF785FE029A039840F61441C4F2B1
:102C100001010A6008609DF81500B0FA80F04009D3
:102C200006B080BD81B0ADF80000BDF800000928F5
:102C300004DCFFE701208DF8030021E0BDF800006F
:102C4000632804DCFFE702208DF8030018E0BDF8DC
:102C50000000B0F57A7F04DAFFE703208DF8030067
:102C60000EE0BDF8000042F20F71884204DCFFE77D
:102C700004208DF8030003E005208DF80300FFE732
:102C80009DF8030001B0704780B582B08DF8070051
:102C90008DF806109DF8071040F29F00C2F2000068
:102CA000405C0146009140B1FFE7009801282DD01B
:102CB000FFE70098022865D073E09DF8071040F206
:102CC0009900C2F20000405C022811DBFFE79DF88A
:102CD000072040F29901C2F20001002088549DF8BB
:102CE000072041F6E101C2F2000101208854FFE70C
:102CF0009DF8060048B9FFE79DF8072040F29F01C4
:102D0000C2F2000101208854FFE74BE00AF08CFB7F
:102D10009DF8060050B9FFE79DF8072040F29901A1
:102D2000C2F20001885C0130885408E09DF8072059
:102D300040F29F01C2F2000100208854FFE79DF895
:102D4000071040F29900C2F20000405C642818DBD2
:102D5000FFE79DF8072040F29F01C2F20001022028
:102D600088549DF8073040F29902C2F20002002117
:102D7000D1549DF8072041F6E101C2F200018854C8
:102D8000FFE70FE09DF80600012809D1FFE79DF855
:102D9000072040F29F01C2F2000100208854FFE7A3
:102DA00000E0FFE702B080BD80B590B00F920E91B9
:102DB0000D9000F091F841F20000C4F20100039080
:102DC0008021049107F048FF64200A9007F068F919
:102DD0000398049907F048FF0A9807F061F930203A
:102DE000069000210C9109F0EBF90C99942009F060
:102DF000E7F90C99312009F0E3F9D72001210B9173
:102E00009F22089209F0DCF90B9B0C9A684603217B
:102E1000079101603220059009F0D2F905980799D1
:102E20006A461060F2201E22282309F0C9F968467C
:102E30000D2343600360F020099004211A4609F035
:102E4000BFF906980C9909F0BBF90C99084609F0EE
:102E50002DF90B990C9ABC2009F0B2F90799089B3F
:102E60000C9AEC460A20CCF80000CA2009F0A8F918
:102E700009980B99112209F0A3F90B9920200B2234
:102E800009F09EF9BDF83A00FEF7CCF99DF835003F
:102E90009DF83610FEF722FA9DF8370000F0010089
:102EA000FEF754FA0C98FEF7DDFB0C9968460160BA
:102EB0004FF4807260230846FEF7DEF90A9807F0A7
:102EC0003BF90B98FEF75CFA0C9806F069FF0520B9
:102ED00007F0E6F810B080BD80B58CB040F203601A
:102EE0000AF054FA4FF4C0600AF050FA40F20E7043
:102EF0000AF04CFA0A2007F01FF940F61040C4F21D
:102F000001004FF4A043036040F60040C4F201000A
:102F1000019010210222029207F0C2FE0198029A4B
:102F200018214FF4204307F0BBFE05A803900CF0D6
:102F3000F3F843F60000C4F2000004900CF058F8D7
:102F4000039904984FF4404206924FF4827205921E
:102F50000022079203230A934FF40073089320235F
:102F60000B9309920CF094F804980CF0CBF80498A9
:102F70004FF480410BF0F4FF04980CF01DF80CB0F6
:102F800080BD000082B001908DF803109DF8030011
:102F9000C007C8B1FFE7019905208880019988889A
:102FA00000EB800040008860019914200870019AAD
:102FB00040F20911D180019A102151700199887055
:102FC00001990020C870FFE702B07047FFE7FEE7F5
:102FD00080B50020012103F07DF9FFE741F6E10013
:102FE000C2F20000007818B1FFE707F0F7FD02E039
:102FF00006F004FAF2E780BD70B5A0B000201F9083
:103000004FF400311E911D9040F20311C0F20931BE
:103010001C918DF86F008DF86E008DF86D009DF994
:103020006F009DF96D109DF96E20012303F08CF95E
:10303000FFE741F6E100C2F200004078F0B1FFE79F
:1030400041F6E101C2F20001002048709DF96F00D5
:1030500008B9FFE7EDE79DF86F0001388DF86F00C4
:1030600000238DF86E308DF86D309DF96F009DF95D
:103070006D109DF96E2003F067F9FFE741F6E1005E
:10308000C2F200008078F8B1FFE741F6E101C2F238
:103090000001002088709DF96F00072801D1FFE72B
:1030A000C7E79DF86F0001308DF86F0000238DF8A1
:1030B0006E308DF86D309DF96F009DF96D109DF9A2
:1030C0006E2003F041F9FFE741F6E100C2F2000093
:1030D0000079E8B1FFE741F6E101C2F2000100200A
:1030E0001A9008719DF96F201EA9895601399DF922
:1030F0006E20012307F070FF1A9B8DF86E009DF97A
:103100006F009DF96D109DF96E2003F01DF9FFE72A
:1031100041F6E800C2F2000090F90000002800F03B
:103120004882FFE79DF96F0001461991072800F2D8
:103130002F821999DFE811F008009400D200640191
:1031400001020202030204029DF96D00014618917A
:1031500040B1FFE7189801282DD0FFE71898022802
:1031600053D07CE041F63840C2F20000179090ED59
:10317000000A41F6E800C2F2000090F9000001EEFA
:10318000100AB8EEC11A30EE010ABDEEC00A10EE08
:10319000102A6FF02F00182107F002FF0146179840
:1031A00000EE101AB8EEC00A80ED000A90ED000A99
:1031B0000BF056F853E041F63840C2F2000016908A
:1031C00090ED030A41F6E800C2F2000090F9000019
:1031D00001EE100AB8EEC11A30EE010ABDEEC00AC7
:1031E00010EE102A6FF02F00002107F0D9FE0146E3
:1031F000169800EE101AB8EEC00A80ED030A90EDA2
:10320000030A4C200AF038FC29E041F63840C2F2AB
:103210000000159090ED040A41F6E800C2F20000AB
:1032200090F9000001EE100AB8EEC11A30EE010A62
:10323000BDEEC00A10EE102A6FF02F00002107F03B
:10324000AFFE0146159800EE101AB8EEC00A80EDE8
:10325000040A90ED040A52200AF00EFCFFE797E101
:1032600041F63840C2F2000014904069FDF792F92F
:1032700041EC100B8DED120B41F6E800C2F200009C
:1032800090F90000FDF749F941EC100B9FEDE61BAA
:1032900053EC112B51EC100BFDF70DF89DED120BBB
:1032A00041EC110B51EC110B53EC102BFCF75CFFB4
:1032B00041EC100B51EC100BFDF77FF901EE100AF9
:1032C000B0EE0C0ADFEDDB0A07F040FE149880ED4B
:1032D000050A90ED050A0AF03BFC59E19DF96E00E4
:1032E0000146119120B1FFE71198012831D076E015
:1032F0009DF96D0000EB400141F65040C2F2000024
:10330000109000EB810090ED010A41F6E800C2F256
:10331000000090F9000001EE100AB8EEC11A30EE7C
:10332000010ABDEEC00A10EE102A6FF00B000C214E
:1033300007F036FE0146109800EE101AB8EEC00AEB
:103340009DF96D1001EB410100EB810080ED010A58
:1033500045E09DF96D0000EB400141F65040C2F29E
:1033600000000F9000EB81008068FDF713F941EC3D
:10337000100B8DED0C0B41F6E800C2F2000090F945
:103380000000FDF7CAF841EC100B9FEDA51B53ECB4
:10339000112B51EC100BFCF78EFF9DED0C0B53EC39
:1033A000102B41EC100B51EC100BFCF7DDFE41EC47
:1033B000100B51EC100BFDF700F901EE100A9FED18
:1033C0009C0AF2EE040A07F0C1FD0F989DF96D10FA
:1033D00001EB410100EB810080ED020AFFE79DF95E
:1033E0006D0000EB400141F65040C2F2000000EBDE
:1033F000810250F82100516892680AF0B5FCC7E0DC
:103400009DF96D0001460B9140B1FFE70B98012833
:1034100029D0FFE70B9802284AD06EE041F60C60F5
:10342000C2F200000A9090ED010A41F6E800C2F2F3
:10343000000090F9000001EE100AB8EEC11A30EE5B
:10344000010ABDEEC00A10EE102A6FF00B000C212D
:1034500007F0A6FD01460A9800EE101AB8EEC00A61
:1034600080ED010A49E041F60C60C2F200000990CB
:1034700090ED040A41F6E800C2F2000090F9000065
:1034800001EE100AB8EEC11A30EE010ABDEEC00A14
:1034900010EE102A6FF00B000C2107F081FD0146A1
:1034A000099800EE101AB8EEC00A80ED040A24E074
:1034B00041F60C60C2F20000089090ED060A41F659
:1034C000E800C2F2000090F9000001EE100AB8EE28
:1034D000C11A30EE010ABDEEC00A10EE102A6FF0DC
:1034E0000B000C2107F05CFD0146089800EE101A55
:1034F000B8EEC00A80ED060AFFE79DF86D6041F660
:103500000C6EC2F2000EDEF80000DEF80410DEF8E9
:103510000820DEF80C30DEF810C0DEF81440DEF8CB
:103520001850EE46CEF80C60CEF80850CEF80440A5
:10353000CEF800C00BF008F82AE029E028E027E0E8
:1035400041F6D850C2F20000079090ED010A41F612
:10355000E800C2F2000090F9000001EE100AB8EE97
:10356000C11A30EE010ABDEEC00A10EE102A00208A
:10357000182107F015FD0146079800EE101AB8EE65
:10358000C00A80ED010A90ED010A0BF055FCFFE73F
:103590009DF96F009DF96D109DF96E200023069333
:1035A00002F0D2FE069841F6E801C2F2000108706E
:1035B000FFE741F6E100C2F20000C078E8B1FFE7A2
:1035C00041F6E101C2F2000100200590C8709DF9AA
:1035D0006F201CA9895601399DF96D20012307F040
:1035E000FBFC059B8DF86D009DF96F009DF96D103A
:1035F0009DF96E2002F0A8FEFFE741F6E100C2F25D
:103600000000007830B1FFE707F0E8FA03200AF085
:10361000A5F902E005F0F2FE0BE520B070BD00BF99
:103620009A9999999999B93F000000000000E03FEC
:10363000CDCCCC3D0000C84280B592B000208DF8C2
:1036400043000DF13E018A1C40F26800C2F2000006
:1036500008901030FEF704FFE2200DF12B010991D4
:103660001322FFF729F80899DDF82B0000BAC8618A
:1036700046F29550C0F601000CF034F946F25D7048
:10368000C0F601000CF02EF90898016942698369BF
:1036900046F64A00C0F601000CF024F9BDF83E10D1
:1036A000BDF8402046F62900C0F601000CF01AF9DA
:1036B00046F27570C0F601000CF014F908984168E4
:1036C0008268C36846F28570C0F601000CF00AF902
:1036D00046F24070C0F601000CF004F99DF82B1082
:1036E0009DF82C20BDF82D0043BA46F2D850C0F604
:1036F00001000CF0F7F89DF82F109DF830009DF8B0
:1037000031C001F00F01020900F00F034FEA1C1055
:103710000CF00F0EEC46CCF804E0CCF8000046F2BA
:10372000D570C0F601000CF0DDF89DF832109DF860
:1037300033009DF834C001F00F01020900F00F03BF
:103740004FEA1C100CF00F0EEC46CCF804E0CCF85D
:10375000000046F2F170C0F601000CF0C3F89DF8CD
:1037600035109DF836009DF837C001F00F010209B1
:1037700000F00F034FEA1C100CF00F0EEC46CCF8D3
:1037800004E0CCF8000046F60D00C0F601000CF095
:10379000A9F89DF839209DF83A00110902F00F02AE
:1037A000030946F2A570C0F601000CF09BF89DF8E5
:1037B0003C209DF83D00110902F00F02030946F27A
:1037C000BD70C0F601000CF08DF80999E6200F22BB
:1037D000FEF772FF9DF82B109DF82C309DF82D0000
:1037E0001A0903F00F03EC46CCF8000046F2F15042
:1037F000C0F601000CF076F89DF82E109DF82F30E1
:103800009DF830001A0903F00F03EC46CCF80000D5
:1038100046F27760C0F601000CF064F89DF83110B4
:103820009DF832309DF833001A0903F00F03EC467F
:10383000CCF8000046F2FD60C0F601000CF052F832
:103840009DF834109DF835309DF836001A0903F0C4
:103850000F03EC46CCF8000046F23460C0F60100DD
:103860000CF040F89DF837109DF838309DF839007D
:103870001A0903F00F03EC46CCF8000046F2BA60D8
:10388000C0F601000CF02EF846F65C00C0F6010010
:103890000CF028F89DF94300012103F051F8FFE7EF
:1038A00041F6E100C2F200004078B0B1FFE741F616
:1038B000E101C2F20001002048709DF9430008B9FF
:1038C000FFE7EDE79DF8430001388DF843009DF9CF
:1038D0004300002103F034F8FFE741F6E100C2F2B3
:1038E00000008078B8B1FFE741F6E101C2F20001C3
:1038F000002088709DF94300042801D1FFE7CFE73D
:103900009DF8430001308DF843009DF943000021EC
:1039100003F016F8FFE741F6E100C2F20000C078BC
:10392000002800F09A80FFE79DF9430001460791C7
:10393000042800F281800799DFE801F0030F1B27BC
:10394000280040F26801C2F2000191F82E00B0FA9E
:1039500080F0400981F82E0072E041F69A61C2F2CF
:10396000000191F82000B0FA80F0400981F82000B1
:1039700066E040F26801C2F2000191F82F00B0FA4F
:1039800080F0400981F82F005AE059E041F6E1014A
:10399000C2F200010020C8706946C8600320886038
:1039A00040F22000C2F20000486046F6A800C0F6CF
:1039B0000100086008201821F8226023FEF79EFC11
:1039C000FFE741F6E100C2F20000C078022822D1F0
:1039D000FFE740F60040C4F201004FF4807107F0A9
:1039E00043F94FF47A70069006F05AFB069806F0F9
:1039F00057FB069806F054FB069806F051FB069814
:103A000006F04EFB72B601201190119880F31388D6
:103A100000F008FDFFE741F6E100C2F20000007887
:103A200018B1FFE707F0DAF800E0CAE79DF94300B4
:103A3000012102F085FF03E000208DF84300FFE73D
:103A40009DF943000021059102F07AFF059841F6A7
:103A5000E101C2F20001C870FFE741F6E800C2F2DE
:103A6000000090F9000018B1FFE707F0B7F8FFE792
:103A700041F6E100C2F20000007830B1FFE707F044
:103A8000ADF8002009F06AFF02E005F0B7FC07E797
:103A900012B080BD80B588B041F6D400C2F20000FB
:103AA0000121017000208DF81F009DF91F0003F017
:103AB00041F908F039FBFFE741F6E100C2F20000EE
:103AC0004078C0B1FFE741F6E101C2F200010020F9
:103AD00048709DF91F0008B9FFE7EDE79DF81F004A
:103AE00001388DF81F009DF91F00002103F022F915
:103AF00008F01AFBFFE741F6E100C2F2000080780F
:103B0000C8B1FFE741F6E101C2F200010020887070
:103B10009DF91F00052801D1FFE7CDE79DF81F00A3
:103B200001308DF81F009DF91F00002103F002F9FC
:103B300008F0FAFAFFE741F6E800C2F2000090F957
:103B40000000002800F0A380FFE79DF91F00014658
:103B50000691052800F288800699DFE801F0031D30
:103B60003952536C41F62860C2F20000059090F97A
:103B7000000041F6E801C2F2000191F9001042187C
:103B80000020642107F00CFA0146059801700178C5
:103B90000120FDF75DFA6BE041F62860C2F20000FB
:103BA0000490B0F9040041F6E801C2F2000191F975
:103BB000001001EB8101421800203C2107F0F0F9D0
:103BC00004998880888800EB8000400088604FE07E
:103BD00041F62860C2F200000390C08841F6E80177
:103BE000C2F2000191F90010421855204FF4B4714F
:103BF00007F0D6F901460398C180C088FDF712FB93
:103C000036E035E041F62860C2F20000029081788B
:103C100090F9010041F6E802C2F2000292F9002098
:103C20000244002007F0BCF902994870487889786E
:103C3000FDF754FB1CE041F62861C2F2000101913E
:103C4000487891F9021041F6E802C2F2000292F9B6
:103C500000200A441F2107F0A3F9019988704878D1
:103C60008978FDF73BFB03E000208DF81F00FFE79C
:103C70009DF91F000021009103F05CF808F054FA50
:103C8000009841F6E801C2F200010870FFE741F632
:103C9000E100C2F20000C07808B3FFE79DF91F0001
:103CA000032815D1FFE741F62860C2F20000C27870
:103CB00001219143C170C07800F00100FDF746FB7F
:103CC0009DF91F00002103F035F808F02DFAFFE7F9
:103CD00041F6E101C2F200010020C870FFE741F6A1
:103CE000E100C2F20000007860B1FFE706F076FF65
:103CF000022009F033FE41F6D401C2F20001002097
:103D0000087002E005F07AFBD6E608B080BD00003E
:103D100080B582B000208DF807009DF907000121D1
:103D200004F0DAFDFFE741F6E100C2F2000040785E
:103D3000B0B1FFE741F6E101C2F200010020487096
:103D40009DF9070008B9FFE7EDE79DF80700013886
:103D50008DF807009DF90700002104F0BDFDFFE785
:103D600041F6E100C2F200008078B8B1FFE741F609
:103D7000E101C2F20001002088709DF907000528CA
:103D800001D1FFE7CFE79DF8070001308DF807006C
:103D90009DF90700002104F09FFDFFE741F6E100D7
:103DA000C2F20000C07850B3FFE706F017FF9DF99C
:103DB000070001460091052817D80099DFE801F0B7
:103DC0000306090C0F12FFF765FE12E0FFF714F966
:103DD0000FE000F027F80CE000F01AFA09E0FFF716
:103DE0002BFC06E0FFF7F4F803E000208DF8070055
:103DF000FFE79DF90700012104F06EFDFFE741F6A2
:103E0000E100C2F20000007830B1FFE706F0E6FE04
:103E1000012003F04DFF02E005F0F0FA83E702B065
:103E200080BD000080B58EB000208DF8370041F6CF
:103E30009A60C2F2000090F82000002818BF01200C
:103E40008DF835009DF93700012104F081FEFFE770
:103E500041F6E100C2F200004078B0B1FFE741F660
:103E6000E101C2F20001002048709DF9370008B955
:103E7000FFE7EDE79DF8370001388DF837009DF931
:103E80003700002104F064FEFFE741F6E100C2F2D2
:103E900000008078B8B1FFE741F6E101C2F200010D
:103EA000002088709DF937000B2801D1FFE7CFE78C
:103EB0009DF8370001308DF837009DF9370000215B
:103EC00004F046FEFFE741F6E100C2F20000C078D0
:103ED000002800F09D80FFE79DF9370001460C9116
:103EE0000B2800F284800C99DFE801F006074344B8
:103EF000455667727D7E7F807DE09DF83500C00766
:103F0000B0B3FFE741F69A60C2F200000B9090F860
:103F100028100120884301F073F90B9890F82800CD
:103F2000C00748B1FFE741F20000C4F201004FF4BE
:103F3000006106F099FE1AE041F69A60C2F20000B4
:103F400090F8270090B9FFE741F69A60C2F20000AE
:103F500090F82800C00748B9FFE741F20000C4F21A
:103F600001004FF4006106F077FEFFE7FFE7FFE78F
:103F700041E040E03FE09DF83500C00758B1FFE761
:103F800041F69A60C2F2000090F82C10012088439C
:103F900001F0D0F8FFE72EE09DF83500C00758B1DA
:103FA000FFE741F69A60C2F2000090F82910012064
:103FB000884301F07BF8FFE71DE041F69A60C2F20A
:103FC000000090F82A100120884301F005F912E062
:103FD00041F69A60C2F2000090F82B10012088434D
:103FE00001F082F807E006E005E004E003E00020CD
:103FF0008DF83700FFE79DF9370000210A9104F0A2
:10400000A7FD0A9841F6E101C2F20001C870FFE77E
:1040100041F6E800C2F2000090F90000002800F02C
:10402000E580FFE79DF93700014609910B2800F272
:10403000CC800999DFE801F0064E4F6B86878889AE
:104040008AA9C7C841F69A60C2F20000089090F8A9
:10405000270041F6E801C2F2000191F90010421870
:104060000020012106F09CFF0146089880F82710E7
:1040700090F82700012809D1FFE741F20000C4F2BF
:1040800001004FF4006106F0EFFD1AE041F69A607E
:10409000C2F2000090F8270090B9FFE741F69A605D
:1040A000C2F2000090F82800C00748B9FFE741F2CB
:1040B0000000C4F201004FF4006106F0CDFDFFE7FF
:1040C000FFE741F69A60C2F2000090F8270000F086
:1040D000D5FF7EE07DE041F69A60C2F200000790D5
:1040E00090F8320041F6E801C2F2000191F90010A7
:1040F00042180020032106F053FF079981F832008F
:1041000091F8320081F8330001F0C4F961E041F622
:104110009A60C2F20000069090F8310041F6E80182
:10412000C2F2000191F9001042180120022106F0AC
:1041300037FF0146069880F8311090F8310000F002
:10414000E7FF46E045E044E043E042E041F69A60A4
:10415000C2F200000590C17C2D300490405C41F615
:10416000E801C2F2000191F9001042180020032179
:1041700006F016FF049902460598C37CCA54C07C19
:104180000A5C114601F09EF823E041F69A60C2F203
:1041900000000290C17C34300390405C41F6E8019D
:1041A000C2F2000191F9001042180020042106F02B
:1041B000F7FE029902460398CB7CC254C97C405C4E
:1041C00001F0BCF905E004E003E000208DF83700C1
:1041D000FFE79DF937000021019104F0B9FC019837
:1041E00041F6E801C2F200010870FFE741F6E10084
:1041F000C2F20000007830B1FFE706F0EFFC0120CA
:1042000009F0ACFB02E005F0F9F821E60EB080BD44
:1042100080B58AB000208DF827009DF92700012184
:1042200004F05EFFFFE741F6E100C2F200004078D3
:10423000B0B1FFE741F6E101C2F200010020487091
:104240009DF9270008B9FFE7EDE79DF82700013841
:104250008DF827009DF92700002104F041FFFFE7BA
:1042600041F6E100C2F200008078B8B1FFE741F604
:10427000E101C2F20001002088709DF927000528A5
:1042800001D1FFE7CFE79DF8270001308DF8270027
:104290009DF92700002104F023FFFFE741F6E1002C
:1042A000C2F20000C07838B3FFE79DF9270001464D
:1042B000089105280FD80899DFE801F003040506E6
:1042C00007080CE00BE00AE009E008E000F0BCFBA6
:1042D00009F0BAFA03E000208DF82700FFE79DF906
:1042E00027000021079104F0FBFE079841F6E10149
:1042F000C2F20001C870FFE741F6E800C2F2000018
:1043000090F90000002800F07880FFE79DF9270071
:104310000146069105285FD80699DFE801F00317EA
:104320002B3F5B5C41F69A60C2F200000590C07BB7
:1043300041F6E801C2F2000191F900104218002094
:10434000032106F02DFE0599C87349E041F69A60F5
:10435000C2F200000490407B41F6E801C2F2000185
:1043600091F9001042180020012106F019FE04996D
:10437000487335E041F69A60C2F200000390807BFA
:1043800041F6E801C2F2000191F90010421805203F
:104390003C2106F005FE0399887321E041F69A60FE
:1043A000C2F20000029090F9100041F6E801C2F25A
:1043B000000191F90010421809200A2106F0F0FDD1
:1043C000014602980174007C40F26001C2F20001D3
:1043D000887005E004E003E000208DF82700FFE787
:1043E0009DF927000021019104F07AFE019841F621
:1043F000E801C2F200010870FFE741F6E100C2F2F5
:104400000000007830B1FFE706F0E8FB012009F07A
:10441000A5FA02E004F0F2FF05E70AB080BD000053
:1044200070470000BFF34F8F4EF60C51CEF20001E3
:10443000086800F4E0600422C0F2FA5210430860F9
:10444000BFF34F8FFFE7FEE77047000080B584B0F1
:104450000390039941F63440C2F2000001900160DC
:10446000026800210291518041F62E42C2F2000200
:10447000118000680430092120220092FCF7B6FF69
:10448000009A019800680D300821FCF7AFFF009AF0
:104490000198029903685975006816304021FCF7AD
:1044A000A5FF019902980A6882F856000A6882F806
:1044B00058000A6882F859000968087004B080BD85
:1044C00081B08DF803009DF80300002848D1FFE774
:1044D00040F26800C2F2000090F82010013180F82C
:1044E000201090F820003C280DD1FFE740F2680131
:1044F000C2F20001002081F8200091F82100013073
:1045000081F82100FFE740F26800C2F2000090F855
:1045100021003C280DD1FFE740F26801C2F2000102
:10452000002081F8210091F82200013081F822005A
:10453000FFE740F26800C2F2000090F8220018285D
:104540000DD1FFE740F26801C2F20001002081F8BE
:10455000220091F82300013081F82300FFE7FFE7F4
:104560009DF80300012811D1FFE741F69A60C2F2DD
:10457000000090F82000012807D1FFE741F6D201A2
:10458000C2F2000101200870FFE7FFE701B07047A9
:1045900080B582B0012009F0C5F848B1FFE70120DD
:1045A00009F0B4F809F0F0F80020FFF789FF17E0F0
:1045B000022009F0B7F890B1FFE7022009F0A6F851
:1045C00009F0E2F809F0C6F80190019842F2D871BA
:1045D000084409F011F90120FFF772FFFFE7FFE738
:1045E00002B080BD80B582B040F21B7008F0CEFEF4
:1045F00040F21C7008F0CAFE08F004FC05F0E4FA72
:104600004FF40060019008F08DFD019808F09EFDC8
:104610004FF4807008F0F6FE40F60F0008F0B6FE8A
:1046200009F0D6F809F0B0F8012009F0A1F809F076
:10463000ABF847F6FF7009F0B3F809F0A5F80020D1
:1046400009F0F6F842F2D87009F0D6F802B080BD51
:1046500080B586B004900020ADF80E000498FCF7F9
:104660009FFC012830D1FFE704980621FCF782FC6B
:104670008DF80C00049802210091FCF77BFC009956
:104680008DF80D0003A80190FCF7D8FE01460198B3
:104690008DF80B109DF80B10405C00280FDCFFE735
:1046A0009DF80B0028B9FFE704984088ADF80E008C
:1046B00004E00498C088ADF80E00FFE703E0002096
:1046C000ADF8160031E010E004980621FCF752FC2A
:1046D000002805DCFFE704984088ADF80E0003E0F1
:1046E0000020ADF8160020E0FFE7BDF80E0041F60F
:1046F0002E41C2F200010988884211D0FFE7BDF8BF
:104700000E0041F62E41C2F20001088041F634400D
:10471000C2F200000168087840F001000870FFE76D
:10472000BDF80E00ADF81600FFE7BDF8160006B0A4
:1047300080BD000080B582B0019000218DF803108B
:104740000198808800F003008DF803000198FCF7C1
:1047500011FC002818DCFFE70198417A41F634404B
:10476000C2F2000002689DF8033002EB430251736D
:104770000199098902689DF8033002EB43029173A5
:10478000016800204875FFE700208DF80200FFE770
:104790009DF8020007282CDCFFE741F63440C2F206
:1047A000000000689DF802201044407B41F6A801FB
:1047B000C2F20001895C884214D0FFE741F6344020
:1047C000C2F200000268117841F004011170006823
:1047D0009DF802201044407B41F6A801C2F200017E
:1047E0008854FFE7FFE79DF8020001308DF80200D2
:1047F000CEE702B080BD000080B584B003900020F9
:104800008DF80B000398808800F00F008DF80B00E6
:1048100003988088C0F3001041F63441C2F20001D1
:104820000A6882F8570041F6B000C2F20000007832
:10483000096891F85710884223D0FFE741F63440C9
:10484000C2F2000001900068163040212022FCF7DF
:10485000CDFD01980268002182F8561003681A788D
:1048600002F0F7021A7041F6A602C2F200021180AD
:10487000006890F8570041F6B001C2F200010870DC
:10488000FFE70398FCF78CFB00285DD1FFE7039856
:104890000221FCF76FFB002838DCFFE703980021BA
:1048A000FCF768FB002831DCFFE70398C07941F68C
:1048B0003441C2F200010A689DF80B3002EB83021A
:1048C00090750398C0880A689DF80B3002EB83024C
:1048D000D0750398407A0A689DF80B3002EB83028A
:1048E00010760398008909689DF80B2001EB82017E
:1048F00048769DF80B10012000FA01F241F6A6015E
:10490000C2F20001088810430880FFE741F6A600C4
:10491000C2F2000000884FF6FF71884213D1FFE712
:1049200041F63440C2F200000268117841F00801FB
:1049300011700168002081F8560041F6A601C2F20C
:1049400000010880FFE745E003980021FCF712FB17
:10495000002821DCFFE70398407A41F63441C2F297
:1049600000010A689DF80B3002EB43029075039832
:10497000008909689DF80B2001EB4201C8759DF87C
:104980000B10012000FA01F241F6A601C2F200016B
:10499000088810430880FFE741F6A600C2F2000035
:1049A00000884FF6FF71884213D1FFE741F634408B
:1049B000C2F200000268117841F00801117001682C
:1049C000002081F8360041F6A601C2F200010880FD
:1049D000FFE7FFE704B080BD7047000080B54FF4EB
:1049E000407008F001FA0AF07BFC40F2026008F027
:1049F000CDFC40F2036008F0C9FC40F2046008F00E
:104A0000C5FC40F2056008F0C1FC4FF4C06008F03E
:104A1000BDFC40F2047008F0B9FC40F2057008F0EB
:104A2000B5FC40F2096008F0B1FC012008F0F4F98F
:104A300040F21D7008F0AAFC40F20E6008F0A6FCDF
:104A4000052005F02DFB80BD80B58EB000200590BF
:104A50008DF834000C908DF82F00ADF82C00ADF8D7
:104A60002A00ADF8280041F69A61C2F200010691D1
:104A70000A4612F8123FADF82630137802EB4302D3
:104A80005288ADF82420CA7C114491F821108DF889
:104A90002310ADF820008DF81F0041F6D501C2F2B9
:104AA00000010120087000F0E3FB05990698BDF8AD
:104AB000263041F6F802C2F20002D154C07C20B97F
:104AC000FFE7032000F0BAFB03E0062000F0B6FB8E
:104AD000FFE7BDF8263046F21C50C0F6010030F862
:104AE000132046F21450C0F6010030F8131041F6BE
:104AF000F800C2F20000C35CEC460120CCF80000D4
:104B00001046FDF77FFB41F69A60C2F20000807C00
:104B1000032840F0C580FFE741F69A60C2F200002A
:104B2000407B002800F0BC80FFE700208DF82F00BC
:104B3000FFE79DF82F000D2800F3B180FFE79DF8F7
:104B40002F1046F23C50C0F6010030F82100ADF8BD
:104B500020000020ADF82C00FFE7BDF82C009DF8E8
:104B60002F3046F23C52C0F6010202EB8301498825
:104B700032F82320891ABDF8263040F26002C2F2D2
:104B80000002D25C91FBF2F188426ADAFFE7BDF8DD
:104B90002000022101F0BCFA07F08EF88DF81F000A
:104BA0009DF81F00C007D8B1FFE7BDF82000BDF891
:104BB000263041F6FC02C2F20002C82103FB0122AA
:104BC00041F6F801C2F20001CB5C22F81300BDF8F7
:104BD0002620885C0130885400208DF81F00FFE7F4
:104BE00046F23C51C0F601010888C98EBDF820206C
:104BF000BDF826C041F6F803C2F2000313F80C30EA
:104C0000EE464FF0000CCEF800C0FDF7FBFABDF801
:104C10002000BDF8262040F26001C2F20001895C4C
:104C20000844ADF8200041F6E100C2F2000000782F
:104C300078B9FFE7BDF8262041F6F800C2F200007F
:104C4000805C46F21051C0F60101895C884201D1B6
:104C5000FFE706E0FFE7BDF82C000130ADF82C00BF
:104C60007BE741F6E100C2F20000007878B9FFE787
:104C7000BDF8262041F6F800C2F20000805C46F242
:104C80001051C0F60101895C884201D1FFE706E0BE
:104C9000FFE79DF82F0001308DF82F0049E7CDE0A8
:104CA000BDF82600A0B9FFE741F69A61C2F2000103
:104CB000CA7B46F22C50C0F6010030F82220ADF835
:104CC0002A20C97B00EB81004088ADF828002BE04A
:104CD000BDF82600022811D1FFE740F26000C2F2C1
:104CE000000080780A2809D1FFE740F21220ADF8D1
:104CF0002A0040F2AE60ADF8280014E0BDF826109E
:104D000046F21C50C0F6010030F81100ADF82A0040
:104D1000BDF8261046F21450C0F6010030F811001C
:104D2000ADF82800FFE7FFE7BDF82A00ADF8200046
:104D30000020ADF82C00FFE7BDF82C00BDF82810CE
:104D4000BDF82A20891ABDF8263040F26002C2F26E
:104D50000002D25C91FBF2F188426EDAFFE7BDF807
:104D60002000022101F0D4F906F0A6FF8DF81F0003
:104D70009DF81F00C007D8B1FFE7BDF82000BDF8BF
:104D8000263041F6FC02C2F20002C82103FB0122D8
:104D900041F6F801C2F20001CB5C22F81300BDF825
:104DA0002620885C0130885400208DF81F00FFE722
:104DB000BDF82A00BDF82810BDF82020BDF826C097
:104DC00041F6F803C2F2000313F80C30EE464FF040
:104DD000000CCEF800C0FDF715FABDF82000BDF8B4
:104DE000262040F26001C2F20001895C0844ADF85F
:104DF000200041F6E100C2F20000007878B9FFE738
:104E0000BDF8262041F6F800C2F20000805C46F2B0
:104E10001051C0F60101895C884207D1FFE741F6D5
:104E2000E101C2F200010020087006E0FFE7BDF8D2
:104E30002C000130ADF82C007EE7FFE7BDF82620FE
:104E400041F6F401C2F200010020049088549DF85C
:104E5000230000F0F3F9BDF82400012101F058F916
:104E6000049800F005FA049841F6D501C2F2000159
:104E7000087041F6E100C2F200000078B8B1FFE727
:104E800069460320C8600020886040F20800C2F232
:104E90000000486046F6A300C0F6010008606220EA
:104EA00036214FF0FF331A46FDF728FA16E069461F
:104EB0000320C8600020886040F20800C2F20000B1
:104EC000486046F69E00C0F6010008606220362168
:104ED0004FF0FF331A46FDF711FAFFE705F07EFEAB
:104EE0000EB080BD80B58AB08DF8270041F6D5019F
:104EF000C2F200010120087000218DF8261041F651
:104F00009A61C2F2000107910A4612F8123F02EBC1
:104F100043025288ADF82420BDF82420ADF82220A9
:104F2000CA7C114491F821108DF8211000F0A0F9ED
:104F30000798C07C20B9FFE7032000F07FF903E069
:104F4000062000F07BF9FFE7FFE79DF82600C00789
:104F5000002878D1FFE741F6E800C2F2000090F99E
:104F60000000F0B1FFE741F6E801C2F200010020C5
:104F7000069008709DF8210000F060F9BDF822004D
:104F80000121059101F0C4F8059802F091FE069800
:104F900000F06EF9069841F6D501C2F200010870E2
:104FA00069E0BDF822309DF9270041F69A61C2F20E
:104FB000000191F812C040F26002C2F2000212F841
:104FC0000C2010FB0230ADF82200BDF822008A7CD4
:104FD00046F21451C0F6010131F91210884210DC7A
:104FE000FFE7BDF8220041F69A61C2F200018A7C17
:104FF00046F21C51C0F6010131F91210884218DA4C
:10500000FFE79DF8210000F019F9BDF82400012107
:10501000039101F07DF8039802F04AFE002004900D
:1050200000F026F9049841F6D501C2F2000108709B
:1050300021E0BDF82200022101F06AF806F03CFEF2
:105040008DF8260081E79DF8210000F0F7F8BDF803
:1050500022000121019101F05BF8019802F028FE85
:105060000020029000F004F9029841F6D501C2F246
:1050700000010870FFE70AB080BD000080B582B073
:105080008DF807009DF80700022801DBFFE70BE021
:105090009DF8070041F6D461C2F20001096881F869
:1050A000270000F01DFBFFE702B080BD80B582B095
:1050B0008DF8070041F6D460C2F20000006890F855
:1050C000200008B9FFE70DE09DF8070041F6D46124
:1050D000C2F20001096800F0010081F8290000F027
:1050E00041F9FFE702B080BD80B582B08DF80700BE
:1050F0009DF8070041F6D461C2F20001096800F092
:10510000010081F82B0000F02DF902B080BD0000F5
:1051100080B582B08DF807009DF8070041F6D46194
:10512000C2F20001096881F8310000F0B3F902B061
:1051300080BD000080B586B08DF8170041F6D460C0
:10514000C2F20000006890F8200008B9FFE740E0D4
:105150009DF8170041F6D461C2F20001096800F021
:10516000010081F82C009DF81700C007B8B1FFE7D7
:105170000220039019210022049200F051FC0398B0
:10518000049A792100F04CFC0398049A1D2100F048
:1051900047FC0398049A7D2100F042FC16E00220AF
:1051A000019019213F22029200F03AFC0198029AE4
:1051B000792100F035FC0198029A1D2100F030FCA5
:1051C0000198029A7D2100F02BFCFFE700F062F9C4
:1051D000FFE706B080BD000080B582B08DF8070003
:1051E0009DF8070041F6D461C2F20001096800F0A1
:1051F000010081F82A0000F0B5F802B080BD00007F
:1052000080B582B08DF8070041F6D460C2F200008C
:10521000006890F8200008B9FFE70DE09DF807004E
:1052200041F6D461C2F20001096800F0010081F882
:10523000280000F055FAFFE702B080BD80B582B0CB
:105240008DF807009DF80700102801DBFFE70DE04F
:105250009DF8070041F6D461C2F200010968CA7CDA
:10526000114481F8210000F01FFAFFE702B080BD71
:1052700080B582B08DF807009DF8071041F6D46024
:10528000C2F20000026801F00101D1700068C0782C
:10529000C00728B1FFE70020012109F00BF90EE05B
:1052A00041F6D460C2F200000068C078C00728B997
:1052B000FFE70021084609F0FDF8FFE7FFE702B02D
:1052C00080BD000080B582B08DF807008DF8061013
:1052D0008DF805209DF80600032805DCFFE79DF802
:1052E0000500042801DBFFE713E09DF8060041F606
:1052F000D461C2F200010A689DF807301A4482F8AE
:105300002D009DF80500096881F82F0000F02AF8AB
:10531000FFE702B080BD000080B582B08DF80700C5
:105320008DF8061000208DF8050041F6D460C2F219
:1053300000000068C07C08B1FFE711E09DF807108D
:105340009DF8060000EB81019DF8050008438DF8EB
:10535000050007200DF10501012200F037FBFFE7F2
:1053600002B080BD80B582B000208DF8070041F604
:10537000D460C2F200000068C07C002860D1FFE762
:1053800041F6D460C2F20000006890F82A00C0071D
:1053900038B1FFE79DF8070040F080008DF8070066
:1053A00006E09DF8070000F07F008DF80700FFE79A
:1053B00041F6D460C2F20000006890F82B00C007EC
:1053C00038B1FFE79DF8070040F040008DF8070076
:1053D00006E09DF8070000F0BF008DF80700FFE72A
:1053E00041F6D460C2F20000006890F82900C007BE
:1053F00038B1FFE79DF8070040F020008DF8070066
:1054000006E09DF8070000F0DF008DF80700FFE7D9
:1054100041F6D460C2F200000068C17C084490F8F4
:105420002D0000F003019DF8070040EA81008DF88F
:1054300007009DF8070040F002008DF8070021E00A
:105440009DF8070040F040008DF8070041F6D46059
:10545000C2F200000168CA7C114491F82D1001F0DD
:1054600003029DF8071041EA82018DF807100068D9
:1054700090F82F0000F003019DF8070008438DF815
:105480000700FFE705200DF10701012200F09EFA59
:1054900002B080BD80B582B000208DF8070041F6D3
:1054A000D460C2F200000068C07C70BBFFE741F628
:1054B000D460C2F20000006890F8300038B9FFE70D
:1054C0009DF8070040F080008DF80700FFE741F6E7
:1054D000D460C2F20000006890F82C00C00738B118
:1054E000FFE79DF8070040F020008DF80700FFE778
:1054F00041F6D460C2F20000006890F831109DF8C7
:10550000070008438DF8070010E041F6D460C2F2AE
:105510000000016891F8320091F8331000EB81012E
:105520009DF8070008438DF80700FFE706200DF1FE
:105530000701012200F04AFA02B080BD80B586B0B2
:105540008DF8170041F6D460C2F200000068C07CFC
:10555000002853D1FFE79DF8170001460491042865
:105560004BD80499DFE801F003111F2D3B00694679
:105570000C208860332048603A20086006200D2106
:105580006522002300F04CFA37E069460C20886061
:10559000332048601520086006200D216522102365
:1055A00000F03EFA29E069460C208860332048600C
:1055B0003A20086006200D216522102300F030FA01
:1055C0001BE0694608208860332048603A20086064
:1055D00006200D2165221E2300F022FA0DE0694607
:1055E00005208860552048603A20086006200D217B
:1055F00065222A2300F014FAFFE752E09DF8170015
:105600000146039104284BD80399DFE801F0031108
:105610001F2D3B0069460C208860332048603A20EB
:10562000086006200D216022002300F0F9F937E020
:1056300069460C208860332048603A2008600620C4
:105640000D216022102300F0EBF929E069460C20BF
:105650008860332048603A20086006200D216022CF
:10566000902300F0DDF91BE06946052088603320B7
:1056700048604920086006200D216022D02300F0F8
:10568000CFF90DE0694604208860332048604D2042
:10569000086006200D216022D02300F0C1F9FFE749
:1056A000FFE706B080BD000080B582B000208DF815
:1056B000070041F6D460C2F200000068C17C0144DA
:1056C00091F8210091F8231000EB81108DF807006C
:1056D00003200DF10701012200F078F902B080BD2E
:1056E00080B582B000208DF807008DF8060041F6E5
:1056F000D460C2F200000068C07C002858D1FFE7E7
:1057000041F6D460C2F20000006890F82500C0079E
:1057100038B1FFE79DF8070040F080008DF80700E2
:1057200006E09DF8070000F07F008DF80700FFE716
:105730009DF807008DF8060041F6D460C2F2000023
:10574000006890F8270000F001019DF8070040EA8A
:1057500081008DF807009DF807004007002807D555
:10576000FFE79DF8060000F0FB008DF8060006E05C
:105770009DF8060040F004008DF80600FFE741F6B2
:10578000D460C2F20000006890F82800C00738B169
:10579000FFE79DF8070040F001008DF8070006E0E4
:1057A0009DF8070000F0FE008DF80700FFE718E005
:1057B00041F6D460C2F20000006890F82600C007ED
:1057C00038B1FFE79DF8070040F080008DF8070032
:1057D00006E09DF8070000F07F008DF80700FFE766
:1057E000FFE704200DF107010122009200F0EEF81E
:1057F000009A64200DF1060100F0E8F802B080BDC7
:1058000080B582B08DF807009DF80700652801DBA0
:10581000FFE746E09DF8070041F6D461C2F20001BF
:1058200009688A7888549DF8070003280DDCFFE793
:105830009DF807106FF0420000EB810000EE100AA7
:10584000B8EEC00A8DED000A17E09DF80700C0F120
:105850006400FAF762FE41EC100B9FED131B53EC52
:10586000112B51EC100BFAF726FD41EC100B51EC0B
:10587000100BFAF7A2FE0090FFE741F6D460C2F2E7
:1058800000000068807830B9FFE79DED000A4620EF
:1058900008F006FA05E09DED000A522008F000FA33
:1058A000FFE702B080BD00BF000000000000E1BFC4
:1058B00080B582B0019000913820FDF7E5F89DF8A1
:1058C0000600FDF743F99DF80500FDF73FF99DF847
:1058D0000400FDF73BF99DF805004006002809D5B6
:1058E000FFE79DF80100FDF731F99DF80000FDF795
:1058F0002DF90CE09DF80200FDF728F99DF8010054
:10590000FDF724F99DF80000FDF720F9FFE7FDF70A
:10591000D3F802B080BD000080B584B0039002913E
:105920008DF807203820FDF7AFF89DF80E00FDF741
:105930000DF99DF80D00FDF709F99DF80C00FDF734
:1059400005F90020ADF80400FFE7BDF804009DF85C
:105950000710884235DAFFE79DF80D004006002861
:1059600010D5FFE70298BDF8041000EB81004078E5
:10597000FDF7ECF80298BDF8041010F82100FDF7CF
:10598000E5F817E00298BDF8041000EB810080787C
:10599000FDF7DCF80298BDF8041000EB81004078B8
:1059A000FDF7D4F80298BDF8041010F82100FDF7B7
:1059B000CDF8FFE7FFE7BDF804000130ADF80400C3
:1059C000C3E7FDF779F804B080BD000080B584B06E
:1059D0008DF80F0002918DF807203820FDF754F85C
:1059E0009DF80F00FDF7B2F80020ADF80400FFE7C6
:1059F000BDF804009DF8071088420DDAFFE7029811
:105A0000BDF80410405CFDF7A1F8FFE7BDF8040005
:105A10000130ADF80400EBE7FDF74EF804B080BDAF
:105A200083B080B585B0099308920791049007A8C8
:105A300001903820FDF728F800200290FFE7029837
:105A4000049988420FD2FFE70198011D0191006877
:105A50008DF80F009DF80F00FDF778F8FFE702982A
:105A600001300290EBE7FDF727F805B0BDE8804074
:105A700003B0704780B584B08DF80F009DF80F001B
:105A8000042801DBFFE73CE09DF80F0041F6D461FC
:105A9000C2F2000102910A6890749DF80F2046F24C
:105AA0002450C0F60100805C0968C8740020012100
:105AB000019108F0FFFC01990298006810F8122F7C
:105AC00000EB4200408800F023FBFFF7EDFDFFF7FD
:105AD00007FEFFF747FCFFF7DDFC01980221FFF707
